:100000000C94A9060C94D1060C94D1060C94D1063C
:100010000C94D1060C94D1060C94D1060C945D0F6F
:100020000C94D1060C94D1060C94A50E0C94D10618
:100030000C94D1060C94370F0C94D1060C94D10675
:100040000C9424260C94D1060C94D1060C94D10661
:100050000C94D1060C94D1060C94D1060C94D106C4
:100060000C9486080C94D106022D082D082D082D1D
:10007000D02CD62C082D082D082DDC2CAB2C862C52
:10008000C62CE22C602E682E8B2E432E202E102E96
:100090001B2E152DA42D1C32EC2E592FB830B42F49
:1000A000383022313131643170311C321C32DA3156
:1000B000DB40A4A62EAF2000A1C8D300408DAED552
:1000C00080A80000600000000000000000000000A8
:1000D000000000E000000000000000000000000040
:1000E0000001E0000000000000000000000000002F
:1000F00001F000000000000000000000000000030C
:10010000F00000000000000000000000000007F008
:100110000000000000000000000000000007F800E0
:100120000000000000000000000000000FF80000C8
:100130000003C0007E000001E0007F0FF800000017
:1001400003C000FE000001E000FFEFF80000000324
:10015000C000FE000001E000FFFFF800000003C047
:1001600000F00000000F007FFE7FC0000003C00011
:10017000F00000000F003FFE7FF83FF1FBCFFCFED8
:10018000F3BC3DEFE01FFE7FFF7FFBFFDFFEFEFFC6
:10019000BC3DEFE01FC6FFFF7FFBFFDFFEFEFFBCA5
:1001A0003DEFE00FE3C7FE787BC3DE1EF0FFBC3DF2
:1001B000EF0007FF87FC787BC3DE1EF0F83C3DEFC5
:1001C0000001FFFFF0007BC3C01EF0F03C3DEF00DC
:1001D00001F37FE03FFBC3CFFEF0F03C3DEF0003B7
:1001E000E33F807FFBC3DFFEF0F03C3DEF0007E71D
:1001F0003C00787BC3DE1EF0F03C3DEF0007FFBE05
:1002000000787BC3DE1EF0F03C3DEF0007FFFE00F0
:10021000787BC3DE1EF0F03C3DEF000FFFFE007F59
:10022000FBFFDFFEF0F03FFDEFE00FFFFF007FFB85
:10023000FFDFFEF0F03FFDEFE00FF9FF003E79F940
:10024000CF9EF0F01F3DE7E01FF1FF00000000002F
:10025000000000000000001F80FF007FFFFFFFFF85
:10026000FFFFFFFFFFE01C007F007FFFFFFFFEB4EA
:100270006D888D18E000001F007FFFFFFFFE95AD29
:100280007DB577E000000F007FFFFFFFFEA5AD9D6D
:100290008D19E0000006007FFFFFFFFEB5ADEDB554
:1002A0007EE000000000000180000000000000006F
:1002B0000000038000000000000000000007C000F4
:1002C000000000000000000007C000000000000067
:1002D0000000000FC00000000000000000001FE050
:1002E0000000000000000000001FE000000000000F
:1002F000000000003FE00000000000000000003FA0
:10030000F00000000000000000007FF0000000008E
:100310000000001FF87FF0000000000000003FFE1A
:100320007FF0000000000000003FFF7FF0000000B1
:10033000000000001FFFFBE0000000000000000FB5
:10034000FFF9FFC00000000000000FFFF9FFF800F8
:10035000000000000007FFF1FFFF000000000000A8
:1003600003FC73FFFF80000000000001FE3FFFFF61
:1003700080000000000000FF1E0FFF0000000000D2
:1003800000007FFE1FFC000000000000003FFFFF98
:10039000F8000000000000000FDFFFE00000000098
:1003A0000000001F19FFC0000000000000003F3CDB
:1003B000FF00000000000000007E7CF8000000004C
:1003C000000000007FFE7C0000000000000000FF35
:1003D000FFFC0000000000000000FFFFFE00000026
:1003E0000000000000FFFFFE000000000000000110
:1003F000FFEFFE0000000000000001FFCFFE000044
:10040000000000000003FF07FE00000000000000E5
:1004100003FC07FE0000000000000003F003FE00E4
:10042000000000000000018000FE0000000000004D
:10043000000000007E000000000000000000003E00
:10044000000000000000000000000C0000000000A0
:1004500000078000FC000003C0000000078001FCD2
:10046000000003C0000000078001FC000003C00082
:100470000000078001E00000001E0000000780016E
:10048000E00000001E007FE3F79FF9FDE7787BDFC7
:10049000C0FFF7FFBFFDFDFF787BDFC0FFF7FFBFA9
:1004A000FDFDFF787BDFC0F0F787BC3DE1FF787B87
:1004B000DE00F0F787BC3DE1F0787BDE0000F787D7
:1004C000803DE1E0787BDE007FF7879FFDE1E0780B
:1004D0007BDE00FFF787BFFDE1E0787BDE00F0F711
:1004E00087BC3DE1E0787BDE00F0F787BC3DE1E0D2
:1004F000787BDE00F0F787BC3DE1E0787BDE00FF33
:10050000F7FFBFFDE1E07FFBDFC0FFF7FFBFFDE1CD
:10051000E07FFBDFC07CF3F39F3DE1E03E7BCFC09B
:100520000000000000000000000000FFFFFFFFFFD0
:10053000FFFFFFFFFFC0FFFFFFFFFD68DB111A3168
:10054000C0FFFFFFFFFD2B5AFB6AEFC0FFFFFFFF5D
:10055000FD4B5B3B1A33C0FFFFFFFFFD6B5BDB6AAC
:10056000FDC0436C69636B200052455345540046FF
:100570007265652052414D202862797465293A20C0
:100580000047504C2D332E30206C6963656E7365C7
:1005900000436F707972696768742028632920327C
:1005A000303232006279204368722E4272616E648A
:1005B000746E657200562E31352E332E302046650E
:1005C00062203138203230323300534D4320457899
:1005D00074656E73696F6E00434F4F4C20444F57E4
:1005E0004E210025352E317520460025352E3175DA
:1005F00020430053454355524954592053574954B9
:100600004348204F50454E00537769746368005348
:1006100065637572697479004E4F524D414C0049C3
:100620004E564552544544004F7269656E7461746C
:10063000696F6E00454550205265736574004469CA
:1006400073706C61790073706565642073686966A6
:10065000746572204C6F00737065656420736869FF
:1006600066746572204869007265642E2072617438
:10067000696F006D6F746F72207265647563742E9C
:1006800020726174696F002320656E636F64657208
:100690006469736320736C6F747300737065656451
:1006A00020204C6F007370656564202048690064E9
:1006B00072697665526174696F0067656172207254
:1006C0006174696F2073657474696E677300666125
:1006D0006872656E686569740063656C73697573CB
:1006E0000054656D702E416C61726D0054656D70C3
:1006F000657261747572652053657474696E677391
:10070000002320736C6F74730067656172730067F8
:100710006561722F656E636F6465722073657474B2
:10072000696E677300457869740074656D706572F1
:10073000617475720067656172202F20454E430019
:1007400053797374656D204D656E750054656D70D9
:100750002053656E73204572726F72004441432FBF
:10076000493243204572726F720025642E25303263
:100770006400313A25642E253032640025352E314F
:10078000750000000000240027002A00000000007F
:10079000250028002B0000000008000201000003D3
:1007A0000407000000000000000000000000003E00
:1007B0005B4F5B3E3E6B4F6B3E1C3E7C3E1C183CD1
:1007C0007E3C181C577D571C1C5E7F5E1C00183C2D
:1007D0001800FFE7C3E7FF0018241800FFE7DBE776
:1007E000FF30483A060E2629792926407F0505075D
:1007F000407F05253F5A3CE73C5A7F3E1C1C0808B9
:100800001C1C3E7F14227F22145F5F005F5F06097D
:100810007F017F006689956A606060606094A2FFD6
:10082000A29408047E040810207E201008082A1CC8
:1008300008081C2A08081E101010100C1E0C1E0C94
:1008400030383E3830060E3E0E0600000000000034
:10085000005F00000007000700147F147F14242AA3
:100860007F2A122313086462364956205000080775
:100870000300001C2241000041221C002A1C7F1C96
:100880002A08083E08080080703000080808080898
:10089000000060600020100804023E5149453E00FF
:1008A000427F400072494949462141494D3318145D
:1008B000127F1027454545393C4A494931412111AC
:1008C00009073649494936464949291E000014009E
:1008D00000004034000000081422411414141414C1
:1008E000004122140802015909063E415D594E7C1F
:1008F0001211127C7F494949363E414141227F41D4
:1009000041413E7F494949417F090909013E414131
:1009100051737F0808087F00417F41002040413F1C
:10092000017F081422417F404040407F021C027F2B
:100930007F0408107F3E4141413E7F090909063E80
:100940004151215E7F09192946264949493203014F
:100950007F01033F4040403F1F2040201F3F403861
:10096000403F631408146303047804036159494D3C
:1009700043007F4141410204081020004141417F72
:1009800004020102044040404040000307080020E8
:10099000545478407F2844443838444444283844E8
:1009A00044287F385454541800087E090218A4A41F
:1009B0009C787F0804047800447D40002040403D3E
:1009C000007F1028440000417F40007C04780478B8
:1009D0007C080404783844444438FC18242418184B
:1009E000242418FC7C0804040848545454240404A7
:1009F0003F44243C4040207C1C2040201C3C403094
:100A0000403C44281028444C9090907C4464544CC2
:100A1000440008364100000077000000413608001D
:100A200002010204023C2623263C1EA1A161123AC7
:100A30004040207A38545455592155557941225413
:100A4000547842215554784020545579400C1E5218
:100A500072123955555559395454545939555454BD
:100A6000580000457C410002457D420001457C4024
:100A70007D1211127DF0282528F07C545545002068
:100A800054547C547C0A097F4932494949323A44DA
:100A900044443A324A4848303A4141217A3A424045
:100AA0002078009DA0A07D3D4242423D3D40404017
:100AB0003D3C24FF2424487E4943662B2FFC2F2BEA
:100AC000FF0929F620C0887E09032054547941008B
:100AD00000447D413048484A32384040227A007A0A
:100AE0000A0A727D0D19317D2629292F28262929E8
:100AF000292630484D40203808080808080808080A
:100B0000382F10C8ACBA2F102834FA00007B000030
:100B100008142A142222142A14085500550055AA34
:100B200055AA55AAFF55FF55FF000000FF00101001
:100B300010FF00141414FF001010FF00FF1010F03D
:100B400010F0141414FC001414F700FF0000FF0050
:100B5000FF1414F404FC141417101F10101F101F9E
:100B60001414141F00101010F0000000001F1010CB
:100B700010101F10101010F010000000FF101010C7
:100B8000101010101010FF10000000FF140000FFE4
:100B900000FF00001F10170000FC04F414141710CD
:100BA000171414F404F40000FF00F71414141414C0
:100BB0001414F700F7141414171410101F101F1436
:100BC0001414F4141010F010F000001F101F000097
:100BD000001F14000000FC140000F010F01010FFC3
:100BE00010FF141414FF141010101F00000000F068
:100BF00010FFFFFFFFFFF0F0F0F0F0FFFFFF00003D
:100C0000000000FFFF0F0F0F0F0F3844443844FC63
:100C10004A4A4A347E02020606027E027E0263557A
:100C20004941633844443C04407E201E2006027E35
:100C3000020299A5E7A5991C2A492A1C4C72017247
:100C40004C304A4D4D303048784830BC625A463DB1
:100C50003E494949007E0101017E2A2A2A2A2A4466
:100C6000445F444440514A444040444A514000009B
:100C7000FF0103E080FF000008086B6B08361236A6
:100C80002436060F090F0600001818000000101087
:100C9000003040FF0101001F01011E00191D171245
:100CA000003C3C3C3C0000000000000103070F1F1B
:100CB0003F7F0080C0E0F0F8FCFE202020202020B4
:100CC000202020200064617461206261636B757074
:100CD00000454550524F4D0053797374656D005275
:100CE000004C004D3A004C6F0048690052504D00D6
:100CF00025342E317500005EBCE2613FDD83C29C6D
:100D00007E20A3FD1F41009D23BE46DB65F88C11AC
:100D1000AF32CA57E9740000000023002600290002
:100D20000404040404040404020202020202030391
:100D30000303030301020408102040800102040899
:100D400010200102040810202200FF210000E935D4
:100D5000DA3511241FBECFEFD8E0DEBFCDBF11E0E2
:100D6000A0E0B1E0ECE0FDE702C005900D92A635F1
:100D7000B107D9F723E0A6E5B1E001C01D92A13A81
:100D8000B207E1F716E0C8EAD6E004C02197FE01F9
:100D90000E94543EC73AD107C9F70E946E260C94B0
:100DA000793E0C94000008950895E09157018091D8
:100DB0005601E81730F4F0E0E85AFE4F808190E0E9
:100DC00008958FEF9FEF08959091570180915601FC
:100DD000981750F4E92FF0E0E85AFE4F208130E0F8
:100DE0009F5F9093570102C02FEF3FEFC901089515
:100DF0008091560190E020915701821B910908953E
:100E0000089580E090E0089540913A02262F30E066
:100E1000240F311D21323105DCF420918A02243067
:100E2000C9F4FC0180E090E0861758F430913A0252
:100E30002191DC01A65EBD4FA30FB11D2C9301963D
:100E4000F3CF80913A02680F60933A0280E00895F0
:100E500081E0089582E00895CF92DF92EF92FF92B1
:100E60000F931F93CF93DF937C01CB018A012091D5
:100E70009002222389F0EB016B01C40ED51ECC1524
:100E8000DD0569F06991D701ED91FC910190F08148
:100E9000E02DC7010995F3CF642F0E940407C80114
:100EA000DF91CF911F910F91FF90EF90DF90CF9046
:100EB0000895CF93DF931F92CDB7DEB7698320915A
:100EC00090022223D1F02091B302203240F021E0A1
:100ED00030E0FC013383228380E090E015C08091F4
:100EE0009102E82FF0E0EE56FD4F998190838F5FDD
:100EF000809391028093B30205C061E0CE01019618
:100F00000E94040781E090E00F90DF91CF91089557
:100F100010928A0281E0809389021092640261E05B
:100F200082E10E943B1761E083E10E943B17E9EBFD
:100F3000F0E080818E7F808380818D7F808388E454
:100F40008093B80085E48093BC000895FC019081F3
:100F50000180F281E02D892F809560FF12C0F89406
:100F60002281822382838181892B8183A3E2B0E065
:100F70001197F1F78281982B9283789487ED90E016
:100F800011C0F8942281822382838181892B8183FD
:100F9000AFEFB0E01197F1F78281982B92837894AC
:100FA0008FE090E00197F1F70895DC012C91119604
:100FB000ED91FC911297F8948181922F909589235D
:100FC000818378948DE743E050E0815021F1DA018C
:100FD0001197F1F730813223C1F3F894828189238C
:100FE00082838181822B81837894ABE7B7E011976C
:100FF000F1F7F89481819823918383E191E001973F
:10100000F1F78081282381E009F080E07894E3E61D
:10101000F6E03197F1F7089581E0809390026093B4
:10102000B202109291021092B302089510925701E9
:1010300010925601109291021092B3020E948807FA
:1010400083ED96E090935E0280935D0284ED96E0DE
:101050009093600280935F020895CF93DF9391E0B5
:10106000909319028823B9F0C091B800D091BA00CA
:101070008091BC008A7B8093BC0060E082E10E948A
:101080003B1760E083E10E943B170E948807D093E2
:10109000BA00C093B800DF91CF91089585ED809399
:1010A000BC0080918C0290918D02A0918E02B09133
:1010B0008F020796A11DB11D23E0B695A7959795C0
:1010C00087952A95D1F72091BC0024FF1CC0409140
:1010D0008C0250918D0260918E0270918F02452B8F
:1010E000462B472B81F30097A105B10541F025E37D
:1010F0002A95F1F700000197A109B109E4CF809189
:101100008B020C942D0810928A0208951F920F9260
:101110000FB60F9211242F933F934F935F936F93CA
:101120007F938F939F93AF93BF93EF93FF938091A0
:10113000B900887F803609F49CC068F5883209F4CC
:101140005BC090F4803109F454C038F4882309F46A
:10115000F6C0883009F44DC0F6C0883109F44CC09F
:10116000803209F45DC0EFC0803409F468C048F4EF
:10117000803309F455C0883309F0E5C080938802B4
:10118000D8C0803509F44FC0883509F45DC0883473
:1011900009F0D9C0D6C0883909F4C7C0A8F4883787
:1011A00009F467C038F4883609F463C0803709F45D
:1011B00060C0C9C0883809F4B8C0803909F45FC07C
:1011C000803809F0C0C05BC0803B09F486C038F4A9
:1011D000803A09F466C0883A09F47FC0B4C0803C04
:1011E00009F4A7C0883C09F4A4C0883B09F48AC06C
:1011F000AAC08091650210C09091870280918602FA
:10120000981770F5E091870281E08E0F8093870236
:10121000F0E0EA59FD4F80818093BB0085EC86C0E9
:10122000809388028EC0E091870281E08E0F8093C8
:1012300087028091BB00F0E0EA59FD4F80839091D6
:101240008702809186026EC0E091870281E08E0F56
:10125000809387028091BB00F0E0EA59FD4F8083C4
:101260008091890281116DC081E08093640284EADB
:1012700061C083E080938A0210925C02CFCF80919C
:101280005C02803208F051C0E0915C0281E08E0F78
:1012900080935C028091BB00F0E0E45CFD4F8083B2
:1012A000BDCF85EC8093BC0010928A0280915C02D5
:1012B000803230F4E0915C02F0E0E45CFD4F10829B
:1012C00060915C0270E0E0915F02F09160028CE35B
:1012D00092E0099510925C0236C084E080938A0205
:1012E00010923B0210923A02E0915D02F0915E0290
:1012F000099580913A02811105C081E080933A02FC
:1013000010921A02E0913B0281E08E0F80933B0223
:10131000F0E0E65EFD4F80818093BB0090913B0240
:1013200080913A02981708F479CF85E88093BC0041
:101330000AC085EC8093BC0010928A0204C010920F
:1013400088020E944E08FF91EF91BF91AF919F914B
:101350008F917F916F915F914F913F912F910F905E
:101360000FBE0F901F901895FC01108211821282FF
:1013700013828FEF9FEF958384839783868381E029
:1013800090E09187808784E690E0958784878685C2
:10139000882311F061E001C060E082850C943B1766
:1013A000FC0182E090E0918780878685882311F098
:1013B00060E001C061E082850C943B17AF92BF9260
:1013C000CF92DF92EF92FF920F931F93CF93DF9311
:1013D000EC015B018A010E9418266B017C018FEFF2
:1013E000A816B806B1F00F3F8FEF180791F0888567
:1013F0009985029771F460E08A850E943B1781E02D
:1014000090E0998788870E941826688379838A8369
:101410009B8388819981AA81BB81892B8A2B8B2B05
:1014200021F4C882D982EA82FB8288819981AA81CB
:10143000BB81C816D906EA06FB0629F0C81AD90AE4
:10144000EA0AFB0A03C0C12CD12C76011A141B0432
:101450008CF4BD82AC828E819F811816190654F4DB
:10146000A816B9060CF4C5016AE070E00E941E3EA1
:101470007D876C87101611066CF41F830E838C8198
:101480009D811816190634F4801791070CF48C010D
:101490001D870C878885998582309105A8F501976D
:1014A000B1F48E819F81181619060CF043C0092EE5
:1014B000000CAA0BBB0B8C159D05AE05BF05D0F526
:1014C00061E08A850E943B171986188616C08C81B8
:1014D0009D811816190674F5092E000CAA0BBB0B7A
:1014E0008C159D05AE05BF0528F560E08A850E9434
:1014F0003B1781E090E0998788870E9418266883CF
:1015000079838A839B8316C0039719F4CE010E94C6
:10151000B40988859985029769F4CE01DF91CF914E
:101520001F910F91FF90EF90DF90CF90BF90AF9001
:101530000C94D009DF91CF911F910F91FF90EF9004
:10154000DF90CF90BF90AF900895CF92DF92EF924F
:10155000FF92CF93DF93C0901502D0901602E090D7
:101560001702F090180220E030E44BE155E4C70187
:10157000B6010E94983D18162CF5C9E1D0E0809183
:10158000830190918401892B99F420E030E048E1B7
:1015900052E4C701B6010E94D33B6B017C010E945B
:1015A000B73CCB010E947C22D0938401C09383017D
:1015B00020E030E04AE754E4C701B6010E94983DBC
:1015C00087FFDDCF87ED93E0DF91CF91FF90EF9024
:1015D000DF90CF900C947C222FB7F8949091140256
:1015E0008923909114029827909314022FBF089595
:1015F0000F931F93CF93C82F0E94182600911002BB
:10160000109111022091120230911302DC01CB01E2
:10161000801B910BA20BB30B81369A4EA105B1052D
:1016200010F4CC2379F00E94182660931002709376
:1016300011028093120290931302CF911F910F9188
:101640000C94CA22CF911F910F910895CF93DF93ED
:10165000D82FC92FCB014230510599F160F44115C3
:10166000510551F14130510509F059C09F936F93D5
:1016700083EE95E02AC044305105C9F198F1453018
:10168000510509F04CC064E670E00E940A3E9F9349
:101690008F937F936F938AE697E09F938F93CF9377
:1016A000DF930E94D3388DB79EB708960FB6F89493
:1016B0009EBF0FBE8DBF33C09F936F938BEE95E09F
:1016C00004C09F936F9380EF9CE09F938F93CF9381
:1016D000DF930E94D3380F900F900F900F900F90D0
:1016E0000F901DC09F936F938CE797E0EECF68EE4D
:1016F00073E00E940A3E9F938F937F936F9382E7DC
:1017000097E09F938F93CF93DF930E94D3388DB749
:101710009EB708960FB6F8949EBF0FBE8DBF8D2F53
:101720009C2FDF91CF910895CF92DF92EF92FF929D
:10173000CF93DF93EC018130910519F40E94A50A43
:1017400048C0009719F487ED93E041C0BC01990FA0
:10175000880B990B0E94E83C2FE73AE64CEB5CE3E0
:101760000E949D3D20E030E048EC52E40E94453C60
:101770006B017C016091850370918603072E000C3C
:10178000880B990B0E94E83C20E030E048EC52E4E2
:101790000E94453C9B01AC01C701B6010E94D43BAD
:1017A00020E030E040E855E40E949D3D20E030E03C
:1017B00040EA50E40E94453C609315027093160283
:1017C00080931702909318020E94B73CCB010E94AD
:1017D0007C22CE01DF91CF91FF90EF90DF90CF90F0
:1017E0000895EF92FF920F931F93CF93DF93CDB79E
:1017F000DEB728970FB6F894DEBF0FBECDBF80913D
:101800008601882371F080918501882319F08CE589
:1018100097E020C0809178018823F1F08CE497E074
:1018200019C081E08093490380934A0381E090E0EE
:101830009093420380934103909344038093430326
:1018400010924603109245039093480380934703F8
:101850008FE096E00E94CC2481E08093490380933E
:101860004A0384E590E0909342038093410381E032
:1018700090E09093440380934303909348038093B4
:1018800047039093460380934503809183036091BF
:1018900082018E010F5F1F4F882329F01F926F93E3
:1018A0008BEE95E017C070E080E090E00E94E63C8F
:1018B00026E636E646EE5FE30E949D3D20E030E0FE
:1018C00040E052E40E94D43B0E94B73C7F936F9368
:1018D00083EE95E09F938F931F930F930E94D338CD
:1018E0000F900F900F900F900F900F90C8010E94D3
:1018F000F125EE24E394F12C0BE010E02FE730E02B
:101900004BE050E060E070E085E393E00E94F41863
:1019100028960FB6F894DEBF0FBECDBFDF91CF91F2
:101920001F910F91FF90EF9008958F929F92AF9229
:10193000BF92DF92EF92FF920F931F93CF93DF93AB
:101940008C014B015A010E94E724DD24D394D092EC
:101950004903D0924A03C1E0D0E0D0934203C09340
:101960004103D0934403C0934303D0934803C093EF
:101970004703D0934603C0934503C8010E94CC247B
:10198000EE24E394F12C0BE010E02FE730E04BE085
:1019900050E060E070E085E393E00E94F41882E09C
:1019A0008093490380934A0302E010E010934203BE
:1019B000009341038AE190E09093440380934303B2
:1019C000D0934803C0934703D0934603C093450385
:1019D00081149104C9F0C4010E94F125D0924903F9
:1019E000D0924A0310934203009341038EE290E0A9
:1019F0009093440380934303D0934803C0934703D9
:101A0000D0934603C0934503C5010E94CC24DF91C7
:101A1000CF911F910F91FF90EF90DF90BF90AF900B
:101A20009F908F900C9498238F929F92AF92BF9229
:101A3000CF92DF92EF92FF920F931F93CF937C018F
:101A40004B015A016901C02F0E94E724E114F104FF
:101A500019F40E94F10B29C081E08093490380931F
:101A60004A0381E090E09093420380934103909376
:101A700044038093430390934803809347039093D8
:101A8000460380934503C7010E94CC24EE24E394CF
:101A9000F12C0BE010E02FE730E04BE050E060E08D
:101AA00070E085E393E00E94F41882E0809349039C
:101AB00080934A0382E090E0909342038093410335
:101AC00080E190E09093440380934303C1110BC0E5
:101AD000109246031092450381E090E090934803F2
:101AE000809347030AC081E090E09093480380937D
:101AF00047039093460380934503C4010E94CC247E
:101B000082E08093490380934A0382E090E09093BF
:101B100042038093410381E290E0909344038093D9
:101B20004303C13059F4109246031092450381E0FB
:101B300090E090934803809347030AC081E090E0CF
:101B40009093480380934703909346038093450303
:101B5000C5010E94CC2482E08093490380934A030C
:101B600082E090E0909342038093410382E390E00F
:101B70009093440380934303C23059F41092460378
:101B80001092450381E090E09093480380934703CF
:101B90000AC081E090E090934803809347039093BC
:101BA000460380934503C6010E94CC24CC2329F030
:101BB000C13031F042E350E005C040E150E002C0E6
:101BC00041E250E0EE24E394F12C00E110E022E049
:101BD00030E060E070E085E393E00E949518CF91DB
:101BE0001F910F91FF90EF90DF90CF90BF90AF903B
:101BF0009F908F900C9498230F931F930E94182608
:101C00000091790110917A0120917B0130917C0142
:101C1000DC01CB01801B910BA20BB30B80319742EF
:101C2000A105B10508F460C00E94A91F60937D0161
:101C300070937E0180937F019093800120E030E0DB
:101C40004EEF52EC0E94403C811104C081E0809331
:101C5000780103C089E00E944420809178018111BD
:101C600026C00E941A210E94182660937901709361
:101C70007A0180937B0190937C0120E030E040E08A
:101C80005FE360917D0170917E0180917F01909171
:101C900080010E94D43B0E94B73C609382018091F6
:101CA0008403861708F58BE0809387011DC00E948E
:101CB000A91F60937D0170937E0180937F019093B3
:101CC000800120E030E04EEF52EC0E94403C811158
:101CD000109278010E9418266093790170937A011E
:101CE00080937B0190937C011F910F910895CF9277
:101CF000DF92EF92FF92F894C0900C02D0900D0208
:101D0000E0900E02F0900F0260918F0370E080E08F
:101D100090E00E94E83C9B01AC01C701B6010E9423
:101D2000453C0E94B73C609308027093090280937F
:101D30000A0290930B027894809108029091090214
:101D4000FF90EF90DF90CF9008951F920F920FB603
:101D50000F921124CF92DF92EF92FF920F931F9375
:101D60002F933F934F935F936F937F938F939F93A3
:101D7000AF93BF93EF93FF93CF93DF9300D000D047
:101D8000CDB7DEB719821A821B821C8210928500A1
:101D9000109284008091860090918700A0E0B0E0CE
:101DA00089839A83AB83BC8320910402309105021E
:101DB0004091060250910702C980DA80EB80FC80D6
:101DC000AFEFBFEF0E945A3EC60ED71EE81EF91EA7
:101DD000C982DA82EB82FC82109204021092050220
:101DE00010920602109207020091030281E0800F18
:101DF0008093030210E069817A818B819C810E942B
:101E0000E63C9B01AC0160E074E284E79BE40E9445
:101E1000453C000F111F000F111FF801ED53FE4F3D
:101E2000608371838283938380910302803111F4F4
:101E3000109203020F900F900F900F90DF91CF91AF
:101E4000FF91EF91BF91AF919F918F917F916F9192
:101E50005F914F913F912F911F910F91FF90EF90C4
:101E6000DF90CF900F900FBE0F901F901895789431
:101E70001F920F920FB60F9211248F939F93AF93DF
:101E8000BF938091040290910502A0910602B09147
:101E900007020196A11DB11D8093040290930502D3
:101EA000A0930602B0930702BF91AF919F918F91CB
:101EB0000F900FBE0F901F9018951F920F920FB6A4
:101EC0000F921124CF92DF92EF92FF922F933F93C4
:101ED0004F935F936F937F938F939F93AF93BF9332
:101EE000CF93DF93EF93FF938091C1019091C20153
:101EF000893E23E0920708F456C0809103028823AC
:101F000021F0C0910302C15001C0CFE034E0C30210
:101F1000E0011124CD53DE4F688179818A819B8154
:101F200020E030E040E050E40E94983D1816FCF4B8
:101F3000C0E0D0E060E070E0CB01FE01EE0FFF1FDB
:101F4000EE0FFF1FED53FE4F2081318142815381FF
:101F50000E94D43B2196C031D10579F720E030E0D2
:101F600040E85DE30E949D3D6B017C0104C0C88098
:101F7000D980EA80FB806091070170E080E090E00A
:101F80000E94E83CA70196010E949D3D60930C02CF
:101F900070930D0280930E0290930F021092C20173
:101FA0001092C10105C001969093C2018093C101B6
:101FB0008091BF019091C00101969093C0018093E0
:101FC000BF018091BF019091C0016AE070E00E9462
:101FD0000A3E892B09F059C089B190918101809501
:101FE00089279091BE019823292F20952093BE0127
:101FF0009091BD01982392279093BD01822389235C
:102000009091810198279093810190918101209175
:1020100014029823922B90931402209181019091A5
:10202000BC0120958223892B8093BC018091810182
:10203000887B19F486E48093BB018091BB018150B9
:102040008093BB01811108C0809181019091BA01F8
:10205000887B892B8093BA0180918101887B19F458
:1020600081E08093B9018091B901815019F080938A
:10207000B9010BC08FE08093B901809181019091EB
:10208000B801887B892B8093B8018091810180936E
:10209000B7018091B70184708093B701811109C0A5
:1020A00080918601882329F0109286018FE0809329
:1020B0008701C091B501D0E0CC0FDD1F87E00E9401
:1020C00012178C2B8093B5018F3F21F481E0809310
:1020D000060106C0873021F4109206018093B401F6
:1020E00080910601811105C010920A018EE1809352
:1020F000B6018091B60181117CC181E080930A0113
:102100008091830190918401892B49F08091830112
:102110009091840101979093840180938301809131
:10212000E90287FD69C09091EA0297FD65C0909130
:10213000F4029923A1F02091F2023091F30222508F
:1021400031093093F3022093F2022091F202309190
:10215000F30237FF04C01092F3021092F2020E94C1
:1021600012172091EC0230E08217930711F4C3E0BC
:1021700001C0C0E08091EA020E9412172091EC0297
:1021800030E08217930711F481E0C8278091EF02B5
:102190009091F0028C1B80FF18C02C2FCC0F330BBA
:1021A0003093F0022093EF022091ED023091EE0285
:1021B0008270082E000C990B0197820F931F909349
:1021C000EE028093ED0281E001C080E09091F40284
:1021D000992391F0882381F08091F2029091F3028B
:1021E0008F3C914448F48091F2029091F302C296A0
:1021F0009093F3028093F2020E941826C09003038A
:10220000D0900403E0900503F09006039B01AC011D
:102210002C193D094E095F0969017A013091EB02E1
:1022200013163CF03111CBC02091F902222309F49E
:10223000C6C04AE0C416D104E104F10408F4BFC0EA
:102240006093030370930403809305039093060344
:102250009091FA02832F992331F13E3008F08E508D
:102260008770806480937C0080917A008064809382
:102270007A0080917A0086FDFCCF809178002091D1
:10228000790090E0922B2091070330910803821788
:10229000930784F021E04091090350910A03481705
:1022A00059074CF005C00E94121721E0892B19F440
:1022B00020E001C021E09091EC0281E089278213A7
:1022C0003DC04091FB025091FC024230510590F11B
:1022D0004091F5025091F6024130510519F442E067
:1022E00050E010C04091FD025091FE024230510575
:1022F00090F0609101037091020346175707D0F4E4
:1023000044E050E05093F6024093F5021092FE0232
:102310001092FD020FC08091F702882329F04091AE
:1023200001035091020302C041E050E05093FE02CD
:102330004093FD021092FC021092FB02921321C006
:1023400085E090E09093F6028093F5028091FB0285
:102350009091FC022091FF02309100032817390769
:1023600050F42091F802222331F021E030E0309344
:10237000F6022093F5028C0D9D1D9093FC02809334
:10238000FB028091FD029091FE020097C1F0AC012A
:1023900060E070E0C416D506E606F70610F4B70153
:1023A000A601841B950B9093FE028093FD02892B5E
:1023B00031F483E090E09093F6028093F5028DE78C
:1023C0008093B300FF91EF91DF91CF91BF91AF91D7
:1023D0009F918F917F916F915F914F913F912F913D
:1023E000FF90EF90DF90CF900F900FBE0F901F9057
:1023F000189581508093B60183CE833081F028F404
:10240000813099F08230A1F008958730A9F08830AA
:10241000B9F08430D1F4809180008F7D03C0809129
:1024200080008F7780938000089584B58F7702C0F5
:1024300084B58F7D84BD08958091B0008F7703C0EF
:102440008091B0008F7D8093B00008956F927F924D
:102450008F929F92AF92BF92DF92EF92FF920F9373
:102460001F93CF93DF9300D000D01F92CDB7DEB77C
:102470000E94E7240E94F10B84E08093490380933B
:102480004A0381E090E0909342038093410324E16A
:1024900030E03093440320934303909348038093A8
:1024A00047039093460380934503809163028E0116
:1024B0000F5F1F4F882339F0809162028F938091C4
:1024C00061028F9302C01F921F9280EF9CE09F9346
:1024D0008F931F930F930E94D338C8010E94F12558
:1024E0000F900F900F900F900F900F90DD24D394CA
:1024F000D0924903D0924A0380E690E09093420341
:10250000809341038AE190E09093440380934303D6
:10251000EE24E394F12CF0924803E0924703F0920A
:102520004603E09245038CEE9CE00E94CC24D092BE
:102530004903D0924A0386E690E090934203809349
:1025400041038AE290E09093440380934303F09226
:102550004803E0924703F0924603E09245038091DE
:102560000A01811103C08FED9CE002C081EE9CE066
:102570000E94CC24DD24D394D0924903D0924A0304
:10258000109242031092410387E3882E912C90927F
:10259000440380924303EE24E394F12CF092480329
:1025A000E0924703F0924603E092450389EE9CE0F7
:1025B0000E94CC24D0924903D0924A0381E190E05A
:1025C000909342038093410390924403809243038B
:1025D000F0924803E0924703F0924603E0924503ED
:1025E00040918703509188032091890330918A0399
:1025F000429FC001439F900D529F900D112424E6ED
:10260000622E712CB3010E941E3E9B018091080135
:1026100090910901B3010E941E3E269FC001279F91
:10262000900D369F900D11249F938F9330EFA32E22
:102630003CE0B32EBF92AF921F930F930E94D3380A
:10264000C8010E94F125D0924903D0924A0380E349
:1026500090E09093420380934103909244038092D0
:102660004303F0924803E0924703F0924603E0925E
:10267000450386EE9CE00E94CC24D0924903D09280
:102680004A038CE390E0909342038093410390923D
:10269000440380924303F0924803E0924703F09290
:1026A0004603E092450340918703509188032091AF
:1026B0008B0330918C03429FC001439F900D529F2A
:1026C000900D1124B3010E941E3E9B0180910801D0
:1026D00090910901B3010E941E3E269FC001279FD1
:1026E000900D369F900D11249F938F93BF92AF92C0
:1026F0001F930F930E94D338C8010E94F125D092F6
:102700004903D0924A038AE590E090934203809374
:1027100041039092440380924303F0924803E09275
:102720004703F0924603E092450383EE9CE00E944B
:10273000CC24809109018F93809108018F93BF92DF
:10274000AF921F930F930E94D338C8010E94F125C6
:102750000E9498230FB6F894DEBF0FBECDBF0F9036
:102760000F900F900F900F90DF91CF911F910F91CD
:10277000FF90EF90DF90BF90AF909F908F907F90F1
:102780006F9008950F931F93CF93DF9377FF04C04B
:10279000260F371F60E070E0DC011496CD91DC91CC
:1027A0001597FB01E20FF31FCE17DF071CF49E0104
:1027B000261B370B121613060CF046C0FA0157FD04
:1027C0003796DF01E3E0B595A795EA95E1F7AC9F71
:1027D000F001AD9FF00DBC9FF00D11246E0F7F1F17
:1027E000DC015F96ED91FC919097E60FF71F477023
:1027F000552781E090E001C0880F4A95EAF7482FFD
:102800000130110539F078F002301105E9F42E0F8E
:102810003F1F13C02E0F3F1FE217F307A9F080815F
:10282000842B8193F9CF80952E0F3F1FE217F3077A
:1028300059F0908198239193F9CFE217F30721F093
:10284000808184278193F9CFDF91CF911F910F91E0
:102850000895EF92FF920F931F93CF93DF93EC01B4
:1028600077FDA5C0EC80FD806E157F050CF09FC044
:1028700057FF04C0240F351F40E050E08E819F8138
:10288000FA01E20FF31F8E179F071CF49C01241B13
:10289000350B121613060CF08AC0922F842F8695E2
:1028A000869586958E9DD0018F9DB00D11246A0F5F
:1028B0007B1FAF8DB8A1A60FB71F4770B1F188E09D
:1028C000841B482F682F70E0FB01EE54F34FE49116
:1028D000281798F4621B71092FEF30E002C035957C
:1028E00027956A95E2F7E2230130110549F078F067
:1028F0000230110509F05BC00EC00130110519F45A
:102900008C91E82B0AC00130110508F049C0E09510
:102910008C91E82302C08C91E827EC93941708F47B
:1029200046C02C813D81A20FB31FE92FE41BE83084
:10293000F8F00230110561F48E2F9C9190959C93D4
:102940002C813D81A20FB31F88508830B0F70FC093
:1029500081E00115110509F480E081959E2F8C938B
:102960002C813D81A20FB31F98509830C0F7E770BB
:10297000EE23E9F0F0E0E655F34FE4910130110564
:1029800039F048F00230110591F48C91E82706C027
:102990008C91E82B03C0E0958C91E823EC9307C061
:1029A0000230110509F4B7CFAE0DBF1DBECFDF91C8
:1029B000CF911F910F91FF90EF9008952F923F922A
:1029C0004F925F926F927F928F929F92AF92BF923F
:1029D000CF92DF92EF92FF920F931F93CF93DF93EB
:1029E000CDB7DEB76B970FB6F894DEBF0FBECDBF85
:1029F0009B8F8A8F1B014A01D22E198708873701C6
:102A0000A982DC0159962D913C915A9721153105E7
:102A100009F0FFC018968D919C9119976817790756
:102A20000CF0E7C11A968D919C911B974817590796
:102A30000CF0DFC1EC2DF0E0FB83EA839B0146E064
:102A4000C49E200D311D11243D872C8712161306BC
:102A50000CF0CFC16A2D70E07B876A8783E0660F38
:102A6000771F8A95E1F77F876E87CB01880D991DC7
:102A7000181619060CF0BDC158968C91811104C02E
:102A80008FEA8D1508F4D394AA8DBB8DED91FC913E
:102A900011970284F385E02DCD010995B5E0DB9E09
:102AA000C0011124EC2DF0E0F98BE88B91012B5F34
:102AB0003F4F3B8B2A8B3D822C822101AC01421976
:102AC00053095D8B4C8B7981672F70E07F8B6E8B08
:102AD000C4010896998F888FEC89FD89E40DF51D56
:102AE000E655F84FD49054019F828E82D0FE16C0D6
:102AF000AA8DBB8DED91FC91B1E0CB1209C029816B
:102B0000213031F40484F585E02D2885398519C0FC
:102B10000684F785E02DE884F9841DC04885598531
:102B20004615570519F1AA8DBB8DED91FC91B1E0C9
:102B3000CB120DC02981213051F40484F585E02D9C
:102B40009301A501B2018A8D9B8D09950FC0068462
:102B5000F785E02D73010A851B852A813B814E8113
:102B60005F816C817D818A8D9B8D0995D6943FEF25
:102B7000A31AB30A4E815F816E897F89460F571F62
:102B80005F834E83888D998DA816B90609F0AECF64
:102B90009FEF491A590AAC81BD81E889F989AE0FC6
:102BA000BF1FBD83AC832A893B894216530609F0B7
:102BB00093CF488559854615570509F4F8C0AA8D65
:102BC000BB8DED91FC91B1E0CB1211C02981213078
:102BD00071F4B1016B5F7F4F0088F189E02D8301B3
:102BE00028E030E0A4018A8D9B8D0995E0C06C85BA
:102BF0007D854A815B81641B750B0684F785E02D1A
:102C000073010E851F859A01A4018A8D9B8D0995FC
:102C1000CEC0F9013496E491DE1AF901329685911D
:102C20009491B7E0DB9E800D911D1124F90125914F
:102C300034913B8B2A8BFC01259134915901FC0185
:102C400032965490319634913C87329674903196F6
:102C5000149141E04C1518F05981523068F0672DFD
:102C6000072C000C770B7D836C83812F012E000CC9
:102C7000990B9B838A8304C01B821A821D821C824B
:102C8000AA8DBB8DED91FC9111970284F385E02D07
:102C9000CD010995412CD12C612CF981EF2FF0E069
:102CA000FF83EE832C2D30E03B872A87A401410F60
:102CB000511D17FD5A955F8B4E8BB101670D711D2C
:102CC00077FC7A95798F688F7C85671608F06FC0DE
:102CD000262D30E04A815B81420F531FAE81BF81B8
:102CE000A49FC001A59F900DB49F900D1124F401E5
:102CF000E80FF91FF98BE88B842D712C4E895F89C1
:102D0000420F531F5D8B4C8B751408F04DC051E082
:102D1000580F5E87877041F4C5010196EA89FB89E7
:102D2000EA0DFB1DD4905C01D7FE3AC061E0C612EB
:102D300016C07981713099F4AA8DBB8DED91FC910B
:102D400011970484F585E02D288539854C895D89A6
:102D5000688D798D670D711DCD01099521C08C811C
:102D60009D81870D911DEA85FB858E9FB0018F9F08
:102D7000700D9E9F700D1124620D731DAA8DBB8D69
:102D8000ED91FC9111970684F785E02DE884F98494
:102D90000E811F812A853B8548895989CD01099576
:102DA000DD0C73948E85B0CF450C63948DCFAA8DC6
:102DB000BB8DED91FC9111970688F789E02DCD012F
:102DC0006B960FB6F894DEBF0FBECDBFDF91CF91EB
:102DD0001F910F91FF90EF90DF90CF90BF90AF9039
:102DE0009F908F907F906F905F904F903F902F902B
:102DF00009946B960FB6F894DEBF0FBECDBFDF917E
:102E0000CF911F910F91FF90EF90DF90CF90BF90E7
:102E1000AF909F908F907F906F905F904F903F907A
:102E20002F900895CF93DF93282F30E0F901EA56D1
:102E3000F84F8491F901EC5CF24FD491F901E05E16
:102E4000F24FC491CC2391F081110E94FD11EC2F1F
:102E5000F0E0EE0FFF1FEA5EF24FA591B491EC9106
:102E6000ED2381E090E021F480E002C080E090E07A
:102E7000DF91CF9108951F93CF93DF93282F30E0F8
:102E8000F901EA56F84F8491F901EC5CF24FD491C4
:102E9000F901E05EF24FC491CC23C1F0162F8111ED
:102EA0000E94FD11EC2FF0E0EE0FFF1FE457F84FEA
:102EB000A591B4919FB7F894111104C08C91D0954D
:102EC000D82302C0EC91DE2BDC939FBFDF91CF9122
:102ED0001F910895CF93DF9390E0FC01EC5CF24FDB
:102EE0002491FC01E05EF24F8491882361F190E02F
:102EF000880F991FFC01EE57F84FC591D491FC0142
:102F0000E457F84FA591B491611109C09FB7F894A7
:102F10008881209582238883EC912E230BC0623018
:102F200061F49FB7F8948881322F3095832388838A
:102F3000EC912E2B2C939FBF06C08FB7F894E8819D
:102F40002E2B28838FBFDF91CF9108958F929F9270
:102F5000AF92BF92CF92DF92EF92FF926B017C0112
:102F60000E94F3254B015C01C114D104E104F1047A
:102F7000F1F00E94F325DC01CB0188199909AA0917
:102F8000BB09883E9340A105B10570F321E0C21A48
:102F9000D108E108F10888EE880E83E0981EA11C94
:102FA000B11CC114D104E104F10419F7DDCFFF9085
:102FB000EF90DF90CF90BF90AF909F908F9008954B
:102FC0008F929F92BF92CF92DF92EF92FF920F93D8
:102FD0001F93CF93DF930E94E724C5E3D3E0BB2484
:102FE000B394BC8ABD8A8EE2882E912C9D868C86F5
:102FF000CC24C394D12CDF86CE86DB8ACA8AD98AB8
:10300000C88A88ED9CE00E94CC24EE24E394F12C45
:103010000BE010E02FE730E04BE050E060E070E0C4
:10302000CE010E94F41882E08C8B8D8BDD86CC86DD
:1030300080E190E09F878E87DB8ACA8AD98AC88A16
:1030400081ED9CE00E94CC24BC8ABD8ADD86CC86C2
:1030500084E290E09F878E87DB8ACA8AD98AC88AF1
:1030600085EC9CE00E94CC24BC8ABD8ADD86CC869F
:103070009F868E86DB8ACA8AD98AC88A8AEB9CE0B8
:103080000E94CC240E94982360ED77E080E090E0DD
:10309000DF91CF911F910F91FF90EF90DF90CF9034
:1030A000BF909F908F900C94A617CF92DF92EF92D3
:1030B000FF920F931F93CF93DF936C017A018B01E3
:1030C000C0E0D0E0CE15DF0581F0D8016D918D0113
:1030D000D601ED91FC910190F081E02DC60109959A
:1030E000892B11F02196EECF7E01C701DF91CF91A0
:1030F0001F910F91FF90EF90DF90CF90089508956A
:10310000FC016370668B84819581268137816130F3
:1031100039F0633029F091878087338722870895BB
:10312000318720879387828708956F927F928F924D
:103130009F92AF92BF92CF92DF92EF92FF920F9346
:103140001F93CF93DF93EC014B015A0169013801C2
:10315000E881F9810284F385E02D0995E881F98100
:103160000288F389E02D87019601A501B401CE0103
:103170000995A501460D571D41505109E881F98176
:103180000288F389E02D9601B401CE010995E8810A
:10319000F9810088F189E02D9301A501B401CE01E8
:1031A0000995C80CD91CB60161507109E881F981F3
:1031B0000088F189E02D9301A501CE010995E881F0
:1031C000F9810688F789E02DCE01DF91CF911F911B
:1031D0000F91FF90EF90DF90CF90BF90AF909F90B6
:1031E0008F907F906F9009948F929F92AF92BF9231
:1031F000CF92DF92EF92FF920F931F93CF93DF93C3
:103200004C016B015A01E901DC01ED91FC9162175F
:10321000730781F40417150724F48B2D5801042F2C
:10322000182F0A191B0998012F5F3F4F048CF58D49
:10323000E02D12C04017510709F52617370724F46F
:103240008D2D6901C62FD82F9E012C193D092F5FA6
:103250003F4F068CF78DE02D8701A501B601C40113
:103260000995DF91CF911F910F91FF90EF90DF9023
:10327000CF90BF90AF909F908F9008950284F38578
:10328000E02D0995D401ED91FC910488F589E02D9C
:103290009E01A501B601C4010995D401ED91FC91EF
:1032A0000688F789E02DC401DF91CF911F910F911E
:1032B000FF90EF90DF90CF90BF90AF909F908F9056
:1032C0000994EF92FF920F931F93DC011A960D91D0
:1032D0001C911B9718962D913C911997ED91FC919B
:1032E00000A0F1A1E02D7B0140E050E060E070E043
:1032F00009951F910F91FF90EF9008954F925F9263
:103300006F927F928F929F92AF92BF92CF92DF92F5
:10331000EF92FF920F931F93CF93DF936C012B01DA
:103320005A0139014801DC01ED91FC910284F385D9
:10333000E02D0995E201640C751CD601ED91FC911C
:10334000C615D7055CF40088F189E02D870194014A
:10335000A501BE01C60109952196EFCF0688F78920
:10336000E02DC601DF91CF911F910F91FF90EF905B
:10337000DF90CF90BF90AF909F908F907F906F9095
:103380005F904F9009948F929F92AF92BF92CF928D
:10339000DF92EF92FF920F931F93CF93DF93EC0195
:1033A0005B014A016901E881F9810284F385E02D1E
:1033B000099595012C0D3D1D21503109E881F981B8
:1033C0000488F589E02D78018401A401B501CE01BE
:1033D0000995E881F9810688F789E02DCE01DF9112
:1033E000CF911F910F91FF90EF90DF90CF90BF9002
:1033F000AF909F908F9009948F929F92AF92BF92BF
:10340000CF92DF92EF92FF920F931F93CF93DF93B0
:10341000EC015B014A0169017801E881F9810284CC
:10342000F385E02D0995C80CD91C860101501109BE
:10343000E881F9810488F589E02D9501A401B501A1
:10344000CE010995E881F9810688F789E02DCE0142
:10345000DF91CF911F910F91FF90EF90DF90CF9070
:10346000BF90AF909F908F9009940895EF92FF9234
:103470000F931F93DC01ED91FC9100A0F1A1E02DD1
:1034800009951F910F91FF90EF9008950F931F934F
:10349000DC01ED91FC91068CF78DE02D09951F91D3
:1034A0000F9108950F931F93DC01ED91FC91048C13
:1034B000F58DE02D09951F910F910895DC01ED9197
:1034C000FC910084F185E02D09942F923F924F9258
:1034D0005F926F927F928F929F92AF92BF92CF92A4
:1034E000DF92EF92FF920F931F93CF93DF9300D061
:1034F00000D000D0CDB7DEB72C017E836D836A018A
:103500005901C801FC82EB824801841A950A97FE92
:1035100003C091948194910835012D813E81621AF6
:10352000730A77FE03C0719461947108681479047A
:103530005CF43A2D2B2D5C01832F922F3D812E813F
:10354000DE82CD82C32ED22EAD81BE81AA16BB06ED
:103550005CF43C2D2D2D6C01832F922F3D812E810B
:10356000BE82AD82A32EB22E85012D813E81021B2B
:10357000130B1C012C183D0837FE03C03194219415
:103580003108780117FF03C03FEFE31AF30AF594FF
:10359000E794C816D9062CF08FEF9FEF9A838983A2
:1035A00004C0A1E0B0E0BA83A9832D813E81A216B8
:1035B000B30624F1D201ED91FC910484F585E02D50
:1035C0002B813C816814790424F44D815E81B6011D
:1035D00003C0A6016D817E81C2010995E218F3083E
:1035E000F7FE06C029813A81C20ED31EE00EF11EFD
:1035F0008D819E8101969E838D83D7CF26960FB6AF
:10360000F894DEBF0FBECDBFDF91CF911F910F9118
:10361000FF90EF90DF90CF90BF90AF909F908F90F2
:103620007F906F905F904F903F902F900895FC0196
:1036300077FDB9C080859185681779070CF0B3C014
:1036400057FDB1C082859385481759070CF008953E
:103650008689823079F484819581DC01A61BB70BC1
:10366000BD016150710986819781DC01A41BB50BF6
:10367000AD010EC0833009F084C064277527CA01EC
:10368000862797276827792746815781481B590B3A
:10369000415051092130310531F048F122303105D6
:1036A00009F44AC00895CA0157FD07969C01A3E09A
:1036B00035952795AA95E1F7A481B5812A9FC00188
:1036C0002B9F900D3A9F900D1124680F791F078C46
:1036D000F0A1E02DE60FF71F4770552781E090E03D
:1036E00001C0880F4A95EAF79081892B48C0CA012A
:1036F00057FD07969C0193E0359527959A95E1F73C
:10370000A481B5812A9FC0012B9F900D3A9F900DF7
:103710001124680F791F078CF0A1E02DE60FF71F29
:103720004770552781E090E001C0880F4A95EAF77D
:1037300080959081892323C0CA0157FD07969C017B
:1037400083E0359527958A95E1F7A481B5812A9F75
:10375000C0012B9F900D3A9F900D1124680F791F87
:10376000078CF0A1E02DE60FF71F4770552781E089
:1037700090E001C0880F4A95EAF7908189278083FD
:103780000895813009F086CF64277527462757278B
:103790006427752784819581DC01A61BB70BBD01C9
:1037A0006150710977CF08950E94743E8F929F9265
:1037B000AF92CF92EF92FF920F931F93CF93DF932D
:1037C000EC01262F898D9A8D009709F042C06A304E
:1037D00059F41D861C862D898E859F8538E0239F90
:1037E000800D911D112443C06D3009F4AAC08F894A
:1037F0008823C9F03C898C859D8546E0349F800DE7
:10380000911D1124488559854817590764F41D8670
:103810001C863D898E859F8548E0349F800D911DD3
:1038200011249F878E87EA88FB88088919894E852D
:103830005F856C857D85AD88CC88CE010E94DE14C5
:103840002C898C859D8536E0239F800D911D112448
:103850003EC06A3079F41D861C862D89FC0138969D
:10386000E4918E859F852E9F800D911D11249F8749
:103870008E8767C06D3009F464C0FC0134963491C2
:10388000631708F45EC03296E491E61708F459C055
:10389000462F431B342FFC0132968590949047E0CD
:1038A000349F800C911C1124F4013296349131968E
:1038B000E491332311F0E1110DC0F4013496E49149
:1038C0002C898C859D85E29F800D911D11249D87FB
:1038D0008C8737C0F401359644915F89552319F1DF
:1038E0005C89E32FF0E0E40FF11D47FDFA955E9F40
:1038F000B0015F9F700D11244C855D85460F571FE9
:10390000688579856417750774F41D861C863D8962
:10391000FC013896E4918E859F853E9F800D911D18
:1039200011249F878E87EA88FB88088919894E852C
:103930005F856C857D85AD88CC88CE010E94DE14C4
:10394000BCCF81E090E0DF91CF911F910F91FF906C
:10395000EF90CF90AF909F908F9008950F931F930B
:10396000CF93DF93DC015696EC915697E23071F0DD
:10397000E330E9F0E13079F5FB0114960D90BC914C
:10398000A02DA41BB50BA21BB30B18C0EC01EC813E
:10399000FD81E61BF70BBF0161507109EE81FF81CC
:1039A000DF01A41BB50BAD01421B530B14C0DA01A0
:1039B000EC01EE81FF81E61BF70B3197F7FD0DC09F
:1039C000EC014E815F81E417F5073CF4AF01BD01C6
:1039D0000E94C21302C00E942914DF91CF911F914F
:1039E0000F9108950F931F93DC015696EC91569713
:1039F000E23061F0E33009F1E13081F51496ED91A8
:103A0000FC911597E41BF50B319723C0DC0114964C
:103A1000ED91FC911597DF01A61BB70BBD01DC01F1
:103A20001696ED91FC911797DF01A41BB50BAD0124
:103A300041505109621B730B11C0FA01DC0116964B
:103A40004D915C911797DA01A61BB70BBD01621B64
:103A5000730BAB01BF010E9429140CC057FD0AC0B3
:103A6000DC011696ED91FC9117974E175F0714F441
:103A70000E94C2131F910F91089508958EBD0000FA
:103A80000DB407FEFDCF8EB508951F93CF93DF933E
:103A9000FC01858D968D009701F1162FEF0161A134
:103AA0000E940C088D8D9E8DDC01ED91FC910190A2
:103AB000F081E02D60E009958D8D9E8DDC01ED910A
:103AC000FC910190F081E02D612F09958D8D9E8DE7
:103AD000DF91CF911F910C949021A5A5B6A59C9143
:103AE00083A9809589238C93838D948D892B31F0C4
:103AF000862FDF91CF911F910C943E1D28E030E07E
:103B000080E8A1A5B2A591A9462F482319F04C91B0
:103B1000942B03C04C91909594239C93A3A5B4A59A
:103B20004C9192A9942B9C93A3A5B4A54C9192A9D6
:103B3000909594239C9386952150310911F7DF913C
:103B4000CF911F9108958CBD9DBD08951F93CF9374
:103B5000DF93EC01162F8D8D9E8D892BB1F02DA951
:103B60003EA94FA958AD60E074E284EF90E00E9456
:103B7000323EDA01C9014097A109B109B695A7956E
:103B8000979587958093B8000FC08B8D9C8D892B5E
:103B900021F08EAD9FAD0E94A31DEFA5F8A99081E5
:103BA0008CA9809589238083111102C066EA01C027
:103BB00067EACE010E94451D8D8D9E8D892BB1F047
:103BC00029AD3AAD4BAD5CAD60E074E284EF90E0BE
:103BD0000E94323EDA01C9014097A109B109B695A8
:103BE000A795979587958093B80006C0EFA5F8A98B
:103BF00090818CA9892B8083DF91CF911F910895AB
:103C0000DC0180E0615098F02D91982F9227E92FE8
:103C1000EF70F0E0EA50F34F249192959F70E92FF6
:103C2000F0E0EA5FF24FE491822F8E27EBCF089508
:103C3000DF92EF92FF920F931F93CF93DF93EC01EC
:103C4000D62EE42E08E010E0FF24F39461E08D2DE1
:103C50008F2109F460E0CE010E94A607FF0C0150FD
:103C60001109A1F7E11010C0F894E981FA8191815E
:103C70008881809589238183E981FA819281888175
:103C80008095892382837894DF91CF911F910F9142
:103C9000FF90EF90DF900895EF92FF920F931F93A4
:103CA000CF93DF938C017B0140E065E50E94181EF5
:103CB000E70188E0E80EF11C699140E0C8010E942C
:103CC000181ECE15DF05C1F7DF91CF911F910F911F
:103CD000FF90EF900895FC0190810180F281E02D2A
:103CE000F8948181892B81832281892F80952823D3
:103CF0002283A7E0B0E01197F1F72181822381832D
:103D0000A3E2B0E01197F1F780817894EFECF0E056
:103D10003197F1F7982381E009F480E008958F92BC
:103D20009F92AF92BF92CF92DF92EF92FF920F934A
:103D30001F93CF93DF938C01EB0180911B03909134
:103D40001C030E94D507882309F43DC0B801809167
:103D50001B0390911C030E944C1E40E06EEB80916F
:103D60001B0390911C030E94181E8E015E0189E0C6
:103D7000A80EB11C80901B0390901C0388E0C82EF5
:103D8000D12CF12CEE24E394C4010E946B1E81110E
:103D9000FE28EE0CE1E0CE1AD108B1F7F801F1925D
:103DA0008F01EA15FB0531F780911B0390911C03ED
:103DB0000E94D507813039F468E0CE010E94001ED0
:103DC00091E02885281390E0892FDF91CF911F91F2
:103DD0000F91FF90EF90DF90CF90BF90AF909F90AA
:103DE0008F900895BF92CF92DF92EF92FF920F9340
:103DF0001F93CF93DF93EC016B018D85811105C07B
:103E0000CE010E94D507811105C01B861D861C8628
:103E100080E060C040E060EFCE010E94181E01E02B
:103E2000E12CB12C11E0CE010E946B1EF82ECE01C8
:103E30000E946B1E91E0F91203C08130B1F434C0CE
:103E40002E2D30E0F8121BC08B85181738F4FE01B8
:103E5000E20FF31F8381802341F402C0811729F010
:103E6000F12C193058F41C8709C0FE01EE0DF11D2C
:103E70008381802B8383FF24F39409C0B12EFE013C
:103E8000E20FF31F9381802F8095892383836F2D09
:103E9000CE010E94A6071F5F000F11F4E39401E01A
:103EA00087E08E1508F0BFCF113408F4AECFBB8683
:103EB000B11002C081E08D878B81882309F4A5CFE2
:103EC000DE011396F6012B968D918193CA17DB07BD
:103ED000D9F781E0DF91CF911F910F91FF90EF9083
:103EE000DF90CF90BF900895FF920F931F93CF93D1
:103EF000DF938C01F62EE0911B03F0911C031386D7
:103F000015861486DF011B9633961E92EA17FB076F
:103F1000E1F7C0E0B80180911B0390911C030E945F
:103F2000F21ED82F882369F0FC1208C067E0C80190
:103F30000E94001EF8019781891721F0CF5FFC16BF
:103F400048F7D0E08D2FDF91CF911F910F91FF9017
:103F50000895CF93DF93CDB7DEB761970FB6F8948E
:103F6000DEBF0FBECDBF60E0CE010A960E94741F77
:103F7000811105C060E070E08EEF92EC4AC0BE0196
:103F80006F5F7F4FCE010A960E948F1E882361F1DA
:103F90002A8130E0C901982F8827990F990F990F2E
:103FA000698128E0629FB00111249C01262B372BE8
:103FB0008A858031E1F4688570E08F81AB01481B10
:103FC0005109CA019695982F8827979587950E9441
:103FD0001E3E60517109207F53E0220F331F5A9516
:103FE000E1F7620F731F04C060E874EE01C0B9010D
:103FF000613854EE75070CF4BDCF072E000C880B0A
:10400000990B0E94E83C20E030E040E05CE30E9435
:104010009D3D61960FB6F894DEBF0FBECDBFDF9118
:10402000CF910895CF93DF93CDB7DEB729970FB621
:10403000F894DEBF0FBECDBFFC0120812031D1F04E
:10404000BE016F5F7F4F0E948F1E882389F08D8194
:104050008F3361F020F48F3159F489E00CC08F3533
:1040600019F08F3739F004C08BE005C08AE003C037
:1040700080E001C08CE029960FB6F894DEBF0FBE39
:10408000CDBFDF91CF910895EF92FF920F931F93D1
:10409000CF93DF93CDB7DEB761970FB6F894DEBF4D
:1040A0000FBECDBF893028F0182F8D3018F01CE0DE
:1040B00001C019E084EB92E00E941220811303C03A
:1040C000FF24F394A9C0BE016F5F7F4F84EB92E0A1
:1040D0000E948F1EF82E882309F49EC08091B4029E
:1040E000803171F31B3041F01C3021F01A3031F473
:1040F0008FE305C08FE703C08FE501C08FE18D839B
:1041000080911B0390911C030E94D50764EB72E021
:1041100080911B0390911C030E944C1E40E06EE4B2
:1041200080911B0390911C030E94181E40E06B813C
:1041300080911B0390911C030E94181E40E06C812B
:1041400080911B0390911C030E94181E8091B40261
:10415000803141F040E06D8180911B0390911C0300
:104160000E94181E80911B0390911C030E94D5078A
:1041700064EB72E080911B0390911C030E944C1E23
:104180004091150368E480911B0390911C030E94E9
:10419000181E64E170E080E090E00E94A617809114
:1041A0001503882331F06AE070E080E090E00E941F
:1041B000A61780911B0390911C030E94D507809144
:1041C0001603811708F4812F181718F0809316032F
:1041D00077CF1093160300E010E08091190390E070
:1041E00008171907CCF4602FCE010A960E94741F9D
:1041F000E0901603CE010A960E9412208E1518F444
:104200008091160304C0CE010A960E94122080936A
:1042100016030F5F1F4FE1CF8F2D61960FB6F894F5
:10422000DEBF0FBECDBFDF91CF911F910F91FF90E9
:10423000EF9008958F929F92AF92BF92CF92DF92AC
:10424000EF92FF92CF93DF9380911B0390911C0319
:104250000E94D50740E06CEC80911B0390911C03F9
:104260000E94181E4091150364E480911B039091F5
:104270001C030E94181E80911703882309F445C06F
:10428000E0911603E950E33040F4F0E0EE0FFF1F39
:10429000EF5EFE4FC081D18102C0CEEED2E08091B0
:1042A0001803882311F18091150381111EC00E940B
:1042B00018264B015C016E01DD0FEE08FF088091AE
:1042C0001B0390911C030E946B1E8130F1F00E9431
:1042D0001826DC01CB018C199D09AE09BF09881590
:1042E0009905AA05BB0558F310C0BE01DD0F880B68
:1042F000990BDF91CF91FF90EF90DF90CF90BF901F
:10430000AF909F908F900C94A617DF91CF91FF9064
:10431000EF90DF90CF90BF90AF909F908F900895D7
:104320008F929F92AF92BF92CF92DF92EF92FF92C5
:104330000F931F93CF93DF931091B302113208F0C4
:10434000C2C0D091B2020E94F3256B017C01C091E2
:104350008A02CC2311F180918C0290918D02A09160
:104360008E02B0918F02892B8A2B8B2B81F30E94B6
:10437000F32580908C0290908D02A0908E02B090D8
:104380008F02DC01CB018C199D09AE09BF0988168B
:104390009906AA06BB06D8F682C082E080938A02FC
:1043A00081E0809389028FEF8093880210928702C8
:1043B00010938602A2E9B2E0E6E6F2E080E0181788
:1043C00021F09D9191938F5FFACF109265029091A9
:1043D00065028D2F880F892B80936502809164027E
:1043E000813089F5109264020E94F3256B017C01F3
:1043F000809165028093BB0080918C0290918D0228
:10440000A0918E02B0918F02892B8A2B8B2BA9F061
:104410000E94F32500918C0210918D0220918E0252
:1044200030918F02DC01CB018C199D09AE09BF09C7
:10443000081719072A073B0790F18091BC0083FDFC
:10444000D7CF85EC01C085EE8093BC000E94F32598
:104450006B017C0180918A02823039F580918C0257
:1044600090918D02A0918E02B0918F02892B8A2BA0
:104470008B2B81F30E94F32500918C0210918D0209
:1044800020918E0230918F02DC01CB018C199D09A5
:10449000AE09BF09081719072A073B07D8F680910C
:1044A0008B020E942D08C5E013C0809188028F3FC7
:1044B00079F080918802803241F0809188028033C7
:1044C00031F0C4E005C0C1E003C0C2E001C0C3E0F8
:1044D000109291021092B302109290028C2FDF91F1
:1044E000CF911F910F91FF90EF90DF90CF90BF90F1
:1044F000AF909F908F9008951F93CF93DF9320915B
:104500000C0330910D0328173907D9F1811520E1EB
:104510009207D0F5EC0160910E0380E1689FB00135
:1045200011241D2F162B60910B0380911303909182
:1045300014030E940C088091130390911403DC0172
:10454000ED91FC910190F081E02D612F0995809112
:10455000130390911403DC01ED91FC910190F08123
:10456000E02D6C2F099580911303909114030E9404
:10457000902190E0009751F4D0930D03C0930C0369
:1045800005C080E090E002C089E19CEFDF91CF910F
:104590001F910895FF920F931F93CF93DF9303E82A
:1045A00013E0C4E0D0E0F801F1908F01CE010E9449
:1045B000863BF81621F06F2DCE010E948E3B21968E
:1045C000C531D10581F783E893E0DF91CF911F9149
:1045D0000F91FF900895EF92FF920F931F93CF9347
:1045E0007C01C62F8091520390915303009709F4E8
:1045F00052C0609156030E940C0880915203909122
:104600005303DC01ED91FC910190F081E02D60E01D
:1046100009958701EE24E394F12C80915203909147
:104620005303CC2389F1B0E2EB16F104C8F00E94E9
:1046300090216091560380915203909153030E9400
:104640000C088091520390915303DC01ED91FC9191
:104650000190F081E02D60E00995EE24E394F12CC7
:104660008091520390915303F8016491DC01ED9124
:10467000FC910190F081E02D0995BFEFEB1AFB0A48
:10468000C1500F5F1F4FC9CFCF911F910F91FF9066
:10469000EF900C949021E0916203F091630390817C
:1046A000809168038095892380838701CC2309F456
:1046B00039C0F80184912091500330915103232B8C
:1046C00031F00E943E1DC1500F5F1F4FEFCF28E019
:1046D00030E040E8E0915E03F0915F039091660363
:1046E000582F542319F05081952B03C05081909579
:1046F00095239083E0916003F09161035081909144
:104700006703952B9083E0916003F09161035081E2
:104710009091670390959523908346952150310998
:10472000C9F6D1CFCF911F910F91FF90EF900895CF
:10473000EF92FF920F931F93CF93DF9380915203D9
:1047400090915303892BD1F020916A0330916B0330
:1047500040916C0350916D0360E074E284EF90E04F
:104760000E94323EDA01C9014097A109B109B6950C
:10477000A795979587958093B80016C080915003B0
:1047800090915103892B31F08091730390917403C0
:104790000E94A31DE0916403F091650390818091D4
:1047A000690380958923808365E088E49DE00E9409
:1047B000EB2260913903615085E393E00E94451D2F
:1047C00020913B0330913C03C901079697FD079662
:1047D00033E0959587953A95E1F72091390330912B
:1047E0003A03829F8001839F100D929F100D112428
:1047F000C0915403D091550380915203909153037B
:104800000C0F1D1F009709F448C0609156030E94C9
:104810000C088091520390915303DC01ED91FC91BF
:104820000190F081E02D60E409957E01C1E0D0E0C7
:1048300080915203909153030E151F0559F1C03218
:10484000D105C0F00E9490216091560380915203DF
:10485000909153030E940C0880915203909153034E
:10486000DC01ED91FC910190F081E02D60E409956F
:10487000C1E0D0E08091520390915303F701619120
:104880007F01DC01ED91FC910190F081E02D099513
:104890002196CECF0E94902141C0E0916203F09119
:1048A0006303908180916803892B8083C017D107AF
:1048B000A9F189912091500330915103232B19F0D4
:1048C0000E943E1DF3CF28E030E040E8E0915E0317
:1048D000F0915F0390916603582F542319F0508193
:1048E000952B03C05081909595239083E0916003B0
:1048F000F0916103508190916703952B9083E09133
:104900006003F09161035081909167039095952326
:104910009083469521503109C9F6C8CF8091520342
:1049200090915303892BD1F020916E0330916F0346
:10493000409170035091710360E074E284EF90E065
:104940000E94323EDA01C9014097A109B109B6952A
:10495000A795979587958093B80017C0E091640359
:10496000F0916503908180916903892B8083809108
:10497000500390915103892B41F0DF91CF911F910A
:104980000F91FF90EF900C943D1DDF91CF911F91FF
:104990000F91FF90EF9008950F931F93CF93DF93A4
:1049A0008C01C0E0D0E0F801EC0FFD1F649166239C
:1049B00041F085E393E00E94D61B892B11F02196EC
:1049C000F2CFCE01DF91CF911F910F910895E09129
:1049D0005403F091550380E094E0DF019C011D92A7
:1049E00021503040E1F70895DF92EF92FF920F934C
:1049F0001F93CF93DF9300D000D0CDB7DEB71092D6
:104A00008E0310928D038DE291E090938603809344
:104A1000850385E390E090938803809387038FE577
:104A200090E090938A038093890389E290E09093C9
:104A30008C0380938B0381E08093830381E48093D4
:104A4000840382E090E0909393038093920388E143
:104A500080938F0384E690E090939103809390037A
:104A60000E94CA228BEC99EEAAEFB8E189839A835F
:104A7000AB83BC83CE0101967C0100E010E0F7011E
:104A8000D1907F01C8010E94863BD81621F06D2D80
:104A9000C8010E948E3B0F5F1F4F0430110579F74C
:104AA0000F900F900F900F90DF91CF911F910F916A
:104AB000FF90EF90DF900895009769F0FC0101905E
:104AC0000020E9F73197AF01481B590BBC0185E382
:104AD00093E00C94551880E090E008953F924F9237
:104AE0005F926F927F928F929F92AF92BF92CF927E
:104AF000DF92EF92FF920F931F93CF93DF9300D03B
:104B000000D000D0CDB7DEB72C013B014A015901DE
:104B1000C901079697FD07969C0193E03595279567
:104B20009A95E1F73C832B83C12CD12CE12CF12CFD
:104B3000312CC3018E0D9F1D9A838983E016F106E7
:104B4000C4F51E821D822D813E812A153B054CF540
:104B5000C90187709927892B11F0330C0EC0ED81A4
:104B6000FE81F7FD379683E0F595E7958A95E1F7A5
:104B7000EC0DFD1DE80DF91D349037FE0CC021E051
:104B800030E049815A816D817E81640D751D85E318
:104B900093E00E945E1A8D819E8101969E838D8393
:104BA000D2CF9FEFE91AF90A2B813C81C20ED31EA6
:104BB000C0CF26960FB6F894DEBF0FBECDBFDF91F3
:104BC000CF911F910F91FF90EF90DF90CF90BF900A
:104BD000AF909F908F907F906F905F904F903F909D
:104BE00008950C945C253FB7F894809199039091B7
:104BF0009A03A0919B03B0919C0326B5A89B05C086
:104C00002F3F19F00196A11DB11D3FBFBA2FA92F4B
:104C1000982F8827820F911DA11DB11DBC01CD01C8
:104C200042E0660F771F881F991F4A95D1F70895B4
:104C30002FB7F89460919503709196038091970334
:104C4000909198032FBF08951F920F920FB60F9265
:104C500011242F933F938F939F93AF93BF93809192
:104C6000950390919603A0919703B091980330918A
:104C7000940323E0230F2D3720F40196A11DB11DCD
:104C800005C026E8230F0296A11DB11D20939403B1
:104C90008093950390939603A0939703B093980302
:104CA0008091990390919A03A0919B03B0919C03EA
:104CB0000196A11DB11D8093990390939A03A0932F
:104CC0009B03B0939C03BF91AF919F918F913F91B4
:104CD0002F910F900FBE0F901F901895CF93DF93D9
:104CE000CDB7DEB7A1970FB6F894DEBF0FBECDBF2C
:104CF000789484B5826084BD84B5816084BD85B5B7
:104D0000826085BD85B5816085BD80916E008160C2
:104D100080936E0010928100809181008260809368
:104D2000810080918100816080938100809180006A
:104D30008160809380008091B10084608093B10095
:104D40008091B00081608093B00080917A0084608F
:104D500080937A0080917A00826080937A008091BB
:104D60007A00816080937A0080917A0080688093D5
:104D70007A001092C10089E293E00E94160861E077
:104D80008BE00E946A1761E08AE00E946A1761E086
:104D900089E00E946A1761E08DE00E946A1761E075
:104DA00086E00E946A1762E084E00E946A1762E06F
:104DB00083E00E946A1762E085E00E946A1762E061
:104DC00082E00E946A1762E088E00E946A1762E04F
:104DD00087E00E946A1760E08BE00E943B1760E06A
:104DE0008AE00E943B1760E089E00E943B1761E087
:104DF00086E00E943B178091540390915503892BC4
:104E000011F00C943F3220913B0330913C03C901D7
:104E1000079697FD0796B3E095958795BA95E1F7C4
:104E20002091390330913A03AC01429FC001439F66
:104E3000900D529F900D11240E94B237909355030C
:104E400080935403892B11F00C943F3281E08093BE
:104E50008901CE0101967C0100E010E06C01C801DF
:104E60000E94863BD7018D937D010F5F1F4F043059
:104E70001105A9F789819A81AB81BC818B3C994E40
:104E8000AA4FB84189F423E8E22E23E0F22EC801AC
:104E90000E94863BD7018D937D010F5F1F4F053127
:104EA0001105A9F781E001C080E0209192033091C3
:104EB00093032230310559F4882349F080918D0302
:104EC00090918E03892B09F09CC160E09BC10E94E8
:104ED000E72412E0F12EF0924903F0924A038CE1AC
:104EE00090E0909342038093410380E190E090939F
:104EF000440380934303109246031092450301E05C
:104F000010E0109348030093470381ED9CE00E945A
:104F1000CC24F0924903F0924A0382E290E090930D
:104F200042038093410384E290E090934403809392
:104F300043031092460310924503109348030093D5
:104F4000470389E695E00E94CC2481E080934903E1
:104F500080934A038EE290E0909342038093410352
:104F600088E390E0909344038093430310934803B5
:104F700000934703109346030093450382E695E0B0
:104F80000E94CC240E9498230E94F424BB24BA944B
:104F900085EEA82E95EC992E60910B03809113035A
:104FA000909114030E940C088091130390911403B4
:104FB0000E9490218111D5C0F0900B030E94F3252F
:104FC0002B013C0110918A02112339F180918C024E
:104FD00090918D02A0918E02B0918F02892B8A2B25
:104FE0008B2B81F30E94F32520918C0230918D024E
:104FF00040918E0250918F02DC01CB0184199509FA
:10500000A609B709281739074A075B07D8F6809120
:105010008B020E942D0810E08CC000938A0200933E
:105020008902B09288021092870210928602009341
:105030006502909165028F2D880F892B8093650200
:1050400080916402813091F5109264020E94F325F0
:105050002B013C01809165028093BB0080918C0202
:1050600090918D02A0918E02B0918F02892B8A2B94
:105070008B2BA9F00E94F32520918C0230918D0298
:1050800040918E0250918F02DC01CB018419950969
:10509000A609B709281739074A075B0790F18091DD
:1050A000BC0083FDD7CF9092BC0002C0A092BC0090
:1050B0000E94F3252B013C0180918A02813031F559
:1050C00080918C0290918D02A0918E02B0918F02FE
:1050D000892B8A2B8B2B81F30E94F32520918C0244
:1050E00030918D0240918E0250918F02DC01CB01F4
:1050F00084199509A609B709281739074A075B07D4
:10510000D8F680918B020E942D0813C080918702EF
:10511000811103C08091870201C081E0E6E6F2E0E0
:10512000A8E5B1E010E0181721F091919D931F5F61
:10513000FACF109257011093560176018E2D8C19DB
:10514000811778F48091130390911403DC01ED91A1
:10515000FC910284F385E02D0995F70181937F018D
:10516000EDCF898187FF18CF0E94182660930F0327
:1051700070931003809311039093120360910B03BB
:1051800080911303909114030E940C0880911303E3
:105190009091140360910E03660F6066DC01ED913F
:1051A000FC910190F081E02D09958091130390917D
:1051B0001403DC01ED91FC910190F081E02D6CE590
:1051C00009958091130390911403DC01ED91FC91FA
:1051D0000190F081E02D60E2099580911303909198
:1051E00014030E949021811106C082EC95E09093F7
:1051F0000D0380930C038FE00E941217892BD9F7BF
:105200005DCE62E085E393E00E94801810928000FA
:1052100081EC809381001092820081E280936F0084
:1052200010928500109284008DE78093B30082E095
:105230008093B00095E09093B1008093700081E07E
:105240008093F8028093F7028093F4028FEF9FEF30
:1052500090938B0180938A010E94182660938E019F
:1052600070938F0180939001909391018FE00E9441
:105270001217892B11F080E001C08AE0809387012A
:10528000E0911B03F0911C03138615861486DF0141
:105290001B9633961E92EA17FB07E1F7109219034B
:1052A00010921A0311E0B60180911B0390911C0328
:1052B0000E94F21E882309F45DC067E0C6010E94C7
:1052C000001E98858913EFCF80911503811126C0A8
:1052D00080911B0390911C030E94D507B601809119
:1052E0001B0390911C030E944C1E40E064EB8091D4
:1052F0001B0390911C030E94181E80911B03909128
:105300001C030E946B1E082F80911B0390911C03AD
:105310000E94D507002311F40C9459340091160310
:10532000C6010E941220801718F48091160303C052
:10533000C6010E94122080931603809119038F5F8B
:10534000809319038981883211F40C945D3448F4F8
:10535000803111F40C945D34823209F0A4CF0C94A6
:105360005D348B3311F40C945D34823409F09BCF9F
:105370000C945D3460E084EB92E00E94741F8823FB
:1053800021F189E00E944420109217030E941A2103
:105390000E94A91F60937D0170937E0180937F011D
:1053A0009093800120E030E040E05FE30E94D43B36
:1053B0000E94B73C609382011092790110927A01A9
:1053C00010927B0110927C0103C081E080937801F0
:1053D0008091870181112AC18091890181111AC1AF
:1053E0000E94E7240E949823FF24F394F09249033B
:1053F000F0924A0301E010E010934203009341034E
:10540000109344030093430310934803009347030E
:1054100010934603009345038AEC95E00E94CC2448
:10542000F0924903F0924A03109342030093410320
:1054300080E190E0909344038093430310934803EA
:1054400000934703109346030093450385EB95E0D3
:105450000E94CC24F0924903F0924A031093420335
:10546000009341038AE190E09093440380934303C7
:10547000109348030093470310934603009345039A
:1054800084EA95E00E94CC24F0924903F0924A030A
:10549000109342030093410384E290E0909344030D
:1054A00080934303109348030093470310934603EC
:1054B0000093450381E995E00E94CC24F0924903D2
:1054C000F0924A0310934203009341038EE290E06E
:1054D000909344038093430310934803009347033E
:1054E000109346030093450381E895E00E94CC2485
:1054F000F0924903F0924A03109342030093410350
:1055000088E390E09093440380934303109348030F
:105510000093470310934603009345038FE695E0FD
:105520000E94CC2480919D0390919E03009711F4DA
:1055300081EA93E04601881A990A092C000CAA080E
:10554000BB08B7FE25C06DE285E393E00E94D61B41
:1055500022273327A901281939094A095B0919A209
:105560008E010F5D1F4FBAE08B2E912CA12CB12C18
:10557000CA01B901A50194010E94323E605DF801A3
:1055800062938F01211531054105510589F71AC034
:10559000A501940119A28E010F5D1F4FAAE08A2E6A
:1055A000912CA12CB12CCA01B901A50194010E9432
:1055B000323E605DD8016E938D01211531054105A4
:1055C000510589F7C8010E945C250E9498230DE2CD
:1055D00011E0F8948091F5029091F6022091F50285
:1055E0003091F6022130310521F0009711F00C9432
:1055F00064347894059751F00150110939F06AE04C
:1056000070E080E090E00E94A617E3CF0E94E724BC
:105610000E9498239FB7F894809181019FBF82FDDB
:1056200005C08FE08093870110928601809113035B
:10563000909114030E94160860910B03809113034C
:10564000909114030E940C0880911303909114030D
:105650000E94902181110C946A3410920D031092D3
:105660000C0380E090E00E94940B1092850160E0B2
:105670008DE00E943B1761E089E00E943B1761E0EA
:105680008BE00E943B1761E08AE00E943B1780910B
:1056900090039091910390930901809308010E94D7
:1056A000FC0DE0EF6E2EECE07E2EAA24A394B12C2C
:1056B00050E1852E912C64E2262E312C78E3472E82
:1056C000512C809187018A3011F481E198C1F894BE
:1056D0002091ED023091EE026091F10270E0C9017B
:1056E0000E941E3E9093EE028093ED028091F402A0
:1056F000882339F00091F2021091F302012F112753
:1057000002C000E010E078946091F10270E0C901FD
:105710000E941E3E77FF03C00095109507C0672BBF
:1057200019F00F5F1F4F02C000E010E080918C0164
:1057300090918D01080F191F10938D0100938C011A
:10574000E0908A01F0908B010E151F0539F10E943F
:10575000182660938E0170938F018093900190932F
:105760009101E016F1065CF4C8018E199F09880FBB
:10577000991F90939E0180939D0188E009C0E01AD3
:10578000F10AEE0CFF1CF0929E01E0929D0189E06F
:105790008093870110938B0100938A01F894009104
:1057A000F5021091F6028091F5029091F6020197B0
:1057B00029F00115110511F00C946F347894809143
:1057C0009201801739F1009392010E94182660938C
:1057D0008E0170938F018093900190939101C80185
:1057E00099278230910571F030F4009789F0019784
:1057F00089F484E008C08330910541F0049751F4A6
:1058000083E001C082E08093870104C081E0FBCF88
:10581000109287019FB7F894809181019FBF82FF0A
:1058200010C08091860181110EC08CEB92E00E9425
:10583000D0098BEC92E00E94B40981E0809386014C
:1058400002C01092860180E10E94EC0A882319F0C0
:105850008DE08093870188E00E94EC0A882319F08C
:105860008CE08093870180E20E94EC0A882319F083
:105870008EE08093870180910A0190E0A0E0B0E083
:105880008093930190939401A0939501B093960116
:105890008091930190919401A0919501B09196010E
:1058A000409100015091010160910201709103014A
:1058B000481759076A077B07C9F080910A018111CF
:1058C00002C086E001C087E0809387018091930148
:1058D00090919401A0919501B0919601809300015F
:1058E00090930101A0930201B09303010E94FC0D6B
:1058F000E09187018E2F90E0FC013297EE30F105A8
:1059000008F086C0EC5CFF4F0C94543E80919F01E0
:1059100081117CC08091630211E081279091860102
:10592000892390918501981708F070C08CEB92E064
:105930000E94B4098BEC92E00E94D009109363029C
:1059400010929E0110929D01809108019091090191
:105950000E94940B5BC080919F01811157C0809180
:105960008601882309F452C080916302882309F4D8
:105970004DC00E94A50A8CEB92E00E94D0098BECEE
:1059800092E00E94B4091092630240C080919F018E
:1059900081113CC080916302811138C083E02FC027
:1059A00080919F01811132C085E029C080919F01C3
:1059B00081112CC086E023C080919F01811126C0F7
:1059C00087E01DC080919F01811120C01092860147
:1059D0001092630280E090E00E94940B48EC50E04B
:1059E00068EC70E08BEC92E00E94DE098CEB92E0B8
:1059F0000E94B40980919F01811108C088E08093C2
:105A0000A00104C08091A001843111F0109287019F
:105A10001091A001812F90E08631910508F00CC50E
:105A2000FC01EE5BFF4F0C94543E80918701813066
:105A300031F480919F01811181E18093A0010E9446
:105A4000E7240E94F10B82E08093490380934A038C
:105A500084E090E09093420380934103909244034A
:105A600080924303B0924803A0924703B09246034A
:105A7000A09245038091830360918201882329F0DD
:105A80001F926F938BEE95E017C070E080E090E07E
:105A90000E94E63C26E636E646EE5FE30E949D3D28
:105AA00020E030E040E052E40E94D43B0E94B73C4A
:105AB0007F936F9383EE95E09F938F93DF92CF92C6
:105AC0000E94D3380F900F900F900F900F900F906F
:105AD000C6010E94F12582E08093490380934A0326
