:100000000C94B72A0C94DF2A0C94DF2A0C94DF2A74
:100010000C94DF2A0C94DF2A0C94DF2A0C94DF2A3C
:100020000C94DF2A0C94785B0C94835B0C94DF2A8D
:100030000C94DF2A0C94494F0C94DF2A0C94DF2A8D
:100040000C94035D0C94DF2A0C94DF2A0C94DF2AB5
:100050000C9493490C94DF2A0C94DF2A0C94DF2A29
:100060000C94FCBB0C94DF2A0C94DF2A0C94DF2A3E
:100070000C945A480C9491480C94DF2A0C94DF2A73
:100080000C94DF2A0C94DF2A0C94DF2AD267EF68E5
:10009000D767DC671D68296833683C68EF68596872
:1000A000666883689668A3684968EF68B368E9671B
:1000B00096869A86A486A086A886AC86B086B486E4
:1000C000BA86BE86C486C886CC86D086D486DD86AF
:1000D000E186E786EB86F186F786FD865CAA5EAA56
:1000E00061AA64AA67AA6AAA6DAA70AA73AA76AA64
:1000F00079AA7CAA7FAA86AA82AAC7BAD6BADDBA8A
:10010000E8BAF9BA03BB0BBB1BBB20BB68D96BD9E0
:100110006ED971D974D9ADD986D989D98CD994D9E8
:1001200097D931D947D94AD94DD950D953D956D968
:1001300059D95CD95FD962D965D944D99FD9AAD98F
:10014000B0D905A84CCDB2D44EB93836A9020C505E
:10015000B9918688083CA6AAAA2ABE000000803F62
:1001600025642F25640024242400676574207665A7
:100170007273696F6E00414F4B00666163746F72FA
:10018000792052455345540044656661756C74731B
:1001900000736176650053746F72696E67006A6FF1
:1001A000696E004173736F636961746564007265A1
:1001B000626F6F7400255320256C75204261756451
:1001C000005769466C79206E6F7420666F756E6497
:1001D0000073657420752062203537363030005743
:1001E00069466C792056657273696F6E0056657248
:1001F00073696F6E3A207625730056657273696F66
:100200006E204641494C2100494E495400736574A3
:1002100020776C616E206A6F696E2034007365749C
:1002200020697020646863702030007365742069F1
:10023000702061646472657373003136392E323513
:10024000342E312E3100736574206970206761741B
:1002500065776179003136392E3235342E312E31C1
:1002600000736574206970206E65746D61736B0036
:100270003235352E3235352E302E300073657420F0
:10028000776C616E20737369640073657420776C9A
:10029000616E206368616E0073657420776C616EB7
:1002A000206A6F696E20370073657420697020645E
:1002B0006863702034007365742069702061646421
:1002C000726573730073657420697020676174656B
:1002D00077617900736574206970206E65746D6153
:1002E000736B0073657420776C616E207261746546
:1002F0002033007365742061706D6F6465207373C3
:100300006964007365742061706D6F64652070614D
:1003100073730073657420776C616E206368616E1F
:100320006E656C007365742069702070726F746FF5
:10033000636F6C20307833007365742061706D6F6B
:100340006465206C696E6B5F6D6F6E69746F72208F
:100350003000496E6974205769466C7900416448E1
:100360006F630041502D4D6F6465005769466C798D
:1003700020762573004552524F52005665727369BC
:100380006F6E206E6F20255321005769466C7920CF
:100390007625730025533A204F4B0025533F0049E3
:1003A0006E6974204641494C2100496E6974204FA2
:1003B0004B2100557064617465205769466C790063
:1003C00025533A207625730025533A20762553008D
:1003D00025533F00322E33382E3300342E34310073
:1003E00052657365740076657262696E6465204853
:1003F00065696D6E65747A00736574206970206438
:1004000068637020310073657420776C616E2070B2
:1004100068726173650073657420776C616E206328
:1004200068616E6E656C20300046545020557064D3
:100430006174650073657420667470206164647211
:10044000657373203139382E3137352E3235332EDE
:1004500031363100736574206674702064697220CF
:100460007075626C696300736574206674702075C2
:1004700073657220726F76696E67007365742066AB
:100480007470207061737320506173733132330064
:10049000736574206674702074696D656F7574205F
:1004A0003830300066747020637570646174652044
:1004B0007769666C79372D323338332E696D670072
:1004C000555044415445204F4B006674702063756D
:1004D0007064617465207769666C79372D343431C6
:1004E0002E696D6700555044415445204F4B0066BE
:1004F000747020757064617465207769666C7937F3
:100500002D323338332E696D6700555044415445C0
:10051000204F4B006674702075706461746520779D
:1005200069666C79372D3434312E696D670055500A
:1005300044415445204F4B0055706461746520461A
:1005400041494C2100557064617465204F4B210076
:100550005265736574205769466C790025533F00D6
:100560005265736574204F4B21005265736574208A
:100570004641494C21005769466C792041502D4D28
:100580006F6465005769466C79204164486F630069
:100590005769466C79005769466C79204D6F6475D0
:1005A00073005769466C79206D6F6465007A6569E0
:1005B00067652056657273696F6E0073686F772088
:1005C00076657273696F6E005353494400506173CE
:1005D00073776F72740050617373776F7264004B3E
:1005E000616E616C004368616E6E656C00494E49D6
:1005F000543A2041502D4D6F646500494E49543A9C
:10060000204164486F6300486F6D6520535349442F
:1006100000486F6D652050617373776F7274004886
:100620006F6D652050617373776F7264005550442D
:100630004154453A205769466C7900524553455418
:100640003A205769466C79005769466C792065698C
:100650006E736368616C74656E005769466C7920CF
:10066000706F776572206F6E00255320256C7520A2
:10067000426175640057692E32333220496E6974C5
:100680000057692E323332206E6F7420666F756E9C
:10069000640057692E323332204572726F723A20ED
:1006A00025640057692E32333220496E6974204F19
:1006B0004B210022526164696F54726F6E69782217
:1006C000006D656E756374726C2E63002A2045524E
:1006D000524F52202A002020253139530020202556
:1006E0003139730020253230530020253230730019
:1006F00025345300253553002563256325313853B0
:1007000000002A2A2A002563256325313453202539
:100710003373002563256325313653256320002577
:100720006325632531375320002563256325313642
:10073000732563200025632563253137732000006E
:100740004E4F4D454E55004D41584D454E55004D6F
:1007500041584954454D004E4F4954454D004E4F68
:10076000504152454E544D454E55004572726F7280
:100770003A205363726F6C6C426F78004E6F206D3D
:100780006F72652052414D00202020200025533AF1
:10079000002533640025342E31640025312E316468
:1007A00000253464002533640052657665727365F4
:1007B0000072657665727365004C696E6B73006CD0
:1007C0006566740052656368747300726967687463
:1007D000004D69747465006D6964646C65005374E0
:1007E0006172742054657374007374617274207440
:1007F0006573740045696E7A656C736368726974B9
:10080000740073696E676C65207374657000416E67
:100810007A61686C2054657374006E756D626572E0
:10082000206F662074657374005061757365204590
:100830006E64706F732E00706175736520656E64F1
:1008400020706F730050617573652070726F20495E
:100850006E632E0070617573652070726F6320691E
:100860006E632E00546573742050756C736CE46E67
:10087000676500746573742070756C7320776964A4
:100880007468005465737420466F72746C66642ECD
:10089000007465737420636F6E742E0053657276F6
:1008A0006F00506572696F6465006672616D650006
:1008B000536572766F7363687269747465007365EB
:1008C00072766F20737465707300536572766F2053
:1008D0003100536572766F203200536572766F7403
:1008E00065737400426561723A00253364001E002E
:1008F000446973743A00253364006D0050616E20C2
:100900003A0054696C743A00203F3F2000204F4B5E
:1009100020004641494C0020204C61746974756484
:100920006520204C6F6E6769747564650048004DE2
:10093000005361743A004669783A0048444F503A8F
:10094000006C6F73742042542064617461004750DE
:1009500053207472656E6E656E004572726F722000
:10096000617420636F6E6E656374696E6700737780
:1009700069746368206F6E204254204D6F757365F3
:100980002121004665686C6572206265696D20549E
:1009900072656E6E656E0053204C61746974756487
:1009A0006520204C6F6E67697475646500576861D7
:1009B000697420666F722047505320466978200082
:1009C000576861697420666F7220475053204669EA
:1009D00078200020202020202020202020202020DF
:1009E000202020202000475053206F6B2C20737450
:1009F000617274206F6B2020006C6F7374205769D4
:100A00002E323332206461746100547261636B6909
:100A10006E6720426C7565746F6F746820202000CB
:100A2000202A2A20504B54204C69506F21202A2A1A
:100A300020002073657269656C6C6520506F746965
:100A40007320312D352000194F18002020204A6FC7
:100A500079737469636B205365747570202020204E
:100A60000053204D696E204D61782054797020200C
:100A700044697220204E00506F7469005461737491
:100A8000004E6F726D00526576004E005900504B5B
:100A900054204C69706F6D657373756E67202020EC
:100AA000004F4B004D696E696D616C205765727423
:100AB000006D696E696D616C2076616C7565004DC5
:100AC0006178696D616C2057657274006D61786939
:100AD0006D616C2076616C75650054797065007489
:100AE000797065005269636874756E670064697235
:100AF000656374696F6E004E65757472616C6973BD
:100B00006965726564006E65757472616C697A6995
:100B10006E6700DC62657273696368740073756D7B
:100B20006D61727900537469636B2031005374698D
:100B3000636B203200537469636B20330053746914
:100B4000636B203400537469636B203500504B5441
:100B5000204C69706F6D657373756E6700504B54F0
:100B6000204C69706F206D6561737572652E004C45
:100B700069506F206D6561737572652100537563EF
:100B8000686520647572636866FC6872656E210032
:100B9000425420537563686500253364002535642D
:100BA0000025322E31640057692E3233320025334E
:100BB0006400256C64004D696B726F6B6F707465B7
:100BC00072004C69706F0042542D4D6F7573650053
:100BD000756E6B6E6F776E004164486F63004150B5
:100BE0002D4D6F6465004C69496F6E003E202531C4
:100BF0003653003E202531367300537072616368AE
:100C000065006C616E67756167650025533A003F4A
:100C10003F3F0020202020202000200043002017FC
:100C200020202020201620202020201920202020D5
:100C3000204F4B00204645484C45522120312E2064
:100C40005A65696368656E21200025533A003E208D
:100C50002535642020202020203D3E2025312E32C5
:100C60006476003A005761726E20556E7465727337
:100C700070616E6E756E67005761726E204C6F7793
:100C8000426174005761726E2052432D4665686C54
:100C90006572005761726E2052432D4572726F72F9
:100CA000007A65696765205A656C6C7370616E6E59
:100CB000756E670073686F772063656C6C20766F64
:100CC0006C74616765007A65696765204D4B2053D8
:100CD000657474696E670073686F77206D6B20733D
:100CE000657474696E67004E61766920446174654D
:100CF0006E20616E20535632004E61766920646129
:100D0000746120746F2053563200466F6C6C6F779D
:100D10004D6520536574757000466F6C6C6F774D30
:100D20006520537065656400546F6C6572616E7AFE
:100D30002052616469757300546F6C6572616E63F3
:100D40006520526164697573004750532D4D61757C
:100D50007320446174656E004750532D6D6F757339
:100D600065206461746100302E31206D2F73007333
:100D700075636865204750532D4D61757300736529
:100D800061726368204750532D6D6F75736500471E
:100D90006572E474656C6973746500646576696393
:100DA000656C69737400616B7475656C6C65204D5E
:100DB000617573006163742E204750532D6D6F75FC
:100DC00073650042544D2D32323220436F6E666996
:100DD000670000456E64206F6620436F6E6669672A
:100DE000004D6F64756C2065696E6765626175742E
:100DF000006D6F64756C65206275696C7420696E36
:100E0000004254204E616D65004254206E616D6554
:100E10000042542050696E0042542070696E0052A6
:100E2000452D4944204E6F74697A00496E69746992
:100E3000616C6973696572656E00696E6974696178
:100E40006C697A65004B6F6E6669672E206D6974F8
:100E500020504300636F6E6669672E20776974685F
:100E6000205043007A65696765204254204B6F6EBD
:100E70006669670073686F7720425420636F6E66FF
:100E80006967007A65696765204254204D414300D7
:100E900073686F77204254204D41430042544D2DDA
:100EA000323232204D41430056657262696E64757C
:100EB0006E67204D4B00636F6E6E656374696F6E75
:100EC000204D4B0042617564726174652057693230
:100ED00033322F4254005374616E646172643A205D
:100EE0002120353736303020210054582F525820D9
:100EF0004B616E616C0054582F5258204368616EEC
:100F00006E656C004E6574572E2047727570706563
:100F1000004E6574572E2047726F7570005A6569D0
:100F2000747A6F6E65205554430074696D65207A3C
:100F30006F6E652055544300536F6D6D65727A6511
:100F400069740073756D6D65722074696D6500500C
:100F50004B5420617573206E61636800504B5420C0
:100F60006F6666206166746572004C43442061754B
:100F700073206E616368004C4344206F6666206195
:100F800066746572004C4344204B6F6E74726173DB
:100F900074004C434420636F6E7472617374004834
:100FA00061726477617265204265657065720041A7
:100FB0006B6B752054797000416363752074797090
:100FC0006500416B6B75204D657373756E670041ED
:100FD000636375206D656173757265002B31203D0B
:100FE000204265726C696E2020002D35203D204E18
:100FF000657720596F726B00504B5420416C6C67C1
:10100000656D65696E00504B542067656E65726151
:101010006C004F534420416E7A65696765004F53F9
:101020004420646973706C6179004F5344205363AA
:101030007265656E73004F53442073637265656E0D
:10104000730057692E32333200426C7565746F6FCE
:10105000746800426C7565746F6F746820424C450B
:1010600000574C414E205769466C79004750532039
:101070004D61757300475053206D6F757365004661
:101080006F6C6C6F77204D6500547261636B696E95
:1010900067004A6F79737469636B00504B54205535
:1010A000706461746500504B542052657365740020
:1010B0001A001B0025313953002531397300504B7C
:1010C000542076255300332E3834610025323053B6
:1010D0000025323073002553002573004F4B00501C
:1010E0004B54205570646174650020504B54207639
:1010F00025385320257300332E38346100202553C2
:10110000205356322D506174636800002843292013
:10111000474E552047504C204C6963656E736500FF
:10112000202020204E4F2057415252414E5459000A
:1011300000204D6F64756C657320696E7374616C0B
:101140006C656400253135532025345300426C759D
:1011500065746F6F746800574C414E205779466C28
:1011600079004D4B2053657474696E6773004D4B65
:101170002044656275672044617461004D4B2044D2
:101180006973706C6179004F53442D446174610040
:101190004F5344204F6C642053637265656E730037
:1011A0004F5344204E617669676174696F6E004FDA
:1011B000534420576179706F696E7473004F5344C4
:1011C00020456C656374726963004F5344204D4B36
:1011D000537461747573004F53442055736572479F
:1011E0005053004F53442033442D4C616765004FEA
:1011F0005344205374617469737469630054726159
:10120000636B696E6700466F6C6C6F77204D65008D
:101210004A6F79737469636B00493243204D6F7470
:101220006F727465737400536F756E6400466F6EF1
:10123000742042696700002043726564697473001A
:1012400032303133204F6C697665722047656D65A9
:1012500073690032303132204368722E204272614D
:101260006E64746E657200202020202048617261D7
:101270006C6420426F6E676172747A003230313272
:10128000204D617274696E2052756E6B656C003210
:101290003031322067656261640032303130205372
:1012A000656261737469616E20426F65686D0032BA
:1012B0003030392D32303130205065746572204D18
:1012C00061636B00323030382054686F6D61732079
:1012D0004B616973657200BB14BE14C114C414C79A
:1012E00014CA14CD14D0140E0F0E4E0E0F0E4F0E46
:1012F0000F0E530E0F0E570E0F0E4E0E0F0E4F0EFB
:101300000F0E530E0F0E570E0F0E4E0E0F0E4F0EEA
:101310000F0E530E0F0E57D314DC14EE14021516D5
:10132000152A153F15511560157015841591159ED8
:1013300015AA15B615C215CB15DB15E215ED15F975
:1013400015081611161E162C163A1649165416674D
:1013500016751682168D16A116AD16BD16CC16CDB5
:1013600016CE16CF16D016D116414800504800436D
:1013700046004348006F31006F3200424100434154
:10138000005354004D5200465900454C004653004E
:101390004750005321005455005444004652005217
:1013A0004C00534C005452004D430048F668650011
:1013B0006D0053007600560056006D4168004100F4
:1013C0006D004B6D6800486F6D65006D202D00202D
:1013D000200050430020536174005A69656C006D11
:1013E000202D006D7300575000206D4100416C743A
:1013F0003A004469723A002020493A00206B6D6837
:1014000000416C743A00486F6D653A006D00416CA4
:101410003A00486F3A006D0057503A002532642F69
:10142000253264002532640044693A006D00554756
:101430005053006D006D4168006D416800410073BC
:10144000006B6D680020202030006D4168006D61E8
:101450007820424C2020437572723A006D617820EA
:10146000424C202054656D703A000B430018202038
:101470002020190057503A2532642F25326400503D
:101480004B54204F5344004D4B2053657474696E88
:1014900067002A2A204D4B2D255320253032642009
:1014A0002A2A00253032643A20255300446973709B
:1014B000005547707300496E666F004E4500452029
:1014C000005345005320005357005720004E57004B
:1014D0004E20004E6F204572726F72004643206EA0
:1014E0006F7420636F6D70617469626C65004D4B41
:1014F000334D6167206E6F7420636F6D7061746926
:101500002E006E6F20464320636F6D6D756E6963AC
:101510006174696F6E006E6F204D4B334D616720B3
:10152000636F6D6D756E69632E006E6F204750534B
:1015300020636F6D6D756E69636174696F6E0062B3
:10154000616420636F6D706173732076616C756583
:10155000005243205369676E616C206C6F73740096
:10156000464320737069207278206572726F720032
:101570006E6F204E4320636F6D6D756E696361748D
:10158000696F6E004643204E69636B204779726F26
:1015900000464320526F6C6C204779726F004643BF
:1015A00020596177204779726F004643204E696366
:1015B0006B2041434300464320526F6C6C204143F3
:1015C00043004643205A2D414343005072657373D4
:1015D0007572652073656E736F72004643204932E1
:1015E0004300426C204D697373696E67004D6978E2
:1015F0006572204572726F72004361726566726532
:1016000065204572726F7200475053206C6F73747F
:10161000004D61676E6574204572726F72004D6F88
:10162000746F72207265737461727400424C204C46
:10163000696D69746174696F6E00576179706F6963
:101640006E742072616E6765004E6F2053442D43A7
:10165000617264005344204C6F6767696E67206154
:10166000626F7274656400466C79696E672072619E
:101670006E676521004D617820416C7469747564F2
:1016800065004E6F204750532046697800636F6DA8
:1016900070617373206E6F742063616C6962722E67
:1016A00000424C2073656C6674657374006E6F2025
:1016B0006578742E20636F6D7061737300636F6D56
:1016C000706173732073656E736F720000000000A9
:1016D00000504B54205258206C6F7374002020200F
:1016E00020206E6F20646174612E2E2E004265678B
:1016F000696E3A20253032753A2530327520202522
:101700003032752E253032752E00456E643A202019
:1017100020253032753A253032752020253032753B
:101720002E253032752E00204F53442044617461C1
:1017300000204C61737420466C792020253032756E
:101740003A25303275206D696E002563416C7469ED
:1017500074756465253764206D002563446973746E
:10176000616E6365253775206D00256347726E6471
:101770002E537065656425332E3164206B6D6800CF
:101780002563566572742E537065656425332E315A
:1017900064206B6D68002043617061636974792512
:1017A0003764206D416800256343757272656E74FD
:1017B00025362E3164204100256343757272656EB3
:1017C0007425362E31642041002563424C25316456
:1017D00020437572722E25342E3175204100256309
:1017E000424C2531642054656D702E2025357520BE
:1017F000256343002563566F6C7461676525362E3B
:101800003164205600256352432D5175616C697413
:101810007925356400256352432D5175616C6974D7
:10182000792535640025634E69636B253131642069
:1018300025630025634E69636B2531316420256380
:10184000002563526F6C6C253131642025630025BF
:1018500063526F6C6C253131642025630020424C4B
:10186000204461746100256343757272656E74254E
:10187000362E3164204100256343757272656E74A3
:1018800025362E31642041002563424C25316420E9
:1018900043757272656E7425322E317520410025B4
:1018A00063424C2531642054656D702E20253575BA
:1018B000202563430020424C20446174610025319F
:1018C000643A256343757272656E7425342E3175E2
:1018D0002041002020256343757272656E742534A3
:1018E0002E31752041002020256354656D702E2512
:1018F0003875202563430020475053205573657287
:101900006461746100253032752E253032752E25C4
:101910003034752020253032753A253032753A251D
:1019200030327500253764206D4725352E3164200F
:101930006D420025332E366C6425332E366C6400E0
:10194000204D4B204572726F727300253032753A0C
:10195000253032753A253032752020253032752EEB
:10196000253032752E253034750020436F64652094
:101970002530327500253230530044656C004F53DA
:10198000442053746174697374696B004F5344202D
:101990007374617469737469637300424C202053DB
:1019A000746174697374696B00424C2020737461B4
:1019B00074697374696373004D4B20204665686CCD
:1019C0006572004D4B20206572726F727300475034
:1019D000532055736572646174656E0047505320DF
:1019E000757365726461746100475053206C65744F
:1019F0007A746520506F732E00475053206C6173CA
:101A00007420706F732E004CD65343484520616C90
:101A10006C6520446174656E0044454C4554452016
:101A2000616C6C20646174610020424C2D437472BF
:101A30006C20546573742020202020202020004D2D
:101A40006F746F723A202020310056616C75653AD0
:101A500020202030001A201B001D00416C6C001D4E
:101A600000200020001D00AC98A75B2300005D2330
:101A70006123AD98A75B2300006A236A23AA98A775
:101A80005B2300006F236F23AB98A75B23000074D8
:101A9000237423AE98A77923000081238123AF9874
:101AA000A77923000088238823B098A77923000012
:101AB0008F238F23B198A77923000096239623B212
:101AC00098A7792300009D239D23B398A77923002D
:101AD00000A423A423B498A779230000AB23AB234D
:101AE000B598A779230000B223B2235A98A7B92347
:101AF0000000BF23D523DF98A7E9230000EC23ECE7
:101B000023CB98A7E9230000FB231124E298A7E93F
:101B100023000027243524E698A7E92300003F246A
:101B20004D24EB98A7E92300005C245C24E998A7E6
:101B3000E923000066247424EA98A7E923000082C0
:101B4000248E24EC98A7E92300009A24AC24ED9875
:101B5000A7E9230000BB24CF24E898A7E9230000CD
:101B6000E224E2240D98A7EF240014F124F1240EBE
:101B700098A7EF240014FD24FD240F98A709250041
:101B8000F70C250C255798A7092500F713252225C2
:101B9000D298A7E92300002F253C25D398A7E92355
:101BA000000047255525D498A7E923000062257039
:101BB00025D598A7E92300007D258C253198A70914
:101BC0002500F79A25AC253298A7EF2400F7C02509
:101BD000D1253398A7EF2400F7E425EE253798A701
:101BE000EF2400F7F9250A263898A7EF2400F71804
:101BF000262926E698A7E92300003F244D24C8980B
:101C0000A7E923000037264726C998A7E923000043
:101C100059266426E798A7E923000071267F26CA83
:101C200098A7E92300008D268D260698A79A2600FE
:101C300000A126AF260498A7EF2400F7BE26C726EA
:101C40000798A7092500F7D526DC260598A70925BA
:101C500000F7E726F3260998A7092500F7002700D3
:101C6000275E98A7092500F706271C270898A7EFE5
:101C70002400F7322741270A98A7EF2400F74B27C3
:101C800057270B98A7092500F7672767277698A796
:101C9000092500F76D276D270C98A7EF2400A07F7A
:101CA0002791276298A7A3270000A727BC2763983E
:101CB000A7EF2400F7D227D2277768A3E8270000F0
:101CC000EA27EA272398A7092500F7FE270F2824EB
:101CD00098A7092500F71F283128EE98A7EF2400C0
:101CE000F742285528E398A7E923000069287828B7
:101CF000BE98A7E92300008E289C28C098A7E92356
:101D00000000B028BD282598A7EF2400F7CA28CAEC
:101D1000282698A7EF2400F7DD28DD286098A7EF94
:101D2000240019F028FC282798A7092500F708297E
:101D300019292898A7092500F72A293C29EF98A7EF
:101D4000EF2400F74E296129BF98A7E92300007509
:101D50002983292998A7EF2400F7972997292A98FA
:101D6000A7EF2400F7A429A4296198A7EF2400195C
:101D7000B129BD292B98A7EF240208C929DF292CF6
:101D800098A7EF2400F7ED29042A2E98A7122A001D
:101D9000F5162A162AF098A7EF2400F71E2A342AEF
:101DA0002F98A7122A00F54B2A4B2AF198A7EF2467
:101DB00000F7532A692A3098A7092500F7802A805E
:101DC0002AF298A7EF2400F7882A9E2A7098A7EF96
:101DD0002400F7B52AB52A7198A7EF2400F7CB2A7B
:101DE000CB2A7298A7EF2400F7E12AE12A7398A77B
:101DF000EF2400F7F72AF72AEB98A7E92300005C05
:101E0000245C244798A70D2B0000152B292B4898FC
:101E1000A7092500F73A2B502B5198A7EF2400F77C
:101E2000662B792B5098A7EF2400F78D2B9D2B491B
:101E300098A7092500F7AE2BAE2B4A98A7092500D5
:101E4000F7B42BB42B4B98A7092500F7BA2BBA2B64
:101E50004C98A7092500F7C02BC02B4D98A7092542
:101E600000F7CC2BCC2B4E98A7092500F7D82BD800
:101E70002B4F98A7092500F7E42BE42B5298A709CC
:101E80002500F7EC2B022C5398A7092500F7182CF6
:101E9000292C7498A7EF2400FA3A2C502C5498A7B8
:101EA000092500F7662C722C5598A7092500F77EA6
:101EB0002C8B2C5698A7EF2400F7972CAD2CCE989E
:101EC000A7E9230000C32CC32CDD98A7E923000059
:101ED000CE2CCE2C5C98A7EF2400F7DD2CF32CF44D
:101EE00098A7092D00030E2D1D2D6F98A709250019
:101EF000F72C2D2C2D7598A7EF2400FA422D422D9A
:101F00004006A500000000582D672D4198A709251F
:101F100000F7752D752DD698A7E92300008B2D9D10
:101F20002DD798A7E9230000B02DBD2DE198A7E992
:101F3000230000CF2DE42D4698A7092500F7FA2DA0
:101F4000FA2D6D98A7092500F7FA2DFA2D6E98A79E
:101F5000092500F7102E102E4206A50000000026CD
:101F60002E352E4398A7092500F7432E432ED998E6
:101F7000A7E92300008B2D9D2DD898A7E923000009
:101F8000B02DBD2D4406A500000000592E682E4539
:101F900006A5000000007C2E8B2E1098A7EF2400D1
:101FA000F79F2EA82E1198A7EF2400F7B62EBF2E6C
:101FB0001398A7092500F7CD2EDC2E6426A4000077
:101FC0000000EB2EEB2EF398A7E9230000012F0170
:101FD0002F5998A79A260000142F272FCF98A7E9EA
:101FE000230000382F382F1A98A7EF2400F7452F29
:101FF0005B2F6698A7EF2400F7712F712F6598A7C4
:10200000EF2400F7872F872F1C98A7EF2400F79D58
:102010002FB32FDE98A7E9230000C92FDC2F1B98D0
:10202000A7EF2400F7EF2FF72F5D98A7EF2400F715
:1020300006301C305F98A7EF24001032304830CDB6
:1020400098A7E92300005E307030D098A7E92300FC
:102050000083309930DC98A7E9230000AE30C1300E
:10206000E098A7E9230000D630E8301498A70925A6
:1020700000F7FD30FD301798A7092500F70C250C57
:10208000251598A7092500F7043104311898A709E8
:102090002500F70B310B311698A7092500F71231EF
:1020A00012313B98A7092500F719312F31ED98A778
:1020B000E9230000BB24CF241298A7EF2400F740A7
:1020C0003140313998A7EF2400F7503166311E981E
:1020D000A7092500F77C318A313A98A7EF2400F749
:1020E0009131A4311998A7EF2400F7B731B7315BCC
:1020F00098A7EF2400F7C231D1311F98A709250016
:10210000F7DE31DE312098A7092500F7EA31EA3100
:102110002198A7092500F7F631F6312298A709255D
:1021200000F7023202323C98A7092500F70E320E62
:10213000323D98A7092500F71A321A323E98A709AE
:102140002500F7263226323F98A7092500F73232BC
:102150003232EC98A7E92300009A24AC243498A7E3
:10216000092500F73E3251323598A7092500F7645A
:102170003277323698A7092500F78A329932FF0064
:1021800000000000000000000045253032750020EE
:102190004552524F5220006D6B706172616D6574D3
:1021A0006572732E6300436F6465203A20452530C5
:1021B00032750056616C75653A2025337500C46E22
:1021C0006465726E003E202531387300253033750A
:1021D00000C46E6465726E00302F312020201920FB
:1021E000202020202020202020204F4B00180028D5
:1021F000426974313D49646C65290012003D202517
:102200003033750025336400C46E6465726E003E21
:10221000202533640025346400C46E6465726E004A
:102220003E20253464004E4121006E6963687420AD
:1022300076657266FC6762617200255300666F7294
:102240006D61743A2025730076616C75653A257569
:1022500000767374723A20257300767374723A2094
:1022600025730021204552524F52202100466176AD
:102270006F726974656E004661766F72697465731A
:10228000004B616EE46C65004368616E6E656C00C6
:102290004B6F6E66696775726174696F6E00436F2C
:1022A0006E66696775726174696F6E0053746963F5
:1022B0006B004C6F6F70696E670048F6686500418F
:1022C0006C746974756465004B616D65726100437F
:1022D000616D657261004E6176692D4374726C00A8
:1022E00041757367E46E6765004F7574707574733C
:1022F00000566572736368696564656E6573004D49
:10230000697363656C6C616E656F75730047797294
:102310006F0042656E75747A657200557365720060
:10232000416368736B6F70706C756E6700436F7597
:10233000706C204178657300456173792053657432
:102340007570006E696368742076657266FC6762FA
:102350006172004E4F2052414D210043004761738E
:10236000007468726F74746C650047656172004E2A
:1023700069636B00526F6C6C0041435357554D5865
:1023800000506F7469203100506F74692032005022
:102390006F7469203300506F7469203400506F747B
:1023A00069203500506F7469203600506F746920C1
:1023B0003700506F7469203800444353574F004D25
:1023C0006F746F7220536963686572682E53636817
:1023D000616C742E006D6F746F722073616665742A
:1023E0007920737769746368003031004D6F746FC2
:1023F00072205377692E4D6F6465004572772E20E9
:10240000456D70662E5369672E5072FC66756E6757
:1024100000656E682E207265632E207369676E2ECC
:1024200020636865636B00416C6C657320416E735B
:102430006167656E00737065616B20616C6C00484C
:10244000F668656E726567656C756E6700686569CC
:1024500067687420636F6E74726F6C00475053200E
:10246000416B746976004B6F6D7061737320416BC3
:1024700074697600636F6D7061737320616B74694A
:1024800076004B6F6D706173732046697800636FDF
:102490006D706173732066697800416368732865A5
:1024A0006E74296B6F70706C756E670028446529B7
:1024B000436F75706C204178657300447265687273
:1024C0006174656E62656772656E7A756E670072BB
:1024D0006F746172792072617465206C696D6974C2
:1024E0002E0048656164696E6720486F6C640076F1
:1024F000004E69636B2F526F6C6C2050004E696305
:102500006B2F526F6C6C20440076500047696572E7
:102510002050004578742E204B6F6E74726F6C6C77
:1025200065006578742E20636F6E74726F6C004C5A
:102530006F6F70696E67204F62656E006C6F6F70B1
:10254000696E67207570004C6F6F70696E672055FB
:102550006E74656E006C6F6F70696E6720646F7764
:102560006E004C6F6F70696E67204C696E6B730004
:102570006C6F6F70696E67206C656674004C6F6F6E
:1025800070696E6720526563687473006C6F6F705A
:10259000696E67207269676874004C6F6F70696E4E
:1025A0006720476173204C696D6974006C6F6F70B0
:1025B000207468726F74746C65206C696D69740046
:1025C000416E73707265636873636877656C6C6580
:1025D00000726573706F6E736520746872657368DE
:1025E0006F6C64004879737465726573650068790F
:1025F0007374657265736973004E69636B20556D02
:102600006B65687270756E6B74006E69636B2074B5
:1026100075726E6F76657200526F6C6C20556D6BC3
:1026200065687270756E6B7400726F6C6C20747577
:10263000726E6F7665720048F668656E62656772E5
:10264000656E7A756E6700686569677468206C6985
:102650006D69746174696F6E00566172696F2D489F
:10266000F6686500766172696F20686569677468ED
:1026700000536368616C7465722048F66865006891
:1026800065696768742073776974636800616B7546
:1026900073742E20566172696F00444353574F4E36
:1026A0000048F6686520536F6C6C7765727400683B
:1026B0006967687420736574706F696E74004D6922
:1026C0006E2E20476173006D696E2E207468726FE4
:1026D00074746C650048F66865205000616C74691C
:1026E000747564652050004C756674647275636B14
:1026F0002044006261726F6D6574726963204400EA
:102700005A2D414343004D61782E2048F6686520DC
:1027100020202020202020205B6D5D006D61782E20
:1027200020616C74697475646520202020205B6DC5
:102730005D005665727374E4726B2E2F526174657E
:10274000006761696E207261746500536368776524
:1027500062652D47617300686F6F766572207468DB
:10276000726F74746C6500475053205A0054696C42
:102770007420436F6D70656E736174696F6E005382
:102780007469636B204E657574722E50756E6B7430
:1027900000737469636B206E657574722E706F6957
:1027A0006E7400444353004175746F20537461721A
:1027B000744C616E64204B616E616C006175746F66
:1027C0002073746172742F6C616E64206368616E33
:1027D0002E004C616E64696E6720537065656420DD
:1027E00020302E316D2F73004400414343205A2086
:1027F0004C616E64696E672050756C7365004E693C
:10280000636B20416E737465756572756E67006EDB
:1028100069636B20736572766F206374726C004E0F
:1028200069636B204B6F6D70656E736174696F6E59
:10283000006E69636B20736572766F20636F6D70D5
:102840002E004E69636B204661696C73617665206A
:1028500057657274006E69636B206661696C7361A1
:1028600076652076616C7565004E69636B204B6FF1
:102870006D702E20417573006E69636B20636F6D00
:1028800070656E736174696F6E206F6666004E6965
:10289000636B20556D6B656872656E006E69636B66
:1028A00020696E762E20646972656374696F6E00AC
:1028B0004E69636B2052656C61746976006E696362
:1028C0006B2072656C61746976004E69636B20538E
:1028D0006572766F204D696E696D756D004E696326
:1028E0006B20536572766F204D6178696D756D0050
:1028F0004E69636B2046696C746572006E69636B28
:102900002066696C74657200526F6C6C20416E7346
:102910007465756572756E6700726F6C6C20736597
:1029200072766F206374726C2E00526F6C6C204B49
:102930006F6D70656E736174696F6E00726F6C6C31
:1029400020636F6D70656E736174696F6E00526F96
:102950006C6C204661696C73617665205765727492
:1029600000726F6C6C206661696C736176652076AD
:10297000616C756500526F6C6C20556D6B6568728B
:10298000656E00526F6C6C20696E762E20646972E1
:10299000656374696F6E00526F6C6C204D696E696F
:1029A0006D756D00526F6C6C204D6178696D756D41
:1029B00000526F6C6C2046696C74657200726F6CAB
:1029C0006C2066696C74657200416E73742E2047CA
:1029D0006573636877696E6469676B6569740073B2
:1029E0006572766F2072656672657368004D616E00
:1029F000752E20476573636877696E6469676B65D8
:102A000069742E006D616E75656C6C205370656520
:102A1000640076545000536572766F20330053651E
:102A200072766F2033204661696C7361766520573A
:102A300065727400536572766F2033206661696C2D
:102A4000736176652076616C756500536572766F8B
:102A5000203400536572766F2034204661696C73B0
:102A6000617665205765727400536572766F203405
:102A7000206661696C736176652076616C756500AE
:102A8000536572766F203500536572766F2035205E
:102A90004661696C73617665205765727400536591
:102AA00072766F2035206661696C73617665207679
:102AB000616C756500536572766F2033204F6E2010
:102AC000202020204F7574312F3200536572766FAD
:102AD0002033204F6666202020204F7574312F321E
:102AE00000536572766F2034204F6E202020202006
:102AF0004F7574312F3200536572766F2034204F3A
:102B00006666202020204F7574312F3200444353D5
:102B10005746485100475053204D6F6475732053FA
:102B20007465756572756E6700475053206D6F64EC
:102B30006520636F6E74726F6C004750532056654A
:102B4000727374E4726B756E672020205B255D00E4
:102B5000475053206761696E2020202020202020CC
:102B600020205B255D0047505320537469636B2D13
:102B700053636877656C6C650047505320737469C4
:102B8000636B207468726573686F6C64004D696E66
:102B90002E20536174656C6C6974656E006D696E8E
:102BA000696D756D20736174656C6974650047505B
:102BB000532D50004750532D49004750532D44008A
:102BC0004750532D50204C696D6974004750532D68
:102BD00049204C696D6974004750532D44204C695D
:102BE0006D69740047505320416363004750532080
:102BF00057696E646B6F7272656B747572205B25BA
:102C00005D004750532077696E6420636F72726570
:102C100063742E205B255D00414343204B6F6D7034
:102C2000656E736174696F6E0041434320636F6D1D
:102C300070656E736174696F6E004D61782E204609
:102C40006C7567726164697573205B31306D5D000E
:102C50004D61782E20466C696768747261642E201D
:102C60005B31306D5D006D61782E20526164697555
:102C700073006D61782E2072616469757300576905
:102C80006E6B656C204C696D697400616E676C6574
:102C9000206C696D6974005048204C6F67696E2024
:102CA0005A65697420202020205B735D0050482005
:102CB0006C6F67696E2074696D6520202020205B31
:102CC000735D0044796E616D6963205048004D6109
:102CD000782E5261646975732064504800436F6DAB
:102CE0002E486F6D652048F6686520202020205B07
:102CF0006D5D00636F6D696E6720686F6D65206143
:102D00006C74692E205B6D5D004B56524700434842
:102D1000204175737269636874756E67004348205B
:102D20006F7269656E746174696F6E0053696E6766
:102D30006C65575020537065656420302E316D2FBF
:102D400073004661696C2053696E6B5261646975EA
:102D500073205B31306D5D004F7574313A204269EC
:102D6000746D61736B65004F7574313A20626974DC
:102D70006D61736B004F7574313A2054696D696EE3
:102D8000672020205B31306D735D006E7572207797
:102D9000656E6E204D6F746F7220416E006F6E6CA9
:102DA000792077697468206D6F746F72206F6E0080
:102DB000201920736F666F727420616E00201920D5
:102DC000696D6D6564696174656C79206F6E006D05
:102DD00069742057502D4576656E74202076657293
:102DE0006B6E2E00636F6D62696E65207769746823
:102DF0002057502D4576656E74004175746F2054D0
:102E000072696767657220446973742E5B6D5D003B
:102E10004175746F205472696767657220416C74E4
:102E20002E205B6D5D004F7574323A204269746DDF
:102E300061736B65004F7574323A206269746D611D
:102E4000736B004F7574323A2054696D696E672058
:102E500020205B31306D735D004F757431205761F8
:102E6000726E2055426174004F75743120756E6426
:102E70006572766F6C74207761726E004F75743274
:102E8000205761726E2055426174004F7574322074
:102E9000756E646572766F6C74207761726E004D2A
:102EA000696E2E20476173006D696E2E2074687202
:102EB0006F74746C65004D61782E20476173006DEE
:102EC00061782E207468726F74746C65004B6F6D3E
:102ED000706173737769726B756E6700636F6D7085
:102EE0006173732065666665637400436F6D70611E
:102EF0007373204F6666736574202020205B0B5D22
:102F00000044697361626C65204465636C2E2043E4
:102F1000616C630043617265467265652053746538
:102F2000756572756E6700636172654672656520CE
:102F3000636F6E74726F6C00546561636861626C7C
:102F40006520434600556E7465727370616E6E75D0
:102F50006E6720205B302E31565D00756E646572A1
:102F6000766F6C746167652020205B302E31565D72
:102F700000436F6D696E6720482E20566F6C742079
:102F80005B302E31565D004175746F6C616E642E3E
:102F900020566F6C74205B302E31565D004E4F54BE
:102FA0002D476173205A6569742020205B302E31D3
:102FB000735D00456D6572672E5468726F2E54699B
:102FC0006D655B302E31735D004E4F542D4761733C
:102FD00020566172696F2048F6686500456D65721C
:102FE000672E7468722E766172696F20682E004EAB
:102FF0004F542D47617300456D6572672E5468729A
:103000006F74746C65004661696C732E20434820B0
:103010005A656974202020205B735D006661696CCD
:10302000732E2043482074696D65202020205B7337
:103030005D004661696C732E204368616E6E656C3D
:103040002020303D417573006661696C732E2063EA
:1030500068616E6E656C2020303D6F6666006B2E79
:1030600053756D6D6572206F2E53656E64657200C9
:103070006E6F206265657020776974686F75742063
:103080005458004B6F6D70617373204665686C65B2
:10309000722069676E6F722E0069676E6F726520AD
:1030A000636F6D70617373206572726F72006B2E47
:1030B0005374617274206F2E53442D4B617274658A
:1030C000006E6F20737461727420772F6F205344E9
:1030D0002D63617264006B2E5374617274206F2EC5
:1030E00047505320466978006E6F20737461727484
:1030F00020772F6F20475053204669780047797218
:103100006F2050004779726F20490047696572202F
:1031100049004779726F20440044796E616D69738C
:103120006368652053746162696C6974E474006457
:10313000796E616D69632073746162696C6979008D
:103140004143432F4779726F2046616B746F720061
:103150004143432F4779726F204B6F6D702E2020B3
:103160005B312F785D004143432F4779726F2043D5
:103170006F6D702E20205B312F785D004861757077
:10318000747265676C65722049006D61696E2049D3
:103190000044726966742D4B6F6D70656E73617457
:1031A000696F6E00647269667420636F6D70656E1E
:1031B000736174696F6E004779726F207374616216
:1031C0002E004D6F746F7220476CE47474756E67D7
:1031D000006D6F746F7220736D6F6F746800506153
:1031E00072616D65746572203100506172616D6548
:1031F000746572203200506172616D657465722071
:103200003300506172616D657465722034005061E5
:1032100072616D65746572203500506172616D6513
:10322000746572203600506172616D65746572203C
:103230003700506172616D657465722038004769AE
:10324000657220706F732E204B6F70706C756E6797
:10325000006769657220706F732E20636F75706CE4
:10326000696E67004E69636B2F526F6C6C204B6FF9
:1032700070706C756E67006E69636B2F726F6C6C2B
:1032800020636F75706C696E670047696572204BCB
:103290006F7272656B747572006769657220636F17
:1032A0007272656374696F6E002533750020204E5D
:1032B000004E65696E004E6F0020204A00202059A4
:1032C000004A6100596573002050257500506F74E5
:1032D000692025750043253275004B616E616C20B5
:1032E0002575004368616E6E656C20257500532559
:1032F0003275005365722E204B616E616C2025750E
:10330000005365722E204368616E6E656C202575D2
:1033100000417573004F6666005750450057502DA9
:103320004576656E74004D696E004D696E696D7508
:103330006D004D6964004D69747465004D69646485
:103340006C65004D6178004D6178696D756D002088
:10335000416E00204F6E0046726500467265650042
:1033600020434800436F6D696E6720486F6D65208C
:10337000284348290020504800506F736974696FD2
:103380006E20486F6C6420285048290044697300FF
:1033900044697361626C6564004F75253175004F37
:1033A000757420253175006BC46E006E4368004B48
:1033B00065696E6520C46E646572756E67006E6FB8
:1033C000206368616E676500467A4800467448006D
:1033D00046726F6E74207A7520486F6D6500667254
:1033E0006F6E7420746F20686F6D6500487A4800B6
:1033F000527448004865636B207A7520486F6D658C
:10340000007265617220746F20686F6D650077537C
:103410007400734F7200776965206265696D20538F
:10342000746172740073616D6520617320737461DF
:103430007274004E4F2052414D21002531357300EA
:10344000BE6801010000BF6801020000C0680104FD
:103450000000C86901010000C96902010000CA69D1
:1034600001020000CB6901040000CC6901080000E2
:10347000CD6901100000CE6901200000CF69014034
:103480000000D06901800000D26701010000D3670D
:1034900001020000D46701040000D56701080000A4
:1034A000D66701100000D76701200065D86701408A
:1034B0000065D96701800000DC6A01010000DD6A57
:1034C00001020064DE6A01040000DF6A01080000F6
:1034D000E06A01100000E16A01200000E26A014098
:1034E0000000E36A01806000E60301010000E703D9
:1034F00001020000E80301040000E90301080000E4
:10350000EA0301100000EB0301200000EC0301407E
:103510000000ED0301800000AA0203000000AB02DE
:1035200003010000AC0203020000AD02030300002F
:10353000AE0203040000AF0203050000B002030660
:103540000000B10203070000B20203080000B3024A
:1035500003090000B402030A0000B502030B0000D7
:10356000F36403000000F46803000000EE78030039
:103570000000EF7803010000F07803020000F1780A
:1035800003030000F27803040000FF0000000000C5
:103590000101020C030104010501060107010801F4
:1035A00009010A0176010C010D010E010F01100144
:1035B000110112011301140115011601170118015F
:1035C00019011A011B011C011D011E011F0120010F
:1035D00021012201230124012501260127012801BF
:1035E00029012A012B012C012D012E012F0130016F
:1035F000310132013301340135013601370138011F
:1036000039013A013B013C013D013E013F014001CE
:10361000410142014301440145016D014701480157
:1036200049014A014B014C014D014E014F0150012E
:1036300051015201530174015501560175015701A1
:10364000580159015A015B015C015D015E015F0196
:1036500060016101700171017201730178056201FD
:1036600063016401650166016E016F017701670105
:10367000680169016A016B0C6C01FF000101020C19
:1036800003010401050106010701080109010A01FE
:1036900076010C010D010E010F0110011101120143
:1036A00013011401150116011701180119011A015E
:1036B0001B011C011D011E011F012001210122010E
:1036C00023012401250126012701280129012A01BE
:1036D0002B012C012D012E012F013001310132016E
:1036E00033013401350136013701380139013A011E
:1036F0003B013C013D013E013F01400141014201CE
:103700004301440145016D014701480149014A0156
:103710004B014C014D014E014F015001510152012D
:1037200053017401550156017501570158015901A2
:103730005A015B015C015D015E015F016001610195
:10374000700171017201730162016301640165011D
:1037500066016E016F0177016701680169016A0105
:103760006B0C6C01FF000101020C03010401050157
:1037700006010701080109010A0176010C010D018A
:103780000E010F01100111011201130114011501A5
:1037900016011701180119011A011B011C011D0155
:1037A0001E011F0120012101220123012401250105
:1037B00026012701280129012A012B012C012D01B5
:1037C0002E012F0130013101320133013401350165
:1037D00036013701380139013A013B013C013D0115
:1037E0003E013F01400141014201430144014501C5
:1037F0006D014701480149014A014B014C014D014E
:103800004E014F0150015101520153017401550104
:10381000560175015701580159015A015B015C01BC
:103820005D015E015F016001610170017101720162
:103830007301620163016401650166016E016F013C
:103840006701680169016A016B0C6C01FF000101ED
:10385000020C030104010501060107010801090129
:103860000A010B010C010D010E010F0110011101E4
:103870001201130114011501160117011801190194
:103880001A011B011C011D011E011F012001210144
:1038900022012301240125012601270128012901F4
:1038A0002A012B012C012D012E012F0130013101A4
:1038B0003201330134013501360137013801390154
:1038C0003A013B013C013D013E013F014001410104
:1038D00042014301440145016D014701480149018D
:1038E0004A014B014C014D014E014F015001510164
:1038F00052015301740155015601750157015801D8
:1039000059015A015B015C015D015E015F016001CB
:10391000610170017101720173016201630164014F
:10392000650166016E016F016701680169016A0145
:103930006B0C6C01FF00FE7B6B0CFE01FF000101B4
:10394000020C030104010501060107010801090138
:103950000A010B010C010D010E010F0110011101F3
:1039600012011301140115011601170118011901A3
:103970001A011B011C011D011E011F012001210153
:103980002201230124012501260127012801290103
:103990002A012B012C012D012E012F0130013101B3
:1039A0003201330134013501360137013801390163
:1039B0003A013B013C013D013E013F014001410113
:1039C00042014301440145016D014701480149019C
:1039D0004A014B014C014D014E014F015001510173
:1039E0005201530154015501560157015801590123
:1039F0005A015B015C015D015E015F0160016101D3
:103A0000620163016401650166016E016F01670176
:103A1000680169016A016B0C6C01FF000101020C75
:103A200003010401050106010701080109010A015A
:103A30000B010C010D010E010F011001110112010A
:103A400013011401150116011701180119011A01BA
:103A50001B011C011D011E011F012001210122016A
:103A600023012401250126012701280129012A011A
:103A70002B012C012D012E012F01300131013201CA
:103A800033013401350136013701380139013A017A
:103A90003B013C013D013E013F014001410142012A
:103AA00043014401450146014701480149014A01DA
:103AB0004B014C014D014E014F015001510152018A
:103AC00053015401550156015701580159015A013A
:103AD0005B015C015D015E015F01600161016201EA
:103AE00063016401650166016701680169016A019A
:103AF0006B0C6C01FF000101020C030104010501C4
:103B000006010701080109010A010B010C010D0161
:103B10000E010F0110011101120113011401150111
:103B200016011701180119011A011B011C011D01C1
:103B30001E011F0120012101220123012401250171
:103B400026012701280129012A012B012C012D0121
:103B50002E012F01300131013201330134013501D1
:103B600036013701380139013A013B013C013D0181
:103B70003E013F0140014101420143014401450131
:103B800046014701480149014A014B014C014D01E1
:103B90004E014F0150015101520153015401550191
:103BA00056015701580159015A015B015C015D0141
:103BB0005E015F01600161016201630164016501F1
:103BC0006701680169016A016B0C6C01FF0001016A
:103BD000020C0301040105010601070108010901A6
:103BE0000A010B010C010D010E010F011001110161
:103BF0001201130114011501160117011801190111
:103C00001A011B011C011D011E011F0120012101C0
:103C10002201230124012501260127012801290170
:103C20002A012B012C012D012E012F013001310120
:103C300032013301340135013601370138013901D0
:103C40003A013B013C013D013E013F014001410180
:103C50004201430144014501460147014801490130
:103C60004A014B014C014D014E014F0150015101E0
:103C70005201530154015501560157015801590190
:103C80005A015B015C015D015E015F016001610140
:103C9000620163016701680169016A016B0C6C01D3
:103CA000FF00FE726B0CFE01FF00FE706B0CFE014C
:103CB000FF00FE6F6B0CFE01FF002531752E2530D5
:103CC00032752563002D2D2D2D2D002531752E25C6
:103CD0003032752563002A202553202A00257520BF
:103CE0002573002575004D4B20496E666F004643D5
:103CF0003A005265763A00253033750020526576D9
:103D00002D45525221004E433A004D4B20536574CD
:103D100074696E67005265667265736800202532AB
:103D2000532025313653004643004E43002553208F
:103D3000255320255300446973706C617900182065
:103D400020202019004E43004643004D4B20475091
:103D50005320496E666F004669783A005361743AA1
:103D600000416C743A0050444F503A00416363750F
:103D70003A00537065643A003344003244006E6F79
:103D8000002532750025322E32640025322E326C29
:103D9000646D002533646B6D4800253464000000B9
:103DA000000000007815141578002055545578004F
:103DB0003845444538003049484930003C4140418D
:103DC0003C003841402178007E1515150A00221765
:103DD0000F172200008482FF82841C141C00000044
:103DE00000070507000010385410101E180C1800AA
:103DF00000001010101010101010107C101008107F
:103E0000080000000814000014081008040408103A
:103E1000081020201008000814224100004122143C
:103E2000080004027F02040010207F2010001038D8
:103E30005410101010101054381010181C1C1810AA
:103E400008183838180800081C3E7F00007F3E1C08
:103E500008000609090906001020100804020000E5
:103E60000000000000002F00000000070007000015
:103E7000147F147F1400242A6B2A12002313086471
:103E80006200364955225000000503000000001C66
:103E9000224100000041221C000014083E081400CA
:103EA00008083E0808000050300000000808080814
:103EB00008000060600000002010080402003E516D
:103EC00049453E0000427F400000426151494600A2
:103ED0002141454B31001814127F100027454545FC
:103EE00039003C4A4949300003017109070036494D
:103EF00049493600064949291E00003636000000AF
:103F00000056360000000814224100001414141456
:103F10001400004122140800020151090600324930
:103F200079413E007E1111117E007F4949493600DA
:103F30003E41414122007F4141221C007F494949C5
:103F400041007F09090901003E4149497A007F0883
:103F500008087F0000417F4100002040413F0100F0
:103F60007F08142241007F40404040007F020C0245
:103F70007F007F0408107F003E4141413E007F09E1
:103F8000090906003E4151215E007F0919294600BA
:103F900046494949310001017F0101003F4040404D
:103FA0003F001F2040201F003F4038403F00631467
:103FB0000814630007087008070061514945430071
:103FC0007F41410000000204081020000041417FB1
:103FD0000000040201020400404040404000000193
:103FE000020400002054545478007F4844443800B0
:103FF000384444442000384444487F0038545454E2
:104000001800087E090102000C5252523E007F083F
:104010000404780000447D4000002040443D00003E
:104020007F102844000000417F4000007C041804F9
:1040300078007C08040478003844444438007C1438
:1040400014140800081414187C007C0804040800E8
:10405000485454542000043F444020003C40402039
:104060007C001C2040201C003C4038403C00442880
:10407000102844000C5050503C004464544C440000
:1040800000083641000000007F00000000413608B3
:10409000000008082A1C0800081C2A080800202024
:1040A000303132333435363738394142434445466E
:1040B0000D0A00201A202020201B2020202020452F
:1040C0007869740020202E20202E20202020002A15
:1040D0002A204F5554204F462052414D202A2A0075
:1040E000746869732066756E6374696F6E20697396
:1040F000006E6F7420617661696C61626C6521008D
:10410000010000000A00000064000000E803000055
:1041100010270000A086010040420F008096980002
:1041200000E1F50500CA9A3B5B005D004669783AFC
:10413000005361743A00416C743A0052436E743A11
:1041400000524572723A0048444F503A00203F20D6
:1041500025640020206E6F002047505300444750D4
:10416000530065737469002534530025342E31647F
:104170000025356C640020202D2D2D005556F7327A
:10418000EE1AAB0DDC066F03B801DC006E003700E1
:104190001B000E000700030002000100466F6C6C5C
:1041A0006F774D6500416C3A0044693A20253364CD
:1041B000206D0054783A25356C6400463A25316408
:1041C00000504B54003132333435363738003136F5
:1041D000392E3235342E3030312E303031003235F8
:1041E000352E3235352E3030302E303030003136ED
:1041F000392E3235342E3030312E3030310000003F
:10420000454550726F6D20757064617465642074EB
:104210006F006E65772056657273696F6E00636814
:1042200065636B2073657474696E677321004F4B0F
:1042300000202020577269746520454550524F4D2B
:10424000202020200020454550524F4D20506172C3
:10425000616D657465722020202000776572646549
:104260006E20617566005374616E64617264776577
:104270007274652067657365747A7400303030300D
:1042800000504B5400303030302D30302D30303035
:10429000303030003030303000504B540031323349
:1042A0003435363738003136392E3235342E303009
:1042B000312E303031003235352E3235352E30301A
:1042C000302E303030003136392E3235342E303009
:1042D000312E3030310000002121436865636B20AE
:1042E000506172616D65746572212120004F4B0031
:1042F000504B54004154503D0041545A30004154F9
:104300004C2A0041544C300041544C310041544C33
:10431000320041544C330041544C340041544C352C
:104320000041545131004154453000415451300056
:10433000415445310041540041544100415448002A
:1043400041544430004154443D004154463F0041F3
:10435000544F310041544F300041545230004154C9
:1043600052310041544E3D004154533100415442BA
:104370003F0041544931000D004F4B0D0A0045529A
:10438000524F520D0A00255320256C75204261754D
:104390006400696E697469616C6973696572656EE0
:1043A0003F0042544D32323220496E697400255329
:1043B00020256C7520426175640042544D323232C2
:1043C000206E6F7420666F756E64210042544D320A
:1043D000323220496E6974204F4B210042544D20E7
:1043E0004572726F723A20256400444953434F4E20
:1043F0004E45435400434F4E4E4543540054696D5F
:1044000065206F75742C4661696C20746F20636F32
:104410006E6E65637421000D0A00496E71756972D4
:104420007920526573756C74733A0D0A000D0A0099
:10443000496E717569727920456E6400436F6D6DC8
:10444000616E64204572726F72004F4B0D0A000D51
:104450000A004363636300720A000D0A004F4B00B9
:1044600053563220506174636800485720332E3908
:104470006D202830392E3230313129004857203311
:104480002E3978202831312E3230313229004254F1
:10449000202D3E20535632204B6162656C00425401
:1044A00020457874656E64657200574C414E204516
:1044B0007874656E646572003136392E3235342E6B
:1044C000312E313A3230303000424C45204578743C
:1044D000656E6465720042544D2D323232204B6F4E
:1044E0006E6669677572696572656E004643203E47
:1044F000204D4B2D555342203E2042544D2D3232FB
:1045000032004D4B2D55534220616E2050432061A7
:104510006E7363686C2E20005A7769736368656EEA
:10452000204D4B2D55534220756E64202000504B7A
:10453000542065696E2067656B7265757A74657362
:10454000202020004B6162656C20616E7363686C93
:1045500069657373656E2E202000555342202D3EF1
:1045600020535632204B6162656C004D4B2D5553E4
:104570004200555342202D3E2057692E32333200DF
:10458000466F6C6C6F77204D6500466F6C6C6F7773
:10459000204D6520536574757000547261636B69BA
:1045A0006E67004A6F79737469636B004D4B204DE1
:1045B0006F746F727465737400504B5420436F6E48
:1045C0006E656374004254202020457874656E64E3
:1045D000657200424C452020457874656E646572B2
:1045E00000574C414E20457874656E6465720055E5
:1045F000534220202D3E205769323332005553421A
:1046000020202D3E205356320042542020202D3EA3
:1046100020535632004F5344004F5344204461749A
:10462000656E004F53442044617461004D4B204936
:104630006E666F004D4B2053657474696E6773002E
:104640004D4B20446973706C6179004D4B2044617F
:1046500074656E004D4B2044617461004D4B2047E2
:10466000505320496E666F00504B54205370657A4A
:1046700069616C00504B54205370656369616C0034
:10468000504B5420436F6E6E65637400504B542042
:10469000536574757000504B5420496E666F00531B
:1046A00075636865204D696B726F6B6F70746572AE
:1046B00000736561726368204B6F7074657200E708
:1046C00048FD48134929493F49514963496D497794
:1046D000498D49A349AA49B149C149CE49DA49E8B6
:1046E00049F849064A1B4A304A464A5B4A6B4A79AE
:1046F0004A8E4AA24AA74AAB4AAE4AB14AB84ABE13
:104700004AC44ACA4AD44AD94AED4AF74A014B092F
:104710004B124B174B1D4B244B2D4B334B394B3D01
:104720004B414B464B4B4B534B684B7B4B814B8721
:104730004B8D4B934B934B974BA84BB64BC04BCAEF
:104740004BD44BDE4BED4BFA4B0F4C214C344C46CB
:104750004C564C654C704C7B4C8B4C9A4CA04CA6E8
:104760004CA64CAC4CAC4CB34CBB4CC34CCD4CD716
:104770004CE24CEF4C014D0D4D154D1C4D254D2D72
:104780004D324D374D3C4D414D434D454D474D49C3
:104790004D494D4B4D4B4D4D4D4D4D504D504D5345
:1047A0004D644D724D7D4D864D964DA44DB74DC413
:1047B0004DDA4DF04DFE4D0C4E1A4E284E364E44FD
:1047C0004E524E604E6E4E7C4E8A4E984EA64EB461
:1047D0004EBB4EC24EC94ED04EE24EF34E024F0F6C
:1047E0004F1E4F2C4F3C4F4A4F554F5E4F674F6FF8
:1047F0004F6F4F774F774F824F774F8C4F8C4F953E
:104800004F954F9F4F9F4FA84FA84FB04FB04FBBF2
:104810004FBB4FC04FC04FC54FC54FCA4FDE4FEBC8
:104820004FF24FF84F0950175028503C50515065E7
:10483000507050755079507E508350865086508A03
:104840005091509950A950B650C550D050E450F0F6
:104850005001510C511D512D513F514D5161516F1E
:104860005181518F51A251AF51BE51CB51DB51EB10
:1048700051FF51135227523B524F52635273528190
:104880005287528C5291529952A052A752BA52CE8C
:1048900052DA52E852FC520F531E532C533E5351DE
:1048A0005360536D5380539053A153AE53C053D1B3
:1048B00053E653F9530B541C542C543E5450546437
:1048C00054745482549654AB54BD54D054E054F2B2
:1048D00054F254065510551B552B553B554B555806
:1048E000555E5565556555201A20202020201B2037
:1048F000202020456E64652020204F4B00201A2088
:10490000202020201B20202020656E6420202020D5
:104910004F4B002018202020202019202020204547
:104920006E64652020204F4B00201820202020207E
:104930001920202020656E64202020204F4B00206D
:104940001820202020201920202020456E6465207A
:1049500000201820202020201920202020656E64AF
:10496000202000456E64652020204F4B00656E645A
:10497000202020204F4B002018202020202019200C
:10498000202020416262722E20204F4B00201820F0
:10499000202020201920202063616E63656C202078
:1049A0004F4B0020416262722E0063616E63656C42
:1049B00000546173746520312053656B756E6465B6
:1049C00000707265737320627574746F6E00666533
:1049D000737468616C74656E2100666F722031209B
:1049E0007365636F6E6421004C65747A7465205042
:1049F0006F736974696F6E006C61737420706F738C
:104A00006974696F6E004272656974656E67722EB3
:104A1000204CE46E67656E67722E006C6174697479
:104A20007564652020206C6F6E676974756465001D
:104A30006CF6736368656E202020202020202020E3
:104A4000204E65696E0064656C65746520202020C9
:104A500020202020202020204E6F00476F6F676CA1
:104A6000652045696E676162653A00476F6F676CE4
:104A70006520496E7075743A007375636865204DE2
:104A8000696B726F6B6F707465722E2E2E0073657A
:104A900061726368696E67204B6F707465722E2E49
:104AA0002E00456E646500656E64004F4B006F6BB1
:104AB000004665686C6572006572726F7200616BAA
:104AC0007469760061637469760053706569636820
:104AD00065726E0073617665007769726420676540
:104AE0007370656963686572742E2E2E007361762B
:104AF000696E672E2E2E0056657277657266656E3A
:104B00000064697363617264004B6F7069657265FC
:104B10006E00636F7079007375636865007365611B
:104B200072636800676566756E64656E00666F75B2
:104B30006E64007365747A6500736574006D6974E2
:104B40000077697468006F686E6500776974686FD4
:104B50007574004D6F746F72656E20617573736349
:104B600068616C74656E2100737769746368206D89
:104B70006F746F7273206F6666210045696E202026
:104B8000004F6E202020004175732020006F666664
:104B900020200045534300504B54206175737363CC
:104BA00068616C74656E3F0073687574646F776ECE
:104BB00020504B543F004A612020204E65696E0012
:104BC000796573202020206E6F004E65696E20206D
:104BD000204A61006E6F20202020796573004461B7
:104BE00074656E206CF6736368656E3F0064656C77
:104BF00065746520646174613F0056657262696E18
:104C0000646520504B54206D69742050432100434B
:104C10006F6E6E65637420504B5420746F20504348
:104C2000004472FC636B6520275374617274272003
:104C300066FC72005072657373202753746172743E
:104C40002720666F72006D696E2E20322053656BCF
:104C5000756E64656E006D696E2E2032207365631B
:104C60006F6E647300456E646520537461727400E6
:104C7000456E6420205374617274004D6F64756CCE
:104C80002065696E676562617574004D6F64756C4F
:104C9000206275696C7420696E004B6162656C00FE
:104CA0006361626C6500536C617665004E6F726D76
:104CB000616C005265766572736500696E76657227
:104CC000736500456E64652020204F4B00456E647F
:104CD000202020204F4B00504B542D454550726FE3
:104CE0006D005265616C792064656C657465007750
:104CF00069726B6C696368206CF6736368656E3FFC
:104D000000504B542D454550726F6D3F00646575E2
:104D100074736368006765726D616E00656E676CC1
:104D20006973636800656E676C697368004A612027
:104D3000200079657320004E65696E006E6F20203B
:104D40000056004600480042004C0052004E6900E8
:104D5000526F004D4B20446174656E7665726C75C0
:104D6000737421004D4B2044617461206C6F737427
:104D70002100416B746976696572656E00616374C8
:104D80006976617465004B6F706965726520536563
:104D90007474696E6700636F7079207365747469E9
:104DA0006E6773005769726B6C696368206B6F7014
:104DB000696572656E3F007265616C6C7920636F26
:104DC00070793F00676577E4686C746573204750BD
:104DD0005320476572E47420200073656C6563742A
:104DE0006564204750532064657669636520200020
:104DF0006D61782048F66865202020203A006D61BA
:104E00007820616C7469747564653A006D6178200E
:104E10004765736368772E203A006D617820737060
:104E20006565642020203A006D617820456E7466C7
:104E300065726E2E3A006D61782064697374616EDC
:104E400063653A006D696E205370616E6E756E67B2
:104E50003A006D696E20766F6C74616765203A0068
:104E60006D6178205A656974202020203A006D61B8
:104E7000782074696D65202020203A006D617820CB
:104E80005374726F6D2020203A006D617820637535
:104E90007272656E74203A00456E742E4B617061BB
:104EA0007A69742E3A005573656443617061636971
:104EB00074793A00506F7469202000706F74692013
:104EC00020005461737465720073776974636800BD
:104ED0004F53442D20756E6420424C2D44617465FF
:104EE0006E004F53442D20616E6420424C2D44616E
:104EF0007461004D4B204665686C65726C69737413
:104F000065004D4B206572726F726C697374005549
:104F1000736572204750532D446174656E0055735C
:104F20006572204750532D64617461006C65747A1A
:104F3000746520506F736974696F6E006C6173746F
:104F400020706F736974696F6E00414C4C4520444A
:104F50006174656E00414C4C2064617461006CF6B4
:104F6000736368656E3F0064656C6574653F0047F8
:104F7000656E6572616C004E617669676174696F18
:104F80006E00576179706F696E747300456C65636C
:104F900074726963004D4B2D5374617475730055C1
:104FA00073657220475053003344204C616765009D
:104FB00053746174697374696373004F53443000B0
:104FC0004F534431004F534432006B65696E656E38
:104FD000204D4B20676566756E64656E21006E6FAF
:104FE000204D4B20666F756E6421004645484C4548
:104FF00052004552524F52004D4B20446174656E31
:105000007665726C75737421004D4B204461746138
:10501000206C6F737421006C616465205365747437
:10502000696E67732E2E2E006C6F6164696E672047
:1050300073657474696E67732E2E2E00616B7469CC
:1050400076696572652053657474696E672E2E2EBD
:105050000061637469766174652073657474696E48
:10506000672E2E2E004265617262656974656E005E
:105070006564697400766F6E0066726F6D006E61B4
:10508000636800746F00504B5400414B54495621E3
:105090000041435449564521004D6F64756C20769C
:1050A0006F7268616E64656E004D6F64756C65202B
:1050B000657869737400496E697469616C697369B4
:1050C0006572656E00496E697469616C697A650024
:1050D0006C616E6765722054617374656E6472757D
:1050E000636B3A006C6F6E672070726573733A0081
:1050F0004661762068696E7A75676566FC6774211B
:105100000066617620616464656421002A2046613E
:10511000762069737420766F6C6C202A002A2066D2
:1051200061762069732066756C6C202A002A2046FF
:10513000617620766F7268616E64656E202A002A3F
:1051400020666176206578697374732A006B6569DF
:105150006E2046617620766F7268616E64656E219E
:10516000006E6F2066617620657869737421004552
:10517000696E7472616720656E746665726E742103
:10518000006974656D2064656C6574656421004513
:10519000696E7472616720656E746665726E656EA5
:1051A0003F0064656C657465206974656D3F006ED1
:1051B00069636874206DF6676C69636821006E6FBF
:1051C0007420706F737369626C65004D696E7574DD
:1051D000656E2028303D41757329006D696E7574C8
:1051E00065732028303D6F666629003C342E3230CE
:1051F0002045696E7A656C7A656C6C652020003C90
:10520000342E32302073696E676C652063656C6C78
:105210002020003E342E323020476573616D747358
:1052200070616E6E752E003E342E323020746F74B5
:10523000616C20766F6C746167650076657273745B
:10524000656C6C656E2C2062697320646965006111
:10525000646A757374206F666673657420756E7406
:10526000696C005370616E6E756E67207061737348
:10527000742100766F6C74616765206669747321B0
:1052800000446174656E0064617461006C657365EF
:105290000072656164696E67004C6162656C7300E1
:1052A0006C6162656C730065787465726E657320FD
:1052B0005356322D4D6F64756C0065787465726E4F
:1052C000616C20535632206D6F64756C65002A2026
:1052D00041434854554E47202A002A204154544502
:1052E0004E54494F4E202A004B6F707465722061F6
:1052F0007573736368616C74656E2100737769748C
:105300006368206F6666206B6F707465722100574A
:10531000692E323332204B6F6E6669672E005769F3
:105320002E32333220436F6E666967006D697420D8
:105330005553422076657262756E64656E00636FC8
:105340006E6E656374656420776974682055534296
:10535000007369656865204D4B2D57696B693A008C
:10536000736565204D4B2D57696B693A006A65740A
:105370007A7420617573736368616C74656E3F0045
:10538000737769746368206F6666206E6F773F007D
:10539000504B54206E6575207374617274656E2174
:1053A000007265737461727420504B542100616BFC
:1053B000746976696572652057692E32333221002F
:1053C00061637469766174652057692E32333221C6
:1053D000002A2077617274652061756620536174BC
:1053E000666978202A002A2077616974696E6720CF
:1053F000736174666978202A0076657262696E64EA
:1054000065204750532D4D6175730073656172635C
:1054100068206770732D6D6F757365007472656EAB
:105420006E65204750532D4D617573006469736A32
:105430006F696E206770732D6D6F757365006B6596
:10544000696E2042544D32323220766F72682E00DF
:105450006E6F2042544D32323220696E7374616C2B
:105460006C6564006B65696E65204750532D4D6116
:10547000757321006E6F206770732D6D6F75736586
:1054800021004750532D4D61757320566572626936
:105490006E64756E67006770732D6D6F7573652030
:1054A000636F6E6E656374696F6E0042542047656A
:1054B00072E474652073756368656E3F007365619F
:1054C00072636820425420646576696365733F00A7
:1054D000737563686520425420476572E474650003
:1054E0007365617263682042542064657669636500
:1054F00073006B65696E20476572E47420676566AA
:10550000756E64656E00425420476572E4746500F0
:1055100042542064657669636573002863612E20B8
:1055200032204D696E7574656E29002863612E20E6
:1055300032206D696E757465732900425420446190
:1055400074656E7665726C75737400425420646184
:105550007461206C6F7373004D65746572006D65C6
:1055600074657273004C61737472696E670014BE67
:1055700088E10FB6F89480936000109260000FBE2F
:1055800011241FBECFEFD0E4DEBFCDBF14E0A0E0FA
:10559000B1E0E6E2FDED01E00BBF02C007900D9225
:1055A000A43FB107D9F71DE2A4EFB4E001C01D92FA
:1055B000A538B107E1F70E941DE40C9491EE0C941C
:1055C00000008DE090E00E9468E620E0AC0167E01A
:1055D0008CE00E949FC040E06FEF7FEF89E190E098
:1055E0000E944A5C0E943F5C80E20E94FB5B882331
:1055F000D9F308950E94C3BC60E080E00C94BDCA5A
:1056000040E06FEF7FEF89E190E00E944A5C0E94EA
:105610003F5C80E20E94FB5B882311F00C94E4CA9B
:1056200080E10E94FB5B8823A1F3F8CFA2E0B0E009
:10563000ECE1FBE20C9416EA89839A830E94E4CAA7
:1056400062E089819A810E944FC1DADF0E94E4CA38
:105650002296E2E00C9432EACF93DF93EC01709350
:10566000D91A6093D81A09C00E946649892B29F07B
:105670000E940049888381E007C08091D81A9091E8
:10568000D91A892B89F780E0DF91CF910895A1E0A5
:10569000B0E0EDE4FBE20C9414EA8C01B801CE0119
:1056A0000196DADF8111FACF2196E4E00C9430EA1A
:1056B000A1E0B0E0EEE5FBE20C940CEA7C016B01AA
:1056C000FC019490911012C081E01CC08981891165
:1056D00003C00F5F1F4F05C0881102C0850101C0C4
:1056E0008701F8019490911007C0EECF8C01892CAE
:1056F0005C01FFEFAF1ABF0AB601CE010196ACDF25
:105700008111E4CF2196ECE00C9428EA8093F50413
:105710001092F40408951092F5041092F40481118B
:1057200050CF0895EF920F93CF93DF93EC019091B8
:10573000F504992309F446C08091F4048F5F8093A7
:10574000F4041F929F931F928F9380E691E09F93A2
:105750008F9383E08F931F921F9284E08F930E9418
:1057600019C18DB79EB70A969EBF8DBF2097C1F015
:1057700002E020E244E150E0BE0186E19CE00E94AC
:10578000804700E027E04CE76BE282E00E9411BF17
:1057900003E020E040E066E17CE085E00E94F7C0A5
:1057A00082E0E82E01E026E14FE76FE180E00E9411
:1057B00084C288E59BE124EF31E0F9013197F1F7EC
:1057C0000197D9F7DF91CF910F91EF9008950F9343
:1057D0001F93CF93DF93182FEB01022F422F60E02E
:1057E0000E94B5CA20E040E0BE01812F0E9479C02E
:1057F000DF91CF911F910F9108950F9301E021E068
:1058000048EB5BE061E00E94F1780F910895A1E020
:10581000B0E0EDE0FCE20C9415EA06C099811111AC
:1058200005C011E09E3339F010E005C081E09032F0
:1058300049F080E007C064E670E0CE0101960CDF1D
:105840008111ECCF2196E3E00C9431EAA1E0B0E0C5
:10585000ECE2FCE20C9416EA80E293E09093D91A11
:105860008093D81A03C089818E3371F064E670E0AA
:10587000CE010196F1DE882349F08091D81A9091EB
:10588000D91A892B81F702C081E001C080E02196FE
:10589000E2E00C9432EA1F93CF93DF9312E0C4EF5F
:1058A000D1E086E691E00E94594988EE93E0FE013E
:1058B0003197F1F70197D9F78DE00E94324980E2E4
:1058C0000E94055C81110FC0A2DF81110DC0115033
:1058D00024EC39E0FE013197F1F721503109D1F77D
:1058E0001111DFCF01C08FEFDF91CF911F9108958C
:1058F000A0E0B0E0EEE7FCE20C9411EAEC017B01E1
:105900008A01D22E0FDFCE010E945949E114F10421
:1059100039F48DE00E9432490115110571F419C066
:1059200080E203C0803209F484E20E943249F70128
:1059300081917F018111F6CFECCF60ED77E0C80156
:10594000B7DE811106C0CE0158DF80E005C05FDF01
:1059500003C0D110FCCF81E0CDB7DEB7E7E00C94F7
:105960002DEAA1E0B0E0E7EBFCE20C9412EA7C0146
:105970008A0144E150E089EE98E129830E94EFEC2E
:105980002981A80169EE78E1C701B2DF2196E6E03E
:105990000C942EEAA2E0B0E0E0EDFCE20C9413EAF5
:1059A0001092090C1092080C8DE00E943249F12CE3
:1059B0000AE01CE020E030C03981211103C03C33F3
:1059C00059F529C03E3351F08F2D90E001960C9788
:1059D00090F5F80131938F01F3941DC0F801108206
:1059E00020910A0C30910C0C80910D0C90E08051AC
:1059F0009240FAE03F9F800D911D112434E6239FD1
:105A0000800D911D1124805C92419093090C80932C
:105A1000080C22E00BC021E064E670E0CE010196A4
:105A20002A831ADE2A818111C7CF06C081E0223085
:105A300049F080E007C021E08AE691E02A83DDDEBC
:105A40002A81F4CF2296E5E00C942FEA21E046E784
:105A500051E060E070E04CCF21E046E751E048CFF4
:105A600021E046E751E07DCFCF93DF93EC01CB01FE
:105A70004AE050E069EE78E10E9439EE69EE78E1A3
:105A8000CE01EADFDF91CF91089520E048E851E0B0
:105A900060E070E08AE791E02BDF20E137E244EF3D
:105AA00051E0FA013197F1F721503109D1F708950A
:105AB00080ED97E024EF31E0F9013197F1F701979C
:105AC000D9F721E046E951E060E070E081E991E03A
:105AD0000FCF20E043EA51E0BC018EE991E008DFFE
