:100000000C9436060C945E060C945E060C945E0608
:100010000C945E060C945E060C945E060C946F0CB9
:100020000C945E060C945E060C94B70B0C945E0662
:100030000C945E060C94490C0C945E060C945E06BF
:100040000C94791F0C945E060C94EF110C94C9115A
:100050000C945E060C945E060C945E060C945E0690
:100060000C9468170C945E0604260A260A260A26B3
:1000700091259C250A260A260A26A22555252D25E6
:100080007F25AA25C226C7262A2775265626282672
:100090003F261726AED580A83FD300408D142002FE
:1000A000A1C8DA12817FD9F1DB40A4A6AF556E61F9
:1000B000626C6520746F2066696E642054656D7093
:1000C00073656E736F720054656D7073656E736FD8
:1000D0007220666F756E640074657374202B2063E4
:1000E0006F6E66696775726174696F6E00534D4318
:1000F00020657874656E73696F6E000000050720D7
:1001000061000000000000005F0000000700070021
:10011000147F147F14242A7F2A1223130864623662
:10012000495522500005030000001C2241000041F7
:10013000221C00082A1C2A0808083E080800503023
:10014000000008080808080060600000201008048B
:10015000023E5149453E00427F40004261514946BE
:100160002141454B311814127F1027454545393C34
:100170004A4949300171090503364949493606495A
:1001800049291E00363600000056360000000814CB
:1001900022411414141414412214080002015109BC
:1001A00006324979413E7E1111117E7F4949493617
:1001B0003E414141227F4141221C7F494949417FC3
:1001C000090901013E414151327F0808087F004181
:1001D0007F41002040413F017F081422417F404081
:1001E00040407F0204027F7F0408107F3E4141416E
:1001F0003E7F090909063E4151215E7F09192946C2
:10020000464949493101017F01013F4040403F1FBC
:100210002040201F7F2018207F63140814630304EC
:10022000780403615149454300007F4141020408BD
:10023000102041417F000004020102044040404080
:1002400040000102040020545454787F484444384C
:100250003844444420384444487F3854545418089F
:100260007E090102081454543C7F080404780044B9
:100270007D40002040443D00007F10284400417F25
:1002800040007C041804787C080404783844444412
:10029000387C14141408081414187C7C080404080E
:1002A0004854545420043F4440203C4040207C1C8F
:1002B0002040201C3C4030403C44281028440C5036
:1002C00050503C4464544C44000836410000007FC8
:1002D0000000004136080008082A1C08081C2A08EB
:1002E0000800060909069400198040004F4C454457
:1002F00020493243204552524F5200534D435F43F1
:100300004C493E007365637572697479207377692F
:1003100074636800656E636F6465722062757474DF
:100320006F6E00656E636F6465722044656C746106
:100330003A2020202000646972656374696F6E2022
:10034000627574746F6E0073746F7020627574746C
:100350006F6E00737461727420627574746F6E00D6
:1003600020003F2C68656C702C68696C66652020E5
:1003700020202020202020202020203B746869732A
:1003800020696E666F00656564656C657465202024
:100390002020202020202020202020202020203B42
:1003A000212144454C45544520454550524F4D214F
:1003B00021207769746820636F6E66696764617471
:1003C0006100656573617665202020202020202053
:1003D00020202020202020202020203B77726974BC
:1003E0006520636F6E6669676461746120746F2055
:1003F000454550524F4D2000656573686F7720204A
:1004000020202020202020202020202020202020EC
:10041000203B73686F7720454550524F4D207661E1
:100420006C756573006564646973706C61792078BC
:1004300020202020202020202020202020203B3190
:100440003D206E6F726D616C2C2032203D207265F4
:1004500076657273006564656E632078782020206D
:1004600020202020202020202020202020203B652C
:100470006E636F646572736C6F7473206F72206D3E
:1004800061676E657473006564676561726869674A
:100490006820787820202020202020202020202064
:1004A0003B726174696F2068696768207370656565
:1004B000642067656172006564676561726C6F775F
:1004C000207878202020202020202020202020207C
:1004D0003B726174696F206C6F772073706565641F
:1004E0002067656172006564726564726174696F2A
:1004F0002078782020202020202020202020203B31
:10050000726174696F206D6F746F722D7370696E94
:10051000646C6570756C6C6579202831365A2F33A0
:10052000305A2A3130302900656462617365766F14
:100530006C74207878782020202020202020202013
:10054000203B62617365766F6C7420666F72205217
:10055000504D2043616C63756C6174696F6E20004F
:10056000656474656D70756E697420782020202034
:100570002020202020202020203B31203D204365CA
:100580006C736975732C2032203D2046616872655A
:100590006E6865697400656474656D702078782094
:1005A0002020202020202020202020202020203B30
:1005B000736574206D6178696D756D2074656D70FB
:1005C0006572617475726500693263202020202095
:1005D000202020202020202020202020202020201B
:1005E000203B73686F7720493243206164726573E2
:1005F0007365730073742020202020202020202089
:10060000202020202020202020202020203B736834
:100610006F77206861726477617265696E666F7367
:1006200000004B6F6D6D616E646F20506172616D83
:100630006574657209203B2D2D2D2D2D2D2D2D2D11
:100640002D2D2D2D2D2D2D2D2D2D2D2D2D2D2D2DDA
:100650002D2D00536F6674776172657665727369CC
:100660006F6E3A2031362E322E30204A616E2032A3
:100670003420323032340074656D70657261747587
:100680007220006D6178696D616C200063656C7328
:100690006975730066616872656E68656974007477
:1006A000656D7065726174757220756E6974200075
:1006B0002062617365766F6C7461676520002072DB
:1006C0006564756374696F6E20726174696F200070
:1006D000206C6F7720737065656420726174696F38
:1006E0002000206869676820737065656420726106
:1006F00074696F200020656E636F646572736C6F40
:1007000074732F6D61676E65747320006E6F726D08
:10071000616C0072657665727365006368616E670F
:10072000656420746F200020646973706C617920A7
:100730006F7269656E746174696F6E200074696DA3
:10074000656F75740061626F72740044656C6574E6
:100750006520454570726F6D2C20737572653F5B27
:100760004A5D3A20006C6173742072756E6E696E1A
:10077000672052504D3A20006E6F726D616C0031EF
:10078000203D206E6F726D616C2032203D207265BD
:1007900076657273650072657665727365006E6F5B
:1007A000726D616C004F4C4544206F7269656E74C8
:1007B0006174696F6E3A2000312D32303000656E01
:1007C000636F6465726469736B20736C6F74732FED
:1007D0006D61676E6574733A2000312D31303000E1
:1007E00067656172206C6F777370656564207261F4
:1007F00074696F3A2000312D3130300067656172C5
:100800002068696768737065656420726174696FD8
:100810003A2000312D31303000726564756374699F
:100820006F6E20726174696F3A2000446F204E6FC2
:100830007420546F756368210052504D20426173DB
:100840006973766F6C743A20003335432D3730432B
:100850002C3935462D3135384620006D61782E20F3
:1008600074656D70657261747572653A200031202F
:100870003D2043656C736975732032203D204661CD
:100880006872656E686569740043656C7369757339
:100890000046616872656E686569740043656C73D3
:1008A0006975730074656D70657261747572652029
:1008B000756E69743A2000454550726F6D2056651B
:1008C0007273696F6E3A200052616E67650044650D
:1008D0006661756C740056616C756500506172617B
:1008E0006D65746572002052504D2053656E736FB4
:1008F000723A200052504D2053656E736F72007330
:1009000065637572697479207377697463680065CB
:100910006E636F64657220627574746F6E006275C9
:1009200074746F6E20677265656E00627574746FA3
:100930006E2072656400627574746F6E2079656CE8
:100940006C6F77002054656D7020433A2000546529
:100950006D7073656E736F7220445331384232305C
:1009600000444143204D43503437323500456E63D7
:100970006F646572004F4C45442D49324300446515
:100980007669636520616E6420492F4F205374613E
:1009900074757300646F6E650A004E6F20493243B0
:1009A000206465766963657320666F756E640A00FE
:1009B0003000556E6B6E6F776E206572726F7220AD
:1009C00061742061646472657373203078002068FC
:1009D000657800300049324320646576696365209C
:1009E000666F756E642061742061646472657373F0
:1009F000203078005363616E6E696E672049324320
:100A00002061647265737365732E2E2E0000030CD3
:100A10000F30333C3FC0C3CCCFF0F3FCFF005EBCD3
:100A2000E2613FDD83C29C7E20A3FD1F41009D2328
:100A3000BE46DB65F88C11AF32CA57E974534D439B
:100A40005F434C493E00756E6B6E6F776E20636F2F
:100A50006D6D616E6400656573686F7700000000FE
:100A600000000000000000000000130865657361CD
:100A7000766500000000000000000000000000009B
:100A8000270A656564656C657465000000000000F8
:100A9000000000000000E009656474656D700000EE
:100AA000000000000000000000000000450B65642D
:100AB00074656D70756E69740000000000000000C0
:100AC0000000190B656462617365766F6C740000D9
:100AD0000000000000000000FA0A6564726564729C
:100AE0006174696F00000000000000000000DB0A74
:100AF0006564676561726C6F77000000000000003C
:100B000000000000BC0A6564676561726869676817
:100B1000000000000000000000009D0A6564656E92
:100B20006300000000000000000000000000000062
:100B3000820A6564646973706C617900000000006A
:100B4000000000000000510A69326300000000004C
:100B5000000000000000000000000000CA067374DE
:100B60000000000000000000000000000000000085
:100B70000000450768696C66650000000000000021
:100B80000000000000000000640668656C70000052
:100B900000000000000000000000000000006406EB
:100BA0000000000000000000000000000000000045
:100BB0000000000064063F0000000000000000008C
:100BC000000000000000000000006406534D435F79
:100BD000434C493E00554E4B4E4F572053544154C1
:100BE0004500454550524F4D2052657365740000D5
:100BF0000000002300260029000404040404040467
:100C000004020202020202030303030303010204BB
:100C1000081020408001020408102001020408107E
:100C20002000000000240027002A0000000000250A
:100C30000028002B0000000008000201000003044F
:100C40000700000000000000000D0A696E70757456
:100C5000206572726F72202F20706172616D6574F1
:100C60006572206572726F720000B42811241FBE75
:100C7000CFEFD8E0DEBFCDBF11E0A0E0B1E0EEECF9
:100C8000FAE502C005900D92A638B107D9F724E025
:100C9000A6E8B1E001C01D92A63EB207E1F716E05A
:100CA000C6E3D6E004C02197FE010E94522DC53351
:100CB000D107C9F70E94C31F0C94652D0C94000046
:100CC000089580E090E0089563E576E085EB93E099
:100CD0000E94571A62E276E085EB93E00E94571A71
:100CE00061E276E085EB93E00E94571A64EF75E0CD
:100CF00085EB93E00E94571A68EC75E085EB93E072
:100D00000E94571A66E975E085EB93E00E94571A36
:100D100060E675E085EB93E00E94571A68E275E0A3
:100D200085EB93E00E94571A66EE74E085EB93E042
:100D30000E94571A67EB74E085EB93E00E94571A04
:100D400067E874E085EB93E00E94571A65E574E06C
:100D500085EB93E00E94571A65E274E085EB93E01F
:100D60000E94571A68EF73E085EB93E00E94571AD0
:100D700062EC73E085EB93E00E94571A66E873E03B
:100D800085EB93E00E94571A62E673E085EB93E0EF
:100D90000C94571ACF92DF92EF92FF920F931F930A
:100DA000CF93DF9364EF79E085EB93E00E94571ACD
:100DB000C12CD12C7601C394C0E0D0E001E01C2D01
:100DC00000938F01C0928E0110928D0110928C01C0
:100DD00086E894E00E94441681111DC065ED79E01B
:100DE00085EB93E00E946710103130F463ED79E0F9
:100DF00085EB93E00E94671020E1B701A60185EB27
:100E000093E00E94A0106EEC79E085EB93E00E94E5
:100E1000571A21961BC08430C9F462EB79E085EB48
:100E200093E00E946710103130F460EB79E085EBBD
:100E300093E00E94671020E1B701A60185EB93E0E3
:100E40000E94A01085EB93E00E94C5118FEFC81A95
:100E5000D80AE80AF80A8FE7C816D104E104F104B9
:100E600009F0ADCFCD2B19F46AE979E002C064E94D
:100E700079E085EB93E0DF91CF911F910F91FF9087
:100E8000EF90DF90CF900C94571ACF92DF92EF92B1
:100E9000FF920E94FE1A63E088E20E94DE1A60E080
:100EA0008EE10E94DE1A61E081E00E94A61A6EE7E0
:100EB00079E082E594E00E9467108091990142E018
:100EC00065E779E081700E94F61D8091990144E008
:100ED0006DE679E082FB882780F90E94F61D8091FB
:100EE000990145E061E679E083FB882780F90E945B
:100EF000F61D8091990146E06EE479E0829581705B
:100F00000E94F61D8091990184FF2EC080E991E036
:100F10000E94621C813824EE92077CF0BC01990F7C
:100F2000880B990B0E94F32B20E030E040E05CE35B
:100F30000E94A82C6B017C0106C0C12CD12C8EEF25
:100F4000E82E82ECF82E64E479E082E594E00E94D9
:100F5000671022E0B701A60182E594E00E94E91043
:100F600082E594E00E94C51180919E0147E066E30E
:100F700079E081700E94F61D80919E0148E06BE24D
:100F800079E0869581700E94F61D80919E0149E06E
:100F90006EE179E082FB882780F90E94F61D80913E
:100FA0009E014AE06FE079E083FB882780F90E9488
:100FB000F61D80919E014BE06FEF78E08295817085
:100FC0000E94F61D80919E014CE064EF78E085FB65
:100FD000882780F90E94F61D66EE78E082E594E0AD
:100FE0000E94671040919F015091A0016091A10162
:100FF0007091A20122E082E594E00E94E91082E56E
:1010000094E00E94C51160E088E20E94DE1A67E069
:101010008EE10E94DE1A85EB93E0FF90EF90DF9067
:10102000CF900C94C5110E94FE1A64E088E20E94E1
:10103000DE1A67E08EE10E94DE1A61E081E00E9424
:10104000A61A6CED78E082E594E00E94671061E0FA
:101050008AE10E94A61A66ED78E082E594E00E949B
:10106000671061E088E20E94A61A6EEC78E082E5E3
:1010700094E00E94671061E084E30E94A61A68EC85
:1010800078E082E594E00E94671060E088E20E94C8
:10109000DE1A67E08EE10E94DE1A62E081E00E94C3
:1010A000A61A67EB78E082E594E00E94671062E0A0
:1010B0008CE10E94A61A40910B0350910C0360E052
:1010C00070E02AE082E594E00E94A01063E081E0F5
:1010D0000E94A61A64EA78E082E594E00E94671014
:1010E00063E08CE10E94A61A8091FB02882319F02C
:1010F0006CE978E002C061E978E082E594E00E9462
:10110000671063E088E20E94A61A69E878E082E549
:1011100094E00E94671063E084E30E94A61A6EE6E2
:1011200078E082E594E00E94671064E081E00E942C
:10113000A61A6BE578E082E594E00E94671064E00F
:101140008CE10E94A61A4091FC0250E060E070E041
:101150002AE082E594E00E94A01064E088E20E9408
:10116000A61A61E470E082E594E00E94691A64E0E6
:1011700084E30E94A61A69E478E082E594E00E9484
:10118000671065E081E00E94A61A69E378E082E5D5
:1011900094E00E94671065E08CE10E94A61A6091BD
:1011A000FD027091FE0282E594E00E94691A65E0FA
:1011B00088E20E94A61A6DE271E082E594E00E9446
:1011C000691A65E084E30E94A61A6BE278E082E582
:1011D00094E00E94671066E081E00E94A61A69E12F
:1011E00078E082E594E00E94671066E08CE10E945E
:1011F000A61A6091FF027091000382E594E00E94BC
:10120000691A66E088E20E94A61A65E370E082E54A
:1012100094E00E94691A66E084E30E94A61A63E1E2
:1012200078E082E594E00E94671067E081E00E9428
:10123000A61A6CEF77E082E594E00E94671067E001
:101240008CE10E94A61A609101037091020382E56D
:1012500094E00E94691A67E088E20E94A61A6FE58E
:1012600070E082E594E00E94691A67E084E30E94DE
:10127000A61A66EF77E082E594E00E94671068E0C6
:1012800081E00E94A61A60EE77E082E594E00E9479
:10129000671068E08CE10E94A61A609103037091C8
:1012A000040382E594E00E94691A68E088E20E94E3
:1012B000A61A69E270E082E594E00E94691A68E08B
:1012C00084E30E94A61A6AED77E082E594E00E942A
:1012D000671069E081E00E94A61A6EEB77E085EB6B
:1012E00093E00E94671069E08CE10E94A61A409189
:1012F000070350E060E070E02AE085EB93E00E9495
:10130000A01069E088E20E94A61A68E170E082E518
:1013100094E00E94691A69E084E30E94A61A68EBCF
:1013200077E082E594E00E9467106AE081E00E9425
:10133000A61A65EA77E085EB93E00E9467106AE001
:101340008CE10E94A61A8091050390910603892BD7
:1013500019F46EE977E002C066E977E085EB93E087
:101360000E9467106AE084E30E94A61A6FE777E0A4
:1013700082E594E00E9467106AE088E20E94A61A63
:1013800068E777E085EB93E00E9467106CE081E00E
:101390000E94A61A65E677E085EB93E00E9467104D
:1013A0006CE08CE10E94A61A609108037091090319
:1013B00085EB93E00E94691A85EB93E00C94C511CC
:1013C000CF92DF92EF92FF926BE477E085EB93E0B0
:1013D0000E94671085EB93E00E9401100E946D1F30
:1013E0006B017C016093470270934802809349022D
:1013F00090934A0285EB93E00E947C0F1816190621
:101400007CF485EB93E00E945A0F8A3431F4FF900C
:10141000EF90DF90CF900C94461B65E477E00FC00F
:101420000E946D1FDC01CB018C199D09AE09BF091B
:10143000893B9B40A105B105E8F26DE377E085EBC0
:1014400093E0FF90EF90DF90CF900C94571A6FE5E8
:1014500071E085EB93E00E948B1085EB93E00C9498
:10146000C511EF92FF920F931F93CF93DF938C01DF
:101470000E945C2A7C01C0E0D0E0CE15DF0551F06F
:10148000F801EC0FFD1F649185EB93E00E94601062
:101490002196F3CFDF91CF911F910F91FF90EF90A5
:1014A000089562E070E081E090E00E94C91D892B00
:1014B00041F187E297E00E94310A8BE197E00E94B8
:1014C000310A8091D5049091D6048130910559F468
:1014D0006CE077E085EB93E00E94571A10920603C8
:1014E000109205030895029761F463E177E085EBBC
:1014F00093E00E94571A81E090E090930603809356
:101500000503089568EC70E081E090E00E94C91D39
:10151000892B91F08091D5048093070385EF96E0A5
:101520000E94310A8BE197E00E94310A8091D50434
:101530009091D6040C94B51D089564E670E081E0A6
:1015400090E00E94C91D892BB1F08091D504909143
:10155000D604909302038093010382EE96E00E94EA
:10156000310A8BE197E00E94310A8091D504909175
:10157000D6040C94B51D089564E670E081E090E017
:101580000E94C91D892BB1F08091D5049091D60499
:10159000909304038093030380ED96E00E94310A48
:1015A0008BE197E00E94310A8091D5049091D60496
:1015B0000C94B51D089564E670E081E090E00E940F
:1015C000C91D892BB1F08091D5049091D6049093D8
:1015D00000038093FF028EEB96E00E94310A8BE1BC
:1015E00097E00E94310A8091D5049091D6040C9422
:1015F000B51D089560E971E088EC90E00E94C91D76
:10160000892BB1F08091D5049091D6049093FE027D
:101610008093FD0280EB96E00E94310A8BE197E017
:101620000E94310A8091D5049091D6040C94B51D86
:10163000089562E070E081E090E00E94C91D892B6E
:1016400019F18FE996E00E94310A8BE197E00E9440
:10165000310A8091D5049091D6048130910551F4DE
:101660006CE876E085EB93E00E94571A81E0809366
:10167000FB020895029741F464E976E085EB93E07C
:101680000E94571A1092FB0208958091FB02882352
:1016900029F066E470E08EE190E004C06EE970E04D
:1016A0008FE590E00E94C91D892BB1F08091D5048F
:1016B0008093FC0283E896E00E94310A87E796E077
:1016C0000E94310A8BE197E00E94310A8091D50493
:1016D0009091D6040C94B51D08950F931F93CF934A
:1016E000DF93EC01062F142F8B89813120F488239E
:1016F00039F0411105C086E894E00E9444161B8A27
:101700008B89811113C08A8991E090938F01809316
:101710008E0110928D0110928C01112311F060E462
:1017200001C060E086E894E00E945A15602F86E8C8
:1017300094E00E945A15123021F48B898F5F8B8BB5
:1017400005C086E894E00E9444161B8ADF91CF9181
:101750001F910F9108952FB7F89490914602892315
:10176000909146029827909346022FBF08951F92AA
:101770000F920FB60F921124CF92DF92EF92FF9249
:101780000F931F932F933F934F935F936F937F9389
:101790008F939F93AF93BF93EF93FF93CF93DF9379
:1017A00000D000D0CDB7DEB719821A821B821C820E
:1017B000109285001092840080918600909187009D
:1017C000A0E0B0E089839A83AB83BC83209142027E
:1017D000309143024091440250914502C980DA8021
:1017E000EB80FC80AFEFBFEF0E94A22AC60ED71E8F
:1017F000E81EF91EC982DA82EB82FC821092420254
:10180000109243021092440210924502009141024C
:1018100081E0800F8093410210E069817A818B81A1
:101820009C810E94F12B9B01AC0160E074E284E793
:101830009BE40E94502B000F111F000F111FF80195
:10184000EF5FFD4F608371838283938380914102B8
:10185000803111F4109241020F900F900F900F9071
:10186000DF91CF91FF91EF91BF91AF919F918F91B8
:101870007F916F915F914F913F912F911F910F91A8
:10188000FF90EF90DF90CF900F900FBE0F901F90C2
:10189000189578941F920F920FB60F9211248F9380
:1018A0009F93AF93BF938091420290914302A09186
:1018B0004402B09145020196A11DB11D80934202E0
:1018C00090934302A0934402B0934502BF91AF911D
:1018D0009F918F910F900FBE0F901F9018951F92A0
:1018E0000F920FB60F921124CF92DF92EF92FF92D8
:1018F0002F933F934F935F936F937F938F939F9318
:10190000AF93BF93CF93DF93EF93FF938091FF014A
:1019100090910002893E23E0920708F456C080911E
:101920004102882321F0C0914102C15001C0CFE0A3
:1019300034E0C302E0011124CF5FDD4F688179817B
:101940008A819B8120E030E040E050E40E94A32C9B
:101950001816FCF4C0E0D0E060E070E0CB01FE01BE
:10196000EE0FFF1FEE0FFF1FEF5FFD4F2081318154
:10197000428153810E94DF2A2196C031D10579F737
:1019800020E030E040E85DE30E94A82C6B017C0180
:1019900004C0C880D980EA80FB8060910A0170E0B1
:1019A00080E090E00E94F32BA70196010E94A82CF2
:1019B00060939F017093A0018093A1019093A20175
:1019C000109200021092FF0105C001969093000250
:1019D0008093FF018091FD019091FE01019690930B
:1019E000FE018093FD018091FD019091FE016AE06E
:1019F00070E00E942A2D892B09F059C089B190917D
:101A00009801809589279091FC019823292F209592
:101A10002093FC019091FB01982392279093FB0166
:101A2000822389239091980198279093980190910F
:101A30009801209146029823922B90934602209180
:101A400098019091FA0120958223892B8093FA01C5
:101A500080919801887B19F486E48093F901809144
:101A6000F90181508093F901811108C0809198019A
:101A70009091F801887B892B8093F80180919801DF
:101A8000887B19F481E08093F7018091F701815000
:101A900019F08093F7010BC08FE08093F7018091DC
:101AA00098019091F601887B892B8093F6018091B3
:101AB00098018093F5018091F50184708093F50180
:101AC000811109C080919C01882329F010929C010A
:101AD0008FE080939D01C091F301D0E0CC0FDD1F1A
:101AE00087E00E941B1E8C2B8093F3018F3F21F413
:101AF00081E08093090106C0873021F4109209012A
:101B00008093F20180910901811105C010920501B5
:101B10008EE18093F4018091F40181117CC181E018
:101B20008093050180919A0190919B01892B49F046
:101B300080919A0190919B01019790939B018093D2
:101B40009A018091640487FD69C09091650497FDB6
:101B500065C090916F049923A1F020916D0430919C
:101B60006E042250310930936E0420936D0420914D
:101B70006D0430916E0437FF04C010926E04109211
:101B80006D040E941B1E2091670430E082179307AA
:101B900011F4C3E001C0C0E0809165040E941B1EE7
:101BA0002091670430E08217930711F481E0C82781
:101BB00080916A0490916B048C1B80FF18C02C2FBD
:101BC000CC0F330B30936B0420936A04209168048C
:101BD000309169048270082E000C990B0197820FD6
:101BE000931F909369048093680481E001C080E0B2
:101BF00090916F04992391F0882381F080916D0476
:101C000090916E048F3C914448F480916D049091C2
:101C10006E04C29690936E0480936D040E946D1FB3
:101C2000C0907E04D0907F04E0908004F090810406
:101C30009B01AC012C193D094E095F0969017A012C
:101C40003091660413163CF03111CBC0209174041E
:101C5000222309F4C6C04AE0C416D104E104F10409
:101C600008F4BFC060937E0470937F048093800467
:101C70009093810490917504832F992331F13E3024
:101C800008F08E508770806480937C0080917A0089
:101C9000806480937A0080917A0086FDFCCF8091E9
:101CA00078002091790090E0922B2091820430916D
:101CB00083048217930784F021E0409184045091BB
:101CC0008504481759074CF005C00E941B1E21E0EF
:101CD000892B19F420E001C021E09091670481E094
:101CE000892782133DC04091760450917704423099
:101CF000510590F1409170045091710441305105AB
:101D000019F442E050E010C04091780450917904F9
:101D10004230510590F060917C0470917D0446172B
:101D20005707D0F444E050E050937104409370049E
:101D300010927904109278040FC080917204882365
:101D400029F040917C0450917D0402C041E050E0B4
:101D5000509379044093780410927704109276049B
:101D6000921321C085E090E09093710480937004F9
:101D7000809176049091770420917A0430917B04CD
:101D80002817390750F420917304222331F021E001
:101D900030E030937104209370048C0D9D1D90935E
:101DA0007704809376048091780490917904009769
:101DB000C1F0AC0160E070E0C416D506E606F70697
:101DC00010F4B701A601841B950B909379048093BE
:101DD0007804892B31F483E090E090937104809330
:101DE00070048DE78093B300FF91EF91DF91CF9165
:101DF000BF91AF919F918F917F916F915F914F9123
:101E00003F912F91FF90EF90DF90CF900F900FBEFA
:101E10000F901F90189581508093F40183CECF933B
:101E2000DF93EC010E94081B43E060E083EB94E049
:101E30000E94BE15BE0183EB94E0DF91CF910C941C
:101E40006710CF92DF92EF92FF920F931F93CF9381
:101E5000DF936C017A018B01C0E0D0E0CE15DF0585
:101E600081F0D8016D918D01D601ED91FC91019029
:101E7000F081E02DC6010995892B11F02196EECF56
:101E80007E01C701DF91CF911F910F91FF90EF90DD
:101E9000DF90CF900895FC01538D448D252F30E0C5
:101EA000842F90E0821B930B541710F0CF96089567
:101EB00001970895FC01918D828D981761F0828DB4
:101EC000DF01A80FB11D5D968C91928D9F5F9F736E
:101ED000928F90E008958FEF9FEF0895FC01918D10
:101EE000828D981731F0828DE80FF11D858D90E07D
:101EF00008958FEF9FEF0895FC01918D228D892F1A
:101F000090E0805C9F4F821B91098F739927089501
:101F100085EB93E00E947C0F21E0892B09F420E0FF
:101F2000822F0895FC01848DDF01A80FB11DA35AF3
:101F3000BF4F2C91848D90E001968F739927848FE9
:101F4000A689B7892C93A089B1898C91837080640C
:101F50008C93938D848D981306C00288F389E02DAD
:101F600080818F7D80830895EF92FF920F931F935E
:101F7000CF93DF93EC0181E0888F9B8D8C8D98133C
:101F800005C0E889F989808185FD26C0F62E0B8D74
:101F900010E00F5F1F4F0F731127E02E8C8DE8129A
:101FA0000CC00FB607FCFACFE889F989808185FF5C
:101FB000F5CFCE010E94920FF1CF8B8DFE01E80F7D
:101FC000F11DE35AFF4FF0829FB7F8940B8FEA8917
:101FD000FB89808180620AC09FB7F894EE89FF89EF
:101FE0006083E889F98980818370806480839FBFE2
:101FF00081E090E0DF91CF911F910F91FF90EF90E2
:102000000895CF93DF93EC01888D8823C9F0EA8986
:10201000FB89808185FD05C0A889B9898C9186FDE1
:102020000FC00FB607FCF5CF808185FFF2CFA889DE
:10203000B9898C9185FFEDCFCE010E94920FE7CF39
:10204000DF91CF91089580E090E0892B29F00E94E4
:10205000880F81110C9400000895DC011C968D916D
:102060009C911D97DC01ED91FC910190F081E02D98
:1020700009940895DC011C968D919C911D97DC01BB
:10208000ED91FC910484F585E02D0994DC011C960A
:102090008D919C911D97DC01ED91FC910284F3855B
:1020A000E02D0994DC011C968D919C911D97DC011B
:1020B000ED91FC910084F185E02D09940E94582D4A
:1020C000DC01ED91FC910190F081E02D0994EF92FB
:1020D000FF920F931F93CF93DF938C017B01C0E09E
:1020E000D0E0F701EC0FFD1F6491662361F0D80189
:1020F000ED91FC910190F081E02DC8010995892BAB
:1021000011F02196EECFCE01DF91CF911F910F916B
:10211000FF90EF9008956115710579F0FB01019032
:102120000020E9F73197AF01461B570BDC01ED9119
:10213000FC910280F381E02D099480E090E0089505
:102140008F929F92AF92BF92EF92FF920F931F9345
:10215000CF93DF93CDB7DEB7A1970FB6F894DEBF6C
:102160000FBECDBF7C01FA01CB0119A2223008F4C9
:102170002AE08E010F5D1F4F822E912CA12CB12CD5
:10218000BF01A50194010E94AD2AF901CA010150C5
:1021900011096A3014F4605D01C0695CD8016C9368
:1021A000232B242B252B61F7B801C7010E948B102C
:1021B000A1960FB6F894DEBF0FBECDBFDF91CF91D1
:1021C0001F910F91FF90EF90BF90AF909F908F90D5
:1021D00008957F928F929F92AF92BF92CF92DF929B
:1021E000EF92FF920F931F93CF93DF938C016A01BD
:1021F0007B01722E9A01AB01C701B6010E94152D19
:10220000882319F06BE671E027C046015701E89476
:10221000B7F82FEF3FEF4FE75FE7C501B4010E942A
:10222000152D81110DC02FEF3FEF4FE75FE7C5017F
:10223000B4010E944B2B18161CF46FE671E00CC021
:102240002FEF3FEF4FE75FE4C701B6010E94A32CD9
:10225000181694F463E771E0C801DF91CF911F91E4
:102260000F91FF90EF90DF90CF90BF90AF909F9035
:102270008F907F900C948B102FEF3FEF4FE75FEC28
:10228000C701B6010E944B2B87FDE4CF20E030E070
:10229000A901C701B6010E944B2B87FF0AC06DE25E
:1022A000C8010E946010EC01F7FAF094F7F8F0947E
:1022B00002C0C0E0D0E0B12C60E070E080E09FE3BD
:1022C0007B1441F020E030E040E251E40E94502BCA
:1022D000B394F6CFA70196010E94DF2A6B017C011F
:1022E0000E94C22B4B015C012AE0AB01BC01C8017A
:1022F0000E94A010C80FD91F7720C1F1C501B401F9
:102300000E94F12B9B01AC01C701B6010E94DE2A9D
:102310006B017C016EE2C8010E946010C80FD91FDA
:1023200020E030E040E251E4C701B6010E94A82C51
:102330004B015C010E94C22B6B01E12CF12C2AE0C5
:10234000B701A601C8010E94A010C80FD91FC7017C
:10235000B6010E94F12B9B01AC01C501B4010E94A2
:10236000DE2A6B017C017A947110DACFCE01DF9105
:10237000CF911F910F91FF90EF90DF90CF90BF9082
:10238000AF909F908F907F90089567E771E00C94D5
:102390008B101F920F920FB60F9211242F933F9321
:1023A0004F935F936F937F938F939F93AF93BF935D
:1023B000EF93FF9385EB93E00E94920FFF91EF91D3
:1023C000BF91AF919F918F917F916F915F914F914D
:1023D0003F912F910F900FBE0F901F9018951F9255
:1023E0000F920FB60F9211242F938F939F93EF9319
:1023F000FF93E091C503F091C6038081E091CB0388
:10240000F091CC0382FD12C090818091CE038F5F4A
:102410008F732091CF03821751F0E091CE03F0E04B
:10242000EB54FC4F958F8093CE0301C08081FF91C8
:10243000EF919F918F912F910F900FBE0F901F9052
:102440001895DC0180E0615098F02D91982F92272B
:10245000E92FEF70F0E0E35EF54F249192959F70C5
:10246000E92FF0E0E35DF54FE491822F8E27EBCF6B
:102470000895FC0190810180F281E02DF894818122
:10248000892B81832281892F809528232283A7E0AD
:10249000B0E01197F1F7218182238183A3E2B0E0BC
:1024A0001197F1F780817894EFECF0E03197F1F734
:1024B000982381E009F480E00895FC019081018077
:1024C000F281E02D892F809560FF12C0F89422815F
:1024D000822382838181892B8183A3E2B0E01197DB
:1024E000F1F78281982B9283789487ED90E011C068
:1024F000F8942281822382838181892B8183AFEFAB
:10250000B0E01197F1F78281982B928378948FE055
:1025100090E00197F1F70895DF92EF92FF920F9309
:102520001F93CF93DF93EC01D62EE42E08E010E04A
:10253000FF24F39461E08D2D8F2109F460E0CE013A
:102540000E945D12FF0C01501109A1F7E11010C0AB
:10255000F894E981FA81918188818095892381832A
:10256000E981FA8192818881809589238283789498
:10257000DF91CF911F910F91FF90EF90DF90089521
:10258000EF92FF920F931F93CF93DF938C017B0108
:1025900040E065E50E948C12E70188E0E80EF11C3E
:1025A000699140E0C8010E948C12CE15DF05C1F789
:1025B000DF91CF911F910F91FF90EF900895DC0173
:1025C0002C911196ED91FC911297F8948181922FA4
:1025D00090958923818378948DE743E050E0815082
:1025E00021F1DA011197F1F730813223C1F3F89428
:1025F0008281892382838181822B81837894ABE7D6
:10260000B7E01197F1F7F89481819823918383E1E2
:1026100091E00197F1F78081282381E009F080E0C3
:102620007894E3E6F6E03197F1F708950F931F935E
:10263000CF938C01FC0164838085C62FC80F6C2F5B
:102640006F70C8010E94A6156C2F62956F70606153
:10265000C801CF911F910F910C94A6152F923F9214
:102660004F925F926F927F928F929F92AF92BF92A2
:10267000CF92DF92EF92FF920F931F93CF93DF934E
:10268000CDB7DEB72A970FB6F894DEBF0FBECDBF29
:10269000DC011E962D913C911F972115310509F4FF
:1026A0006CC19A878987F90132964490319674916A
:1026B000E72EF12CB7E0EB0EF11C43E0F594E79424
:1026C0004A95E1F7EA823196A4913196E4916D3012
:1026D00059F4FC018681882309F44CC160E08985A6
:1026E0009A850E94161346C16A3009F065C0A98513
:1026F000BA8516968C911697882321F060E0CD015B
:102700000E941613E985FA8501890E9DE02C11249B
:10271000278126952695269565816E0D8E2D821B27
:10272000860F9485992309F421C118160CF01EC157
:10273000A985BA851B969C911B97890F87701B965C
:102740008C931B972E1915962C9315971E96ED9129
:10275000FC911F97309769F03396E491F0E037963B
:1027600083E0F595E7958A95E1F70E9FE02D11241A
:1027700001C0E0E00FEF020F0E0FE985FA854681F8
:1027800041506481CF010E94D015A985BA851C965D
:102790008C911C97813009F0EDC01B966C911B97B2
:1027A000660F660F660F6F731A966C931A976064C4
:1027B000CD010E94A615DEC06A1708F4DEC08E2F78
:1027C00090E0FC01EA0FF11D462F50E04E175F0725
:1027D0000CF0D3C0A9014A5F5F4F6A1BA985BA8577
:1027E0001996FC9119975196EC91FE9FE02D1124BA
:1027F000E887F901A4913196249130E03A2B2230F8
:10280000310570F44E9CC0014F9C900D1124689FBF
:102810008001699F100D1124040F151F312C22C057
:10282000777021F028E0322E371A01C0312CFA01DE
:1028300020E0A0E0B0E0261731F03491A30FB11DE5
:102840002F5F3196F8CFFA01E20FF11D4490EA9E16
:102850008001EB9E100DFA9E100D1124080F191F18
:10286000040F151FA985BA851496BC91BB83E98511
:10287000FA85F581FC83A985BA851D96BC91BD8337
:10288000E42DF0E0FF83EE83812C912CC12CD12C20
:10289000C982FA81CF1608F068C0212C36019FEF5B
:1028A000691A790AA985BA8551968C91519728168B
:1028B00008F053C0ED811D96EC93F981F11102C02F
:1028C000222051F0A985BA8515964C9115974F5F36
:1028D0006B81CD010E94BE15A12CB12CA41410F067
:1028E000B12C2FC0F401EA0DFB1DE00FF11F549035
:1028F000332061F0E614F70449F4E52DF0E0032CF1
:1029000002C0F595E7950A94E2F75E2EE985FA850F
:102910008189823069F4E52D2110E295EF70F0E0B5
:10292000E35FF54F5490652D89859A850E9489153E
:10293000652D89859A850E948915FFEFAF1ABF0A18
:10294000CDCF8885B81639F060E089859A850E94D8
:102950008915B394F6CF2394A5CF9FEFC91AD90A4E
:10296000AE81BF818A0E9B1E93CF6C8189859A852B
:102970000E94AE1581E090E002C080E090E02A96CF
:102980000FB6F894DEBF0FBECDBFDF91CF911F9180
:102990000F91FF90EF90DF90CF90BF90AF909F90FE
:1029A0008F907F906F905F904F903F902F90089501
:1029B00008950895E0918B0180918A01E81730F421
:1029C000F0E0E552FD4F808190E008958FEF9FEF9A
:1029D000089590918B0180918A01981750F4E92F06
:1029E000F0E0E552FD4F208130E09F5F90938B0136
:1029F00002C02FEF3FEFC901089580918A0190E056
:102A000020918B01821B9109089540916C02262F21
:102A100030E0240F311D21323105DCF42091B50264
:102A20002430C9F4FC0180E090E0861758F430911E
:102A30006C022191DC01A45BBD4FA30FB11D2C934F
:102A40000196F3CF80916C02680F60936C0280E076
:102A5000089581E0089582E00895CF92DF92EF9289
:102A6000FF920F931F93CF93DF937C01CB018A01D9
:102A700020918F01222389F0EB016B01C40ED51E3A
:102A8000CC15DD0569F06991D701ED91FC910190BC
:102A9000F081E02DC7010995F3CF642F0E94051541
:102AA000C801DF91CF911F910F91FF90EF90DF90C0
:102AB000CF900895CF93DF931F92CDB7DEB7698390
:102AC00020918F012223D1F020918C01203240F0FF
:102AD00021E030E0FC013383228380E090E015C0E8
:102AE00080918D01E82FF0E0E554FD4F99819083AE
:102AF0008F5F80938D0180938C0105C061E0CE01D2
:102B000001960E94051581E090E00F90DF91CF9132
:102B10000895CF93DF93EC018D85882319F08150C0
:102B20008D8711C09C818E81981768F488896827E9
:102B3000E881F9810084F185E02D42E0CE0109951C
:102B40008C818F5F8C83DF91CF910895DC01ED91B3
:102B5000FC910084F185E02D40E00994FC0187811F
:102B6000869586958695681740F465839385690FE9
:102B70006770606BCF010C94A61508951F93CF93D7
:102B8000DF93EC01142F8E81681718F4CE010E9498
:102B90001613612FCE01DF91CF911F910C94AE15CA
:102BA000CF92DF92EF92FF920F931F93CF93DF9319
:102BB000EC01F62EC42ED22E1D868F818695869529
:102BC0008695081710F00FEF080F1D2D011780F0E4
:102BD000412F6F2DCE010E94BE15EF2CCE1430F088
:102BE0006889CE010E948915E394F8CF1F5FEECF6C
:102BF0004D2D6F2DCE01DF91CF911F910F91FF9041
:102C0000EF90DF90CF900C94BE151092B50281E04A
:102C10008093B40210928F0261E082E10E94441E10
:102C200061E083E10E94441EE9EBF0E080818E7F49
:102C3000808380818D7F808388E48093B80085E4E1
:102C40008093BC000895CF93DF9391E090934B0263
:102C50008823B9F0C091B800D091BA008091BC002F
:102C60008A7B8093BC0060E082E10E94441E60E0A9
:102C700083E10E94441E0E940516D093BA00C093BF
:102C8000B800DF91CF9108958F929F92AF92BF923B
:102C9000CF92DF92EF92FF920F931F93CF93DF9328
:102CA00010918C01113208F0C2C0D0918E010E94A7
:102CB0000E1F6B017C01C091B502CC2311F18091F4
:102CC000B7029091B802A091B902B091BA02892BD3
:102CD0008A2B8B2B81F30E940E1F8090B70290905D
:102CE000B802A090B902B090BA02DC01CB018C19F5
:102CF0009D09AE09BF0988169906AA06BB06D8F633
:102D000082C082E08093B50281E08093B4028FEFAD
:102D10008093B3021092B2021093B102ABEBB2E017
:102D2000E1E9F2E080E0181721F09D9191938F5F27
:102D3000FACF10929002909190028D2F880F892BDC
:102D40008093900280918F02813089F510928F02DA
:102D50000E940E1F6B017C01809190028093BB004A
:102D60008091B7029091B802A091B902B091BA02D5
:102D7000892B8A2B8B2BA9F00E940E1F0091B70282
:102D80001091B8022091B9023091BA02DC01CB0156
:102D90008C199D09AE09BF09081719072A073B07B7
:102DA00090F18091BC0083FDD7CF85EC01C085EE0A
:102DB0008093BC000E940E1F6B017C018091B502C4
:102DC000823039F58091B7029091B802A091B90292
:102DD000B091BA02892B8A2B8B2B81F30E940E1F94
:102DE0000091B7021091B8022091B9023091BA0255
:102DF000DC01CB018C199D09AE09BF090817190721
:102E00002A073B07D8F68091B6020E942316C5E038
:102E100013C08091B3028F3F79F08091B30280326A
:102E200041F08091B302803331F0C4E005C0C1E0CD
:102E300003C0C2E001C0C3E010928D0110928C016A
:102E400010928F018C2FDF91CF911F910F91FF90E6
:102E5000EF90DF90CF90BF90AF909F908F900895AC
:102E600085ED8093BC008091B7029091B802A0914B
:102E7000B902B091BA020796A11DB11D23E0B69523
:102E8000A795979587952A95D1F72091BC0024FFA7
:102E90001CC04091B7025091B8026091B902709184
:102EA000BA02452B462B472B81F30097A105B105AC
:102EB00041F025E32A95F1F700000197A109B10936
:102EC000E4CF8091B6020C9423161092B5020895B7
:102ED0001F920F920FB60F9211242F933F934F938F
:102EE0005F936F937F938F939F93AF93BF93EF9372
:102EF000FF938091B900887F803609F49CC068F503
:102F0000883209F45BC090F4803109F454C038F47D
:102F1000882309F4F6C0883009F44DC0F6C0883122
:102F200009F44CC0803209F45DC0EFC0803409F46C
:102F300068C048F4803309F455C0883309F0E5C00F
:102F40008093B302D8C0803509F44FC0883509F4A6
:102F50005DC0883409F0D9C0D6C0883909F4C7C02B
:102F6000A8F4883709F467C038F4883609F463C0D8
:102F7000803709F460C0C9C0883809F4B8C0803906
:102F800009F45FC0803809F0C0C05BC0803B09F421
:102F900086C038F4803A09F466C0883A09F47FC0E4
:102FA000B4C0803C09F4A7C0883C09F4A4C0883BA5
:102FB00009F48AC0AAC08091900210C09091B20218
:102FC0008091B102981770F5E091B20281E08E0F06
:102FD0008093B202F0E0EF56FD4F80818093BB00FA
:102FE00085EC86C08093B3028EC0E091B20281E08E
:102FF0008E0F8093B2028091BB00F0E0EF56FD4F40
:1030000080839091B2028091B1026EC0E091B202D1
:1030100081E08E0F8093B2028091BB00F0E0EF560A
:10302000FD4F80838091B40281116DC081E0809357
:103030008F0284EA61C083E08093B50210928E0211
:10304000CFCF80918E02803208F051C0E0918E0285
:1030500081E08E0F80938E028091BB00F0E0E259F8
:10306000FD4F8083BDCF85EC8093BC001092B502EC
:1030700080918E02803230F4E0918E02F0E0E259CD
:10308000FD4F108260918E0270E0E0918601F09118
:1030900087018EE692E0099510928E0236C084E098
:1030A0008093B50210926D0210926C02E09188013B
:1030B000F0918901099580916C02811105C081E030
:1030C00080936C0210924C02E0916D0281E08E0FB1
:1030D00080936D02F0E0E45BFD4F80818093BB0044
:1030E00090916D0280916C02981708F479CF85E871
:1030F0008093BC000AC085EC8093BC001092B5029E
:1031000004C01092B3020E943017FF91EF91BF915B
:10311000AF919F918F917F916F915F914F913F916F
:103120002F910F900FBE0F901F9018958F929F9226
:10313000AF92BF92CF92DF92EF92FF920F931F93C5
:10314000CF93DF93EC011C811230B1F130F41123E5
:1031500009F429C1113039F0D1C01330E1F1143034
:1031600009F47CC0CBC00E946D1FC8A0D9A0EAA002
:10317000FBA0DC01CB018C199D09AE09BF09CC8CE9
:10318000DD8CEE8CFF8C8C159D05AE05BF0508F41B
:10319000BBC08B81833041F030F0873030F484E065
:1031A0008C831D8302C082E08C830E946D1F68A304
:1031B00079A38AA39BA3A8C08B81813051F008F426
:1031C0009AC0823009F098C081E09D81913009F465
:1031D00080E08D8391C00E946D1F08A119A12AA1D2
:1031E0003BA1DC01CB01801B910BA20BB30B0A8529
:1031F0001B852C853D85081719072A073B0758F1C1
:103200000E946D1FC884D12CE12CF12C08A119A1BA
:103210002AA13BA14B015C01801A910AA20AB30AC0
:10322000A5019401898590E0A0E0B0E0BC01CD014A
:103230006C197D098E099F090E941A2D2A853B85EC
:103240004C855D850E94832AC20ED31EE41EF51EA6
:10325000DF82CE8259C01C821D8256C08D818111B1
:1032600018C00E946D1FC8A0D9A0EAA0FBA0DC0175
:10327000CB018C199D09AE09BF09CA88DB88EC888F
:10328000FD888C159D05AE05BF0518F081E08D8386
:103290007EC08D818130B1F40E946D1FC8A0D9A07D
:1032A000EAA0FBA0DC01CB018C199D09AE09BF0986
:1032B000CE84DF84E888F9888C159D05AE05BF05AE
:1032C00008F064C08B81853009F053C00E946D1FE7
:1032D000CCA0DDA0EEA0FFA0DC01CB018C199D09E4
:1032E000AE09BF09CE88DF88E88CF98C8C159D0566
:1032F000AE05BF0548F01D821C8206C065ED7BE06F
:1033000085EB93E00E94571A8C819A818330C9F42F
:103310006E817F81992331F08FEF90E05C01A61AD6
:10332000B70AB5018881DF91CF911F910F91FF906E
:10333000EF90DF90CF90BF90AF909F908F900C94C4
:10334000AF1E8D8161E0911103C0811103C001C0E6
:10335000811160E08881DF91CF911F910F91FF90E3
:10336000EF90DF90CF90BF90AF909F908F900C9494
:10337000441E863049F68A8D9B8D880F991F28A59B
:1033800039A52817390708F0B6CFBECF1D820E9495
:103390006D1F68A379A38AA39BA388A599A501960D
:1033A00099A788A78FCFDF91CF911F910F91FF90A1
:1033B000EF90DF90CF90BF90AF909F908F90089547
:1033C0000F931F93CF93DF9369E771E085EB93E051
:1033D0000E948B1085EB93E00E94C5118091B9018A
:1033E000811103C06CEC7BE05AC084E1E9EBF1E0B1
:1033F000A5EAB1E001900D928A95E1F71092DA0406
:103400001092D9041092DC041092DB04E9EBF1E095
:1034100080E090E020E030E04191442381F04032B0
:10342000D9F7DF0111971C92D901AA0FBB1FA75230
:10343000BB4FED93FC9301962F5F3F4FEDCF9093E1
:10344000D8048093D70406E51AE0C0E0D0E0B801C4
:1034500089EB91E00E94532A892B69F486E18C9FC5
:10346000F0018D9FF00D1124E659F54F859194914F
:10347000FC0109950CC021960A5E1F4FC131D10590
:1034800031F766E47AE085EB93E00E94571A1092D8
:10349000A4011092A3011092B9016DE37AE085EBCB
:1034A00093E0DF91CF911F910F910C9467100F93D0
:1034B0001F93CF93DF93EC010E9467108C01CE0124
:1034C0000E94C511800F911FDF91CF911F910F9125
:1034D0000895CF92DF92EF92FF920F931F93CF93B5
:1034E000DF936B01770FEE08FF08F7FE1BC0EC01BE
:1034F0006DE20E9460108C0144275527BA014C19D7
:103500005D096E097F092AE0CE010E94A010800F9C
:10351000911FDF91CF911F910F91FF90EF90DF905E
:10352000CF9008952AE0B701A601DF91CF911F91B6
:103530000F91FF90EF90DF90CF900C94A010DC01E2
:10354000ED91FC910280F381E02D09940F931F937C
:10355000CF93DF93182F062FC2E5D4E042E050E06E
:103560006AE771E08C859D850E949F1A402F50E08C
:1035700060E070E02AE0CE010E94A0108C859D855D
:10358000DC01ED91FC910190F081E02D6BE3099558
:10359000412F50E060E070E02AE0CE010E94A010D0
:1035A0008C859D85DC01ED91FC910190F081E02DF1
:1035B00068E4DF91CF911F910F910994CF93DF932E
:1035C000C82FD62F6AE771E082E594E00E948B1045
:1035D0006C2F70E02D2F30E0D83010F06C5C7F4FF6
:1035E000620F731F82E594E00E94691A68E571E03A
:1035F00082E594E0DF91CF910C948B1047E050E08E
:103600006DE771E080915E0490915F040C949F1AC5
:103610000F938091C1049091C204009781F0FC0146
:103620003396E491F0E0379623E0F595E7952A95F7
:10363000E1F70091C4040E9F002D112401C000E0A9
:103640000E5F009749F0FC0132968491E091C4042A
:103650008E9F802D112401C080E09091BC042091A8
:10366000C404929F202D112490E0820F911D2FE71A
:10367000289FA001299F500D1124415023E060E0B4
:1036800083EB94E00E94D0150F910895DF92EF92A2
:10369000FF920F931F93CF93DF9300D000D0CDB74D
:1036A000DEB710920603109205038DE291E090932D
:1036B000FE028093FD0285E390E0909300038093E7
:1036C000FF028FE590E0909302038093010389E26B
:1036D00090E0909304038093030381E08093FB02C6
:1036E00081E48093FC0283E090E090930C0380934C
:1036F0000B0388E18093070384E690E0909309032D
:10370000809308038BEFE82E82E0F82E04E010E0AF
:10371000F701D1907F01C8010E946D2AD81621F0CF
:103720006D2DC8010E94752A0F5F1F4F06311105CC
:1037300079F78BEC99EEAAEFB8E189839A83AB8392
:10374000BC83CE0101967C0100E010E0F701D1902E
:103750007F01C8010E946D2AD81621F06D2DC80185
:103760000E94752A0F5F1F4F0430110579F762EE32
:103770007BE085EB93E00F900F900F900F90DF911F
:10378000CF911F910F91FF90EF90DF900C94571AFB
:103790006F927F928F929F92AF92BF92CF92DF9261
:1037A000EF92FF920F931F93CF93DF938C01EB0166
:1037B0008091A5049091A6040E94DF12882309F449
:1037C00047C0B8018091A5049091A6040E94C01240
:1037D00040E06EEB8091A5049091A6040E948C12AB
:1037E0008E016E0189E0C80ED11C7E01A090A50457
:1037F000B090A60488E0882E912C712C66246394E6
:10380000C5010E94391281117628660CE1E08E1AFA
:103810009108B1F7F70171927F01CE16DF0631F7FB
:103820008091A5049091A6040E94DF12813081F45A
:10383000F80181918F01811104C0EC15FD05C1F7DC
:1038400007C068E0CE010E94211291E0288528136C
:1038500090E0892FDF91CF911F910F91FF90EF9012
:10386000DF90CF90BF90AF909F908F907F906F90A0
:103870000895833081F028F4813099F08230A1F0EE
:1038800008958730A9F08830B9F08430D1F4809160
:1038900080008F7D03C0809180008F7780938000AF
:1038A000089584B58F7702C084B58F7D84BD089557
:1038B0008091B0008F7703C08091B0008F7D80939E
:1038C000B00008950F931F93CF93DF93CDB7DEB76A
:1038D00029970FB6F894DEBF0FBECDBF8C01BE0195
:1038E0006F5F7F4F0E94C81B882381F12A8130E0DF
:1038F000A901542F4427550F550F550F898128E0F2
:10390000829FC00111249A01282B392BF801808154
:103910008031F9F468856623E1F070E08F81AB01B6
:10392000481B5109CA019695982F88279795879526
:103930000E943E2D60527109C901807F53E0880FBB
:10394000991F5A95E1F7860F971F04C080E894EEFF
:1039500001C0C90129960FB6F894DEBF0FBECDBFD6
:10396000DF91CF911F910F910895BF92CF92DF9277
:10397000EF92FF920F931F93CF93DF93EC016B01B4
:103980008D85811105C0CE010E94DF12811105C015
:103990001B861D861C8680E060C040E060EFCE0183
:1039A0000E948C1201E0E12CB12C11E0CE010E94AA
:1039B0003912F82ECE010E94391291E0F91203C09B
:1039C0008130B1F434C02E2D30E0F8121BC08B854D
:1039D000181738F4FE01E20FF31F8381802341F4AE
:1039E00002C0811729F0F12C193058F41C8709C046
:1039F000FE01EE0DF11D8381802B8383FF24F39460
:103A000009C0B12EFE01E20FF31F9381802F809534
:103A1000892383836F2DCE010E945D121F5F000FEB
:103A200011F4E39401E087E08E1508F0BFCF113464
:103A300008F4AECFBB86B11002C081E08D878B81C8
:103A4000882309F4A5CFDE011396F6012B968D91FC
:103A50008193CA17DB07D9F781E0DF91CF911F91DE
:103A60000F91FF90EF90DF90CF90BF900895FF925D
:103A70000F931F93CF93DF938C01F62EE091A50453
:103A8000F091A604138615861486DF011B963396E3
:103A90001E92EA17FB07E1F7C0E0B8018091A50488
:103AA0009091A6040E94B51CD82F882369F0FC12BF
:103AB00008C067E0C8010E942112F80197818917A8
:103AC00021F0CF5FFC1648F7D0E08D2FDF91CF912A
:103AD0001F910F91FF900895CF93DF93CDB7DEB77D
:103AE00029970FB6F894DEBF0FBECDBFBE016F5F42
:103AF0007F4F0E94C81B882389F08D818F3361F02E
:103B000020F48F3159F489E00CC08F3519F08F37CC
:103B100039F004C08BE005C08AE003C080E001C03A
:103B20008CE029960FB6F894DEBF0FBECDBFDF91B3
:103B3000CF9108950F93CF93DF93C3EBD4E01B860F
:103B40001A8660E4CE010E94A6150F81069506959F
:103B5000069501504E81415020E060E0CE010E9468
:103B6000D015DF91CF910F910895CF93DF93AC01E2
:103B700060E070E02AE085EB93E00E94A010EC0189
:103B800085EB93E00E94C5118C0F9D1FDF91CF91B3
:103B900008950F931F93CF93DF938C01EB018091D6
:103BA000D9049091DA040E94352A8017910788F091
:103BB000C817D90770F02091D7043091D80421306C
:103BC000310539F49093D6048093D50481E090E0D8
:103BD00008C069E47CE085EB93E00E94571A80E01E
:103BE00090E0DF91CF911F910F9108951F93CF9394
:103BF000DF93182FEB01642F81E00E94A61A112396
:103C000011F062E001C061E088E20E94DE1A60E02B
:103C10008EE10E94DE1ABE0182E594E00E946710E8
:103C200060E088E20E94DE1A67E08EE1DF91CF91CA
:103C30001F910C94DE1ACF93DF93282F30E0F90107
:103C4000EB5CF34F8491F901E35FF34FD491F901F9
:103C5000E750F44FC491CC2391F081110E94391C9C
:103C6000EC2FF0E0EE0FFF1FE151F44FA591B4915E
:103C7000EC91ED2381E090E021F480E002C080E04F
:103C800090E0DF91CF9108951F93CF93DF93282F7A
:103C900030E0F901EB5CF34F8491F901E35FF34FFE
:103CA000D491F901E750F44FC491CC23C1F0162F01
:103CB00081110E94391CEC2FF0E0EE0FFF1FE55D33
:103CC000F34FA591B4919FB7F894111104C08C9152
:103CD000D095D82302C0EC91DE2BDC939FBFDF91FF
:103CE000CF911F910895CF93DF9390E0FC01E35FA4
:103CF000F34F2491FC01E750F44F8491882361F144
:103D000090E0880F991FFC01EF5DF34FC591D491AE
:103D1000FC01E55DF34FA591B491611109C09FB716
:103D2000F8948881209582238883EC912E230BC000
:103D3000623061F49FB7F8948881322F30958323E5
:103D40008883EC912E2B2C939FBF06C08FB7F894DD
:103D5000E8812E2B28838FBFDF91CF9108951F9389
:103D6000CF93DF93182FEB0161E00E94731E209721
:103D700011F460E004C0CF3FD10539F461E0812F38
:103D8000DF91CF911F910C94441EE12FF0E0EB5C8A
:103D9000F34FE491E330F9F048F4E130B9F0E23068
:103DA000A1F584B5806284BDC8BD34C0E730E9F0B8
:103DB000E83019F1E43049F5809180008062809309
:103DC0008000D0938B00C0938A0024C084B58068A3
:103DD00084BDC7BD1FC08091800080688093800033
:103DE000D0938900C093880015C08091B00080688E
:103DF0008093B000C093B3000DC08091B00080628A
:103E00008093B000C093B40005C0C038D1050CF059
:103E1000B5CFAFCFDF91CF911F9108953FB7F89401
:103E20008091E2049091E304A091E404B091E50450
:103E300026B5A89B05C02F3F19F00196A11DB11D05
:103E40003FBFBA2FA92F982F8827820F911DA11D40
:103E5000B11DBC01CD0142E0660F771F881F991F7D
:103E60004A95D1F708958F929F92AF92BF92CF92C9
:103E7000DF92EF92FF926B017C010E940E1F4B01BB
:103E80005C01C114D104E104F104F1F00E940E1FA1
:103E9000DC01CB0188199909AA09BB09883E934026
:103EA000A105B10570F321E0C21AD108E108F108BB
:103EB00088EE880E83E0981EA11CB11CC114D104A9
:103EC000E104F10419F7DDCFFF90EF90DF90CF9080
:103ED000BF90AF909F908F9008952FB7F894609106
:103EE000DE047091DF048091E0049091E1042FBF23
:103EF00008951F920F920FB60F9211242F933F93A4
:103F00008F939F93AF93BF938091DE049091DF04D2
:103F1000A091E004B091E1043091DD0423E0230F8F
:103F20002D3720F40196A11DB11D05C026E8230FF1
:103F30000296A11DB11D2093DD048093DE049093B1
:103F4000DF04A093E004B093E1048091E204909137
:103F5000E304A091E404B091E5040196A11DB11D14
:103F60008093E2049093E304A093E404B093E50407
:103F7000BF91AF919F918F913F912F910F900FBE65
:103F80000F901F901895CF93DF93CDB7DEB7699749
:103F90000FB6F894DEBF0FBECDBF789484B58260B3
:103FA00084BD84B5816084BD85B5826085BD85B5DD
:103FB000816085BD80916E00816080936E0010925B
:103FC00081008091810082608093810080918100D6
:103FD0008160809381008091800081608093800067
:103FE0008091B10084608093B1008091B0008160C5
:103FF0008093B00080917A00846080937A008091F1
:104000007A00826080937A0080917A008160809348
:104010007A0080917A00806880937A001092C100C3
:1040200010928B0110928A0110928D0110928C01D6
:104030000E94051688ED94E1909389018093880190
:1040400089ED94E190938701809386018CE08093C1
:10405000B800E091C503F091C60382E08083E0914F
:10406000C103F091C2031082E091C303F091C40335
:1040700080E180831092CD03E091C903F091CA03DF
:1040800086E08083E091C703F091C803808180615E
:104090008083E091C703F091C803808188608083AA
:1040A000E091C703F091C803808180688083E0912C
:1040B000C703F091C80380818F7D80830E94FE1A20
:1040C00044E050E065E571E080915E0490915F040A
:1040D0000E949F1A6BEF72E085EB93E00E946710DD
:1040E00061E08BE00E94731E61E08AE00E94731E13
:1040F00061E089E00E94731E61E08DE00E94731E02
:1041000061E086E00E94731E62E084E00E94731EFC
:1041100062E083E00E94731E62E085E00E94731EED
:1041200062E082E00E94731E62E088E00E94731EDB
:1041300062E087E00E94731E60E08BE00E94441EF4
:1041400060E08AE00E94441E60E089E00E94441E14
:1041500061E086E00E94441E10920A0311E0109371
:104160008F010CE300938E0110928D0110928C014F
:1041700086E894E00E944416811103C000930A036C
:1041800011C010938F011DE310938E0110928D01C9
:1041900010928C0186E894E00E944416811109C0B7
:1041A00010930A031092000180919901816080931D
:1041B000990180910A0381110EC081E08093000172
:1041C000809199018E7F809399016CEE72E085EB6E
:1041D00093E00E94571A80910001811156C080918E
:1041E0000A031092C6048093C5041092B70410927B
:1041F000B804E6EEF2E085919491E82EE8EEF2E064
:10420000F490E9EEF2E0E491E093B904EAEEF2E032
:10421000E491E093BA04EBEEF2E0E491E093BB04A6
:104220008C01802F8E198F1548F4F801649183EB6F
:1042300094E00E94A6150F5F1F4FF3CF0E949A1DB6
:10424000EBEFF0E0F093C204E093C1048491ECEF53
:10425000F0E0E491F0E0F82B319709F09AC6109263
:10426000BC040E949A1D6DEE70E083EB94E00E9406
:10427000671041E060E083EB94E00E94BE1568EDBA
:1042800070E083EB94E00E9467109E012F5F3F4F28
:104290006901E12CF12C122F0D2DC7010E946D2A0E
:1042A000D6018D936D01BFEFEB1AFB0AE4E0EE1629
:1042B000F10499F789819A81AB81BC818B3C994E3D
:1042C000AA4FB84199F4BBEFCB2EB2E0DB2EC70169
:1042D0000E946D2AD6018D936D01BFEFEB1AFB0A88
:1042E000E6E1EE16F10499F781E001C080E020914B
:1042F0000B0330910C032330310511F4811102C0FE
:104300000E94461B1092800081EC809381001092E5
:10431000820081E280936F001092850010928400E9
:104320008DE78093B30082E08093B00095E0909396
:10433000B1008093700081E08093730480937204D5
:1043400080936F048FEF9FEF9093CE018093CD0108
:104350000E946D1F6093D1017093D2018093D301AD
:104360009093D4018FE00E941B1E892B11F48AE0E8
:1043700001C080E080939D01E091A504F091A60426
:10438000138615861486DF011B9633961E92AE1790
:10439000BF07E1F71092A3041092A404FF24F39442
:1043A000612F702F8091A5049091A6040E94B51CE6
:1043B0008823F1F067E0812F902F0E9421129885C9
:1043C0008913EECF8091A3048F5F8093A30489812A
:1043D000883209F4E2C530F4803109F4DEC5823256
:1043E000F9F6DBC58B3309F4D8C58234C9F6D5C5D7
:1043F00060E080E991E00E94371D882309F42EC116
:1044000080919001803109F487C0612F702F80E97D
:1044100091E00E94C81B882309F47EC08D818F31F2
:1044200009F47AC08FE18D838091A5049091A60450
:104430000E94DF1260E971E08091A5049091A604CA
:104440000E94C01240E06EE48091A5049091A60401
:104450000E948C1240E06B818091A5049091A6048B
:104460000E948C1240E06C818091A5049091A6047A
:104470000E948C1280919001803141F040E06D816A
:104480008091A5049091A6040E948C122091A20410
:104490008091A5049091A6042223E1F10E94DF12ED
:1044A0008823D1F160E971E08091A5049091A60480
:1044B0000E94C01240919C0468E48091A5049091F0
:1044C000A6040E948C1280919C04811107C064E1B3
:1044D00070E080E090E00E94331F18C080919D043E
:1044E000882329F060E080919E040E94441E64E1CC
:1044F00070E080E090E00E94331F80919D0488234B
:1045000029F061E080919E040E94441E8091A504E0
:104510009091A6040E94DF1289E080939F0480910D
:10452000A3048230F8F0F12C8091A304F816D0F4A3
:1045300080919F048C30B1F06F2D812F902F0E94BD
:10454000371D8981803129F0812F902F0E946C1DA9
:1045500001C08CE090919F04981710F480939F0401
:10456000F394E2CF1092A0048091A5049091A60448
:104570000E94DF1240E06CEC8091A5049091A604AB
:104580000E948C1240919C0464E48091A504909157
:10459000A6040E948C128091A004882309F44BC0C9
:1045A000E0919F048091A1048823F1F080919C0404
:1045B00081111AC00E946D1F6B017C018091A504BE
:1045C0009091A6040E9439128130A9F10E946D1FBA
:1045D000DC01CB018C199D09AE09BF098E3E9240CA
:1045E000A105B10558F327C0E950E33040F4F0E0ED
:1045F000EE0FFF1FE55FFE4F8081918102C08EEEBE
:1046000092E06C01990FEE08FF0880919D048823C9
:1046100029F060E080919E040E94441EC701B6010B
:104620000E94331F80919D04882329F061E08091CE
:104630009E040E94441E60E0812F902F0E94371D2F
:10464000882321F0812F902F0E94621C8091990174
:1046500080618093990167EC70E007C080919901B7
:104660008F7E809399016DEA70E085EB93E00E9464
:10467000571A80919D0181110CC09FB7F8948091C9
:1046800098019FBF82FD05C08FE080939D0110922D
:104690009C0110928B0110928A0110928D01109250
:1046A0008C010E94051688ED94E190938901809316
:1046B000880189ED94E19093870180938601809130
:1046C000920411E010938F0180938E0180919A04DF
:1046D00090919B040E94441681113AC01092940458
:1046E000109293046091950420E1629FB00111241F
:1046F00063608091920410938F0180938E011092D9
:104700008D0110928C0180919A0490919B04DC01A0
:10471000ED91FC910190F081E02D099580919A0432
:1047200090919B04DC01ED91FC910190F081E02DD2
:1047300067ED099580919A0490919B040E9444161C
:10474000811106C087ED93E09093940480939304C5
:1047500060E08DE00E94441E61E089E00E94441EFA
:1047600061E08BE00E94441E61E08AE00E94441EEA
:104770000E94640602E011E073E0A72EE4E0BE2E82
:10478000F8EC4F2E512C612C712C1E01B5E12B0E33
:10479000311CF894209168043091690460916C0494
:1047A00070E0C9010E943E2D9093690480936804D3
:1047B00080916F04882339F0E0906D04F0906E04CE
:1047C000EF2CFF2402C0E12CF12C789460916C0452
:1047D00070E0C9010E943E2D77FF03C0E094F09481
:1047E00008C0672B21F0EFEFEE1AFE0A02C0E12CA1
:1047F000F12C8091CF019091D001E80EF91EF0923A
:10480000D001E092CF01C090CD01D090CE01EC1448
:10481000FD0451F10E946D1F6093D1017093D2018C
:104820008093D3019093D401CE14DF046CF4C701BC
:104830008C199D09880F991F9093DB018093DA01F1
:10484000F8E0F0939D010CC0CE18DF08CC0CDD1C05
:10485000D092DB01C092DA0149E0D42ED0929D01C2
:10486000F092CE01E092CD01F894E0907004F090C7
:1048700071048091700490917104019721F0E1140A
:10488000F10409F0CCC378948091D5018E15B9F16B
:1048900080919E01886080939E0184E193E00E9454
:1048A0000F0FE092D5010E946D1F6093D1017093AC
:1048B000D2018093D3019093D401FF2422E0E21629
:1048C000F104A9F048F4E114F104B9F0EA94EF28F6
:1048D000B1F4B0929D0113C053E0E516F10451F01C
:1048E00084E0E816F10459F4A0929D0108C00093F9
:1048F0009D0105C010939D0102C010929D019FB7BC
:10490000F894809198019FBF82FF30C080919E01F2
:10491000806180939E0180919C01811129C0109239
:1049200053031092540310925503109256031093A0
:104930003A0300933B0387E393E00E94961810929A
:104940007D0310927E0310927F03109280031092D9
:1049500064030093650381E693E00E949618109328
:104960009C0184E093E00E940F0F02C010929C0112
:1049700080E10E94AB0B882319F08DE080939D01AC
:1049800088E00E94AB0B882319F08CE080939D0196
:1049900080E20E94AB0B882319F08EE080939D018A
:1049A0008091050190E0A0E0B0E08093D601909363
:1049B000D701A093D801B093D9018091D6019091ED
:1049C000D701A091D801B091D90140910101509136
:1049D00002016091030170910401481759076A07A9
:1049E0007B07C9F080910501811102C086E001C0FA
:1049F00087E080939D018091D6019091D701A0918D
:104A0000D801B091D9018093010190930201A09344
:104A10000301B093040160919F017091A001809106
:104A2000A1019091A20120E030E0A9010E94A32CF5
:104A300018162CF480919E01806280939E01E09173
:104A40009D018E2F90E0FC013297EE30F10508F0C9
:104A5000E1C0EC5CFF4F0C94522D10925303109266
:104A60005403109255031092560310923A03009388
:104A70003B0387E393E00E94961810927D03109207
:104A80007E0310927F0310928003109364030093BF
:104A9000650381E693E00E94961880919E018460F0
:104AA00080939E0183E593E027C0109253031092F8
:104AB0005403109255031092560310933A03009337
:104AC0003B0387E393E00E94961810927D031092B7
:104AD0007E0310927F031092800310926403009370
:104AE000650381E693E00E94961880919E018260A2
:104AF00080939E0187E493E00E940F0F89C080910C
:104B0000DE01811106C08091DD01811102C0A092F9
:104B1000DC0180919E01816080939E0186E393E099
:104B2000EBCF80919E01806480939E018091DE0195
:104B300081116EC085E00BC08091DE01811168C0DB
:104B400086E005C08091DE01811162C087E080931C
:104B5000DC015EC08091DE0181115AC010929C017F
:104B60001092DD0140926F035092700360927103C6
:104B700070927203409273035092740360927503B3
:104B80007092760310927D0310927E0310927F0341
:104B9000109280030E946D1F6093810370938203C3
:104BA0008093830390938403B092640380916503A0
:104BB00081110EC0B0926503109366030E946D1FB1
:104BC00060938103709382038093830390938403A3
:104BD00081E693E00E9496181092530310925403BA
:104BE000109255031092560310923A0300933B0320
:104BF00087E393E00E9496188091DE01811108C03E
:104C000098E09093DC0104C08091DC01843111F0C4
:104C100010929D01E091DC018E2F90E0883091058B
:104C200008F018C1FC01EE5BFF4F0C94522D10925E
:104C30007D0310927E0310927F03109280031092E6
:104C400064030093650381E693E00E94961800C117
:104C50001092A7031092A8031092A9031092AA031E
:104C600010938E0300938F038BE893E00E949618B5
:104C700010929D01809107018823A1F180C01092BC
:104C8000A7031092A8031092A9031092AA031092EE
:104C90008E0300938F038BE893E00E949618109286
:104CA0009D018091070181116AC0D4C090910601D5
:104CB00080910501981749F061E086E00E94441E4A
:104CC0001093DC0110920701C5C080919A01909168
:104CD0009B01892B09F0BEC061E086E00E94441E62
:104CE000109207011093DC01B5C0109307014092A8
:104CF000990350929A0360929B0370929C03409296
:104D00009D0350929E0360929F037092A0031092A5
:104D1000A7031092A8031092A9031092AA030E945D
:104D20006D1F6093AB037093AC038093AD039093BE
:104D3000AE03B0928E0380918F0381110EC0B092AA
:104D40008F03109390030E946D1F6093AB037093C9
:104D5000AC038093AD039093AE038BE893E00E9485
:104D60009618809105018093060160E086E00E941C
:104D7000441EA0EBB4E0B0939B01A0939A01B092C3
:104D8000DC0168C01093DC011092DE0163C08091E9
:104D90009D01883009F448C180919D01893009F056
:104DA00059C042C180915E0490915F04DC01ED9195
:104DB000FC910084F185E02D0995892B09F04DC106
:104DC0000E946D1FDC01CB012D893E894F89588DD2
:104DD000821B930BA40BB50B883E9340A105B10534
:104DE00008F3F12C61E088E20E94A61A63E273E006
:104DF00082E594E00E94671061E087E30E94A61AB2
:104E00006091DA017091DB0182E594E00E94691AF9
:104E10006F2D898D0E94A61AE090DA01F090DB01D7
:104E2000E114F104A9F00E94081B43E060E083EB69
:104E300094E00E94BE15B701FF0C880B990B0E94ED
:104E4000F32BAB01BC0122E083EB94E00E94E9105C
:104E500010929D0185EB93E00E947C0F892B09F451
:104E600085C085EB93E00E945A0F8B3139F585EBB5
:104E700093E00E947C0F0297D4F385EB93E00E94AD
:104E80005A0F85EB93E00E945A0F813409F06EC0EF
:104E900084E1E5EAF1E0A9EBB1E001900D928A9599
:104EA000E1F7E9EBF1E001900020E9F73197E95BE8
:104EB000F140F093A401E093A30158C0082E000C28
:104EC000990B0E945D2D893049F01CF4883091F0D7
:104ED00035C08A3061F18D3051F130C084E1E5EAAE
:104EE000F1E0A9EBB1E001900D928A95E1F70E9403
:104EF000E0193CC08091A3019091A40118161906F5
:104F0000ACF501979093A4018093A301FC01E754B1
:104F1000FE4F108268E085EB93E00E94601060E62F
:104F200073E085EB93E00E94671068E01BC00E946D
:104F3000E01985EB93E00E94011018C04091A30195
:104F40005091A4019A012F5F3F4F3093A401209309
:104F5000A301FA01E754FE4F8083F901E754FE4FA5
:104F60001082682F85EB93E00E9460108BE893E03D
:104F70000E94961881E693E00E94961887E393E0DA
:104F80000E9496188DE093E00E9496180E942310CC
:104F900000CC81E08093BC0464C98091A4048F5F3D
:104FA0008093A40480919C04811125C08091A50464
:104FB0009091A6040E94DF12612F702F8091A504AA
:104FC0009091A6040E94C01240E064EB8091A50479
:104FD0009091A6040E948C128091A5049091A60441
:104FE0000E943912E82E8091A5049091A6040E9497
:104FF000DF12EE2089F08981803129F0812F902FF6
:105000000E946C1D01C08CE090919F04981708F0DD
:10501000C7C980939F04C4C9F0929C04ECCF10923E
:105020007104109270042FCC809199018460809358
:1050300099016AE571E082E594E00E948B100E947C
:105040006D1F6D8B7E8B8F8B988F9E012F5F3F4FD7
:105050006901E12CF12C4901B3CE80915E0490915D
:105060005F04DC01ED91FC910284F385E02D09954C
:10507000BFEFEB1AFB0AF60181936F0110828235B4
:1050800009F09ECE36E0E316F1040CF4AACE1A8A9B
:10509000198A1C8A1B8AFE01719680E090E0D40177
:1050A000A80FB91F8E159F0544F52D91022E000CF7
:1050B000330B205331092A30310510F00196F2CF1D
:1050C000D401A80FB91F6D91062E000C770B605309
:1050D00071096A30710588F4408151812AE0D22E2D
:1050E000D49E9001D59E300D1124260F371F318399
:1050F000208301968E159F0534F332962E163F06B7
:1051000071F6DB88D98EF9886DCEFC01862F10866A
:105110001186608371831282138214821582178232
:105120001682128613861486158616861786108AAE
:10513000118A128A138A148A158A168A178A108E7F
:10514000118E138E128E148E158E168E178E10A23F
:1051500011A212A213A214A215A216A217A211A69E
:1051600010A661E00C94731E1092B8031092B7035E
:1051700088EE93E0A0E0B0E08093B9039093BA0387
:10518000A093BB03B093BC0325E131E03093B60399
:105190002093B50325EC30E03093C2032093C10384
:1051A00024EC30E03093C4032093C30320EC30E0C0
:1051B0003093C6032093C50321EC30E03093C8033D
:1051C0002093C70322EC30E03093CA032093C90335
:1051D00026EC30E03093CC032093CB031092CE0327
:1051E0001092CF031092D0031092D1031092890431
:1051F0001092880480938A0490938B04A0938C046B
:10520000B0938D0487E291E09093870480938604A5
:105210001092B6041092B5041092BF041092C0040C
:105220001092C2041092C1041092C30481E08093D2
:10523000C4048BE491E09093B4048093B30460E0E1
:105240008EE00E94731EEBE1FCE0E491E093C70462
:10525000E7E0FCE0E491F0E0EE0FFF1FE151F44FD6
:10526000859194919093C9048093C8041092D204BC
:105270001092D4041092D304E2EDF4E08AEC94E0AE
:1052800012928E179F07E1F71092B2041092B104A8
:1052900010929D0487EC94E09093A6048093A5045B
:1052A0001092A3041092A40410929C0489E08093AD
:1052B0009F0481E08093A0048093A1048093A204C2
:1052C00090E69093920426E834E030939B04209378
:1052D0009A041092940410929304109295041092E0
:1052E000960410929704109298041092990491E1F8
:1052F0009093640490E1909365049FE0909366041A
:1053000010926704109269041092680410926B0462
:1053100010926A0494E090936C0410926E041092C0
:105320006D0480936F041092710410927004809346
:105330007204809373041092740410927504109296
:10534000770410927604109279041092780488EE13
:1053500093E090937B0480937A0480E991E09093AA
:105360007D0480937C0410927E0410927F0410923E
:10537000800410928104109283041092820410928F
:1053800085041092840462E081E10E94731E809182
:10539000650487FD03C062E00E94731E809166046D
:1053A00087FD03C062E00E94731E809164040E9426
:1053B0001B1E2091670430E08217930731F483E0CD
:1053C00090E090936B0480936A04809165040E943E
:1053D0001B1E2091670430E08217930751F48091DF
:1053E0006A0490916B0421E0822790936B04809370
:1053F0006A04109255041092540488EE93E0A0E0E1
:10540000B0E08093560490935704A0935804B0934F
:10541000590489E391E090935304809352041092CD
:10542000610410926004109263041092620485EB90
:1054300093E090935F0480935E0469E070E08BE8F2
:1054400093E00E9485286AE070E081E693E00E9484
:1054500085286BE070E087E393E00E9485286DE08B
:1054600070E08DE093E00C948528FC018827992753
:10547000E89421912032E9F3293010F02E30C8F35E
:105480002B3241F02D3239F4689404C00E94652A11
:10549000820F911D219120532A30C0F31EF4909564
:1054A00081959F4F0895FB01DC018D910590801936
:1054B0000110D9F3990B0895FC0105900020E9F73C
:1054C000809590958E0F9F1F08957AE0979F902D5D
:1054D000879F802D910D11240895F999FECF92BDDB
:1054E00081BDF89A992780B50895262FF999FECFA6
:1054F0001FBA92BD81BD20BD0FB6F894FA9AF99AF1
:105500000FBE01960895052E97FB1EF400940E948D
:105510009A2A57FD07D00E94AD2A07FC03D04EF40B
:105520000C949A2A50954095309521953F4F4F4FB6
:105530005F4F089590958095709561957F4F8F4F3F
:105540009F4F08950E94CF2AA59F900DB49F900D64
:10555000A49F800D911D11240895A1E21A2EAA1B6B
:10556000BB1BFD010DC0AA1FBB1FEE1FFF1FA21713
:10557000B307E407F50720F0A21BB30BE40BF50B10
:10558000661F771F881F991F1A9469F76095709599
:10559000809590959B01AC01BD01CF010895A29F1C
:1055A000B001B39FC001A39F700D811D1124911DF7
:1055B000B29F700D811D1124911D08955058BB2775
:1055C000AA270E94F62A0C94692C0E945B2C38F0C2
:1055D0000E94622C20F039F49F3F19F426F40C94B9
:1055E000582C0EF4E095E7FB0C94522CE92F0E9406
:1055F0007A2C58F3BA17620773078407950720F0CF
:1056000079F4A6F50C949C2C0EF4E0950B2EBA2F91
:10561000A02D0B01B90190010C01CA01A0011124B8
:10562000FF27591B99F0593F50F4503E68F11A1664
:10563000F040A22F232F342F4427585FF3CF4695F5
:1056400037952795A795F0405395C9F77EF41F1617
:10565000BA0B620B730B840BBAF09150A1F0FF0FE1
:10566000BB1F661F771F881FC2F70EC0BA0F621FCD
:10567000731F841F48F4879577956795B795F795BD
:105680009E3F08F0B0CF9395880F08F09927EE0F52
:105690009795879508950E942E2C08F481E008952F
:1056A0000E94642B0C94692C0E94622C58F00E947A
:1056B0005B2C40F029F45F3F29F00C94522C5111DF
:1056C0000C949D2C0C94582C0E947A2C68F39923EE
:1056D000B1F3552391F3951B550BBB27AA276217EE
:1056E0007307840738F09F5F5F4F220F331F441FFB
:1056F000AA1FA9F335D00E2E3AF0E0E832D091502F
:105700005040E695001CCAF72BD0FE2F29D0660F1B
:10571000771F881FBB1F261737074807AB07B0E85E
:1057200009F0BB0B802DBF01FF2793585F4F3AF064
:105730009E3F510578F00C94522C0C949D2C5F3FA9
:10574000E4F3983ED4F3869577956795B795F795EA
:105750009F5FC9F7880F911D9695879597F90895D2
:10576000E1E0660F771F881FBB1F6217730784076E
:10577000BA0720F0621B730B840BBA0BEE1F88F77D
:10578000E09508950E94822C88F09F5798F0B92FD9
:105790009927B751B0F0E1F0660F771F881F991F66
:1057A0001AF0BA95C9F714C0B13091F00E949C2C40
:1057B000B1E008950C949C2C672F782F8827B85F50
:1057C00039F0B93FCCF3869577956795B395D9F7BE
:1057D0003EF490958095709561957F4F8F4F9F4FC8
:1057E0000895E89409C097FB3EF4909580957095D4
:1057F00061957F4F8F4F9F4F9923A9F0F92F96E91D
:10580000BB279395F695879577956795B795F11191
:10581000F8CFFAF4BB0F11F460FF1BC06F5F7F4F2E
:105820008F4F9F4F16C0882311F096E911C0772340
:1058300021F09EE8872F762F05C0662371F096E849
:10584000862F70E060E02AF09A95660F771F881F18
:10585000DAF7880F9695879597F90895990F0008BC
:10586000550FAA0BE0E8FEEF16161706E807F90732
:10587000C0F012161306E407F50798F0621B730BCD
:10588000840B950B39F40A2661F0232B242B252B4E
:1058900021F408950A2609F4A140A6958FEF811DF1
:1058A000811D089597F99F6780E870E060E0089592
:1058B0009FEF80EC089500240A9416161706180628
:1058C0000906089500240A94121613061406050604
:1058D0000895092E0394000C11F4882352F0BB0F95
:1058E00040F4BF2B11F460FF04C06F5F7F4F8F4FF8
:1058F0009F4F089557FD9058440F551F59F05F3F33
:1059000071F04795880F97FB991F61F09F3F79F0E1
:1059100087950895121613061406551FF2CF469563
:10592000F1DF08C0161617061806991FF1CF8695E5
:105930007105610508940895E894BB2766277727C9
:10594000CB0197F908950E942E2C08F48FEF08954B
:105950000E94BB2C0C94692C0E945B2C38F00E9496
:10596000622C20F0952311F00C94522C0C94582C9E
:1059700011240C949D2C0E947A2C70F3959FC1F3F6
:10598000950F50E0551F629FF001729FBB27F00DED
:10599000B11D639FAA27F00DB11DAA1F649F662742
:1059A000B00DA11D661F829F2227B00DA11D621F91
:1059B000739FB00DA11D621F839FA00D611D221F4B
:1059C000749F3327A00D611D231F849F600D211D2F
:1059D000822F762F6A2F11249F5750409AF0F1F0B2
:1059E00088234AF0EE0FFF1FBB1F661F771F881F1B
:1059F00091505040A9F79E3F510580F00C94522CD5
:105A00000C949D2C5F3FE4F3983ED4F386957795F4
:105A10006795B795F795E7959F5FC1F7FE2B880FC0
:105A2000911D9695879597F908950E942E2C880BC5
:105A3000990B0895DB018F939F930E94A22ABF9137
:105A4000AF91A29F800D911DA39F900DB29F900DCD
:105A500011240895AA1BBB1B51E107C0AA1FBB1F3D
:105A6000A617B70710F0A61BB70B881F991F5A95EA
:105A7000A9F780959095BC01CD01089597FB072E5D
:105A800016F4009407D077FD09D00E942A2D07FC58
:105A900005D03EF4909581959F4F0895709561953E
:105AA0007F4F0895EE0FFF1F0590F491E02D0994AC
:105AB00081E090E0F8940C94652D91110895815443
:0E5AC0008A5108F4805E855A0895F894FFCF4D
:105ACE0001FF00000001010101013C5E00BC0077F6
