:100000000C9441080C9469080C9469080C946908D4
:100010000C9469080C9469080C9469080C943E0EC1
:100020000C9469080C9469080C94860D0C9469086A
:100030000C9469080C94180E0C9469080C946908C7
:100040000C94A0270C9469080C94B51D0C948F1D7A
:100050000C9469080C9469080C9469080C9469085C
:100060000C9435140C946908552D572D572D572D88
:10007000252D302D572D572D572D362D022DE82C9F
:10008000142D3E2DD62DDB2D552EBB2D9C2D862DD2
:10009000912D642D702D00407A10F35A00A0724EFD
:1000A00018090010A5D4E80000E87648170000E41D
:1000B0000B54020000CA9A3B000000E1F505000065
:1000C00080969800000040420F000000A0860100CA
:1000D0000000102700000000E8030000000064009A
:1000E000000000000A000000000001000000000005
:1000F0002C76D888DC674F0823DFC1DFAE59E1B129
:10010000B796E5E3E453C63AE651997696E8E6C237
:100110008426EB898C9B62ED407C6FFCEFBC9C9F3E
:1001200040F2BAA56FA5F490055A2AF75C936B6C60
:10013000F9676DC11BFCE0E40D47FEF520E6B50054
:10014000D0ED902E0300943577050080841E0800C2
:1001500000204E0A000000C80C333333330F986E72
:1001600012831141EF8D2114893BE65516CFFEE62F
:10017000DB18D1844B381BF77C1D901DA4BBE424F5
:10018000203284725E228100C9F124ECA1E53D2772
:100190004D435034373235204552524F5200556E40
:1001A00061626C6520746F2066696E642054656DB1
:1001B0007073656E736F720054656D7073656E73E6
:1001C0006F7220666F756E64004F4C454420493253
:1001D00043204552524F5200534D435F434C493EDA
:1001E00000656E636F6465722044656C74613A20CB
:1001F0002020200020003F2C68656C702C68696C02
:100200006665202020202020202020202020203B48
:100210007468697320696E666F00656564656C65F6
:100220007465202020202020202020202020202035
:100230002020203B212144454C4554452045455034
:10024000524F4D2121207769746820636F6E666973
:1002500067646174610065657361766520202020A4
:100260002020202020202020202020202020203B73
:10027000777269746520636F6E6669676461746123
:1002800020746F20454550524F4D200065657368BE
:100290006F772020202020202020202020202020B8
:1002A00020202020203B73686F7720454550524F17
:1002B0004D2076616C756573006564646973706C5C
:1002C000617920782020202020202020202020203C
:1002D00020203B313D206E6F726D616C2C203220EE
:1002E0003D20726576657273006564656E63207883
:1002F00078202020202020202020202020202020A6
:1003000020203B656E636F646572736C6F7473203D
:100310006F72206D61676E657473006564676561F7
:1003200072686967682078782020202020202020AB
:10033000202020203B726174696F20686967682003
:1003400073706565642067656172006564676561E7
:10035000726C6F77207878202020202020202020A9
:10036000202020203B726174696F206C6F772073AE
:1003700070656564206765617200656472656472AA
:100380006174696F20787820202020202020202090
:100390002020203B726174696F206D6F746F722D25
:1003A0007370696E646C6570756C6C65792028314A
:1003B000365A2F33305A2A31303029006564626151
:1003C0007365766F6C742078787820202020202048
:1003D00020202020203B62617365766F6C7420665C
:1003E0006F722052504D2043616C63756C6174696B
:1003F0006F6E2000656474656D70756E6974207829
:10040000202020202020202020202020203B3120C0
:100410003D2043656C736975732C2032203D204666
:10042000616872656E6865697400656474656D7095
:10043000207878202020202020202020202020200C
:100440002020203B736574206D6178696D756D2087
:1004500074656D70657261747572650072706D207F
:10046000202020202020202020202020202020208C
:1004700020202020203B7365742052504D2056616F
:100480006C75653A20302D34353030006932632088
:10049000202020202020202020202020202020205C
:1004A00020202020203B73686F7720493243206151
:1004B000647265737365730073742020202020209C
:1004C000202020202020202020202020202020202C
:1004D000203B73686F772068617264776172656929
:1004E0006E666F7300004B6F6D6D616E646F2050B0
:1004F0006172616D6574657209203B2D2D2D2D2D66
:100500002D2D2D2D2D2D2D2D2D2D2D2D2D2D2D2D1B
:100510002D2D2D2D2D2D00536F667477617265760C
:10052000657273696F6E3A2031362E332E30204A51
:10053000616E2032392032303234002052504D2C3E
:1005400020746F2073746F70206D6F746F722075DC
:10055000736520636F6D6D616E642072706D004D08
:100560006F746F7220737065656420736574207496
:100570006F3A20004D6F746F722073746F707065E6
:10058000640074656D7065726174757220006D61D0
:1005900078696D616C200063656C736975730066C2
:1005A000616872656E686569740074656D70657206
:1005B0006174757220756E697420002062617365C4
:1005C000766F6C7461676520002072656475637472
:1005D000696F6E20726174696F2000206C6F7720E4
:1005E000737065656420726174696F2000206869AA
:1005F000676820737065656420726174696F20009C
:1006000020656E636F646572736C6F74732F6D61B8
:10061000676E65747320006E6F726D616C00726539
:100620007665727365006368616E67656420746FD8
:10063000200020646973706C6179206F7269656E47
:10064000746174696F6E200074696D656F757400F4
:1006500061626F72740044656C6574652045457015
:10066000726F6D2C20737572653F5B595D3A200087
:100670006C6173742072756E6E696E672052504D96
:100680003A20006E6F726D616C0031203D206E6FFC
:10069000726D616C2032203D2072657665727365E3
:1006A0000072657665727365006E6F726D616C00C5
:1006B0004F4C4544206F7269656E746174696F6E4A
:1006C0003A2000312D32303000656E636F64657200
:1006D0006469736B20736C6F74732F6D61676E65E3
:1006E00074733A2000312D3130300067656172201B
:1006F0006C6F77737065656420726174696F3A20FE
:1007000000312D313030006765617220686967689B
:10071000737065656420726174696F3A2000312DD1
:1007200031303000726564756374696F6E20726178
:1007300074696F3A2000446F204E6F7420546F75B7
:100740006368210052504D204261736973766F6C6B
:10075000743A20003335432D3730432C3935462D3C
:100760003135384620006D61782E2074656D7065D6
:100770007261747572653A200031203D2043656CCA
:10078000736975732032203D2046616872656E681A
:100790006569740043656C736975730046616872BE
:1007A000656E686569740043656C73697573007480
:1007B000656D706572617475726520756E69743AE5
:1007C0002000454550726F6D2056657273696F6EDB
:1007D0003A200052616E67650044656661756C740D
:1007E0000056616C756500506172616D657465726B
:1007F000002052504D2053656E736F723A200052A4
:10080000504D2053656E736F720073656375726926
:1008100074792073776974636800656E636F6465CB
:100820007220627574746F6E00627574746F6E20DE
:10083000677265656E00627574746F6E20726564B0
:1008400000627574746F6E2079656C6C6F77002030
:1008500054656D7020433A200054656D7073656E69
:10086000736F722044533138423230004441432088
:100870004D43503437323500456E636F6465720006
:100880004F4C45442D4932430044657669636520E9
:10089000616E6420492F4F20537461747573006436
:1008A0006F6E650A004E6F20493243206465766999
:1008B00063657320666F756E640A003000556E6B59
:1008C0006E6F776E206572726F7220617420616442
:1008D000647265737320307800206865780030009A
:1008E0004932432064657669636520666F756E647E
:1008F00020617420616464726573732030780053E2
:1009000063616E6E696E672049324320616472656F
:10091000737365732E2E2E00534D435F434C493E37
:1009200000756E6B6E6F776E20636F6D6D616E64B8
:1009300000656573686F770000000000000000002C
:1009400000000000002B09656573617665000000FA
:100950000000000000000000000000AB0B656564B3
:10096000656C657465000000000000000000000078
:1009700000640B656474656D700000000000000089
:1009800000000000000000C90C656474656D70759E
:100990006E6974000000000000000000009D0C65FE
:1009A0006462617365766F6C740000000000000083
:1009B0000000007E0C6564726564726174696F008A
:1009C0000000000000000000005F0C6564676561C6
:1009D000726C6F7700000000000000000000004013
:1009E0000C656467656172686967680000000000F3
:1009F0000000000000210C6564656E6300000000CB
:100A00000000000000000000000000060C656464A7
:100A10006973706C61790000000000000000000044
:100A200000D50B72706D0000000000000000000097
:100A3000000000000000005A0D6932630000000051
:100A400000000000000000000000000000501273D1
:100A50007400000000000000000000000000000022
:100A60000000006B0868696C66650000000000000B
:100A7000000000000000000000F80A68656C7000CB
:100A8000000000000000000000000000000000F86E
:100A90000A0000000000000000000000000000004C
:100AA0000000000000F80A3F000000000000000005
:100AB0000000000000000000000000F80A534D4351
:100AC0005F434C493E00005EBCE2613FDD83C29C57
:100AD0007E20A3FD1F41009D23BE46DB65F88C11DF
:100AE000AF32CA57E97400000000250028002B002F
:100AF00000000008000201000003040700000000DD
:100B00000000000000000000003E5B4F5B3E3E6BBB
:100B10004F6B3E1C3E7C3E1C183C7E3C181C577D97
:100B2000571C1C5E7F5E1C00183C1800FFE7C3E7E3
:100B3000FF0018241800FFE7DBE7FF30483A060EF5
:100B40002629792926407F050507407F05253F5A3C
:100B50003CE73C5A7F3E1C1C08081C1C3E7F1422AC
:100B60007F22145F5F005F5F06097F017F00668957
:100B7000956A606060606094A2FFA29408047E049D
:100B80000810207E201008082A1C08081C2A0808C3
:100B90001E101010100C1E0C1E0C30383E38300683
:100BA0000E3E0E06000000000000005F000000077F
:100BB000000700147F147F14242A7F2A12231308AD
:100BC000646236495620500008070300001C224189
:100BD000000041221C002A1C7F1C2A08083E08082D
:100BE00000807030000808080808000060600020DD
:100BF000100804023E5149453E00427F40007249C0
:100C00004949462141494D331814127F1027454563
:100C100045393C4A49493141211109073649494979
:100C200036464949291E00001400000040340000E7
:100C30000008142241141414141400412214080250
:100C4000015909063E415D594E7C1211127C7F49C3
:100C50004949363E414141227F4141413E7F494918
:100C600049417F090909013E414151737F08080844
:100C70007F00417F41002040413F017F0814224115
:100C80007F404040407F021C027F7F0408107F3E6F
:100C90004141413E7F090909063E4151215E7F09DC
:100CA000192946264949493203017F01033F404043
:100CB000403F1F2040201F3F4038403F631408142E
:100CC0006303047804036159494D43007F41414166
:100CD0000204081020004141417F04020102044047
:100CE00040404040000307080020545478407F28CB
:100CF0004444383844444428384444287F385454C1
:100D0000541800087E090218A4A49C787F080404E3
:100D10007800447D40002040403D007F1028440082
:100D200000417F40007C047804787C080404783813
:100D300044444438FC1824241818242418FC7C0843
:100D4000040408485454542404043F44243C4040C0
:100D5000207C1C2040201C3C4030403C4428102873
:100D6000444C9090907C4464544C440008364100BC
:100D70000000770000004136080002010204023C36
:100D80002623263C1EA1A161123A4040207A385405
:100D9000545559215555794122545478422155547E
:100DA000784020545579400C1E52721239555555D1
:100DB00059395454545939555454580000457C41BC
:100DC0000002457D420001457C407D1211127DF0FC
:100DD000282528F07C545545002054547C547C0A26
:100DE000097F4932494949323A4444443A324A48EF
:100DF00048303A4141217A3A42402078009DA0A0F3
:100E00007D3D4242423D3D4040403D3C24FF242444
:100E1000487E4943662B2FFC2F2BFF0929F620C063
:100E2000887E090320545479410000447D413048B4
:100E3000484A32384040227A007A0A0A727D0D19F7
:100E4000317D2629292F28262929292630484D4059
:100E500020380808080808080808382F10C8ACBA55
:100E60002F102834FA00007B000008142A142222D4
:100E7000142A14085500550055AA55AA55AAFF551D
:100E8000FF55FF000000FF00101010FF00141414A5
:100E9000FF001010FF00FF1010F010F0141414FCED
:100EA000001414F700FF0000FF00FF1414F404FC0A
:100EB000141417101F10101F101F1414141F0010EB
:100EC0001010F0000000001F101010101F10101064
:100ED00010F010000000FF10101010101010101073
:100EE000FF10000000FF140000FF00FF00001F10B3
:100EF000170000FC04F414141710171414F404F46D
:100F00000000FF00F714141414141414F700F7145D
:100F10001414171410101F101F141414F4141010AC
:100F2000F010F000001F101F0000001F1400000050
:100F3000FC140000F010F01010FF10FF141414FF48
:100F4000141010101F00000000F010FFFFFFFFFF43
:100F5000F0F0F0F0F0FFFFFF0000000000FFFF0FD7
:100F60000F0F0F0F3844443844FC4A4A4A347E027B
:100F7000020606027E027E026355494163384444FC
:100F80003C04407E201E2006027E020299A5E7A5B1
:100F9000991C2A492A1C4C7201724C304A4D4D3022
:100FA0003048784830BC625A463D3E494949007E47
:100FB0000101017E2A2A2A2A2A44445F44444051DE
:100FC0004A444040444A51400000FF0103E080FF92
:100FD000000008086B6B083612362436060F090F1E
:100FE00006000018180000001010003040FF01013A
:100FF000001F01011E00191D1712003C3C3C3C0063
:1010000000000000000103070F1F3F7F0080C0E0C9
:10101000F0F8FCFE454550524F4D20526573657403
:10102000000D0A696E707574206572726F72202FE0
:1010300020706172616D65746572206572726F7285
:10104000000000000023002600290004040404041A
:101050000404040202020202020303030303030165
:10106000020408102040800102040810200102043C
:1010700008102000000000240027002A0000C22FD2
:10108000B32F11241FBECFEFD8E0DEBFCDBF11E0DC
:10109000A0E0B1E0E4E9F1E702C005900D92AC3ABE
:1010A000B107D9F724E0ACEAB1E001C01D92A83D38
:1010B000B207E1F718E0C0E4D8E004C02197FE01D0
:1010C0000E949038CF33D107C9F70E94EA270C94C9
:1010D000BD380C940000CF92DF92EF92FF920E94F5
:1010E000DA2563E088E20E94BA2560E08EE10E9482
:1010F000BA2561E081E00E94822569E878E08CE110
:1011000094E00E94091D8091BB0142E060E878E014
:1011100081700E94F31E8091BB0144E068E778E093
:1011200082FB882780F90E94F31E8091BB0145E075
:101130006CE678E083FB882780F90E94F31E80919B
:10114000BB0146E069E578E0829581700E94F31E5C
:101150008091BB0184FF27C082EB91E00E94532065
:10116000813824EE92077CF0BC01990F880B990B13
:101170000E941F3720E030E040E05CE30E94D4375B
:101180006B017C0106C0C12CD12C8EEFE82E82ECC5
:10119000F82E6FE478E08CE194E00E94091DC7010D
:1011A000B6010E94181F8091C00147E061E478E019
:1011B00081700E94F31E8091C00148E066E378E0F0
:1011C000869581700E94F31E8091C00149E069E21A
:1011D00078E082FB882780F90E94F31E8091C0018D
:1011E0004AE06AE178E083FB882780F90E94F31ED9
:1011F0008091C0014BE06AE078E0829581700E94A6
:10120000F31E8091C0014CE06FEF77E085FB8827EB
:1012100080F90E94F31E61EF77E08CE194E00E9478
:10122000091D6091C1017091C2018091C30190912B
:10123000C4010E94181F60E088E20E94BA2567E09E
:101240008EE10E94BA258FE793E0FF90EF90DF9048
:10125000CF900C948B1D0E94DA2564E088E20E94F6
:10126000BA2567E08EE10E94BA2561E081E00E9424
:10127000822567EE77E08CE194E00E94091D61E031
:101280008AE10E94822561EE77E08CE194E00E9481
:10129000091D61E088E20E94822569ED77E08CE11A
:1012A00094E00E94091D61E084E30E94822563EDC1
:1012B00077E08CE194E00E94091D60E088E20E94E2
:1012C000BA2567E08EE10E94BA2562E081E00E94C3
:1012D000822562EC77E08CE194E00E94091D62E0D7
:1012E0008CE10E9482254091E9025091EA0260E07F
:1012F00070E02AE08CE194E00E94421D63E081E00E
:101300000E9482256FEA77E08CE194E00E94091D3B
:1013100063E08CE10E9482258091D902882319F034
:1013200067EA77E002C06CE977E08CE194E00E9424
:10133000091D63E088E20E94822564E977E08CE180
:1013400094E00E94091D63E084E30E94822569E71E
:1013500077E08CE194E00E94091D64E081E00E9446
:10136000822566E677E08CE194E00E94091D64E046
:101370008CE10E9482254091DA0250E060E070E04A
:101380002AE08CE194E00E94421D64E088E20E9421
:10139000822561E470E08CE194E00E94452564E0E0
:1013A00084E30E94822564E577E08CE194E00E946A
:1013B000091D65E081E00E94822564E477E08CE10C
:1013C00094E00E94091D65E08CE10E9482256091F5
:1013D000DB027091DC028CE194E00E94452565E01F
:1013E00088E20E9482256DE271E08CE194E00E9427
:1013F000452565E084E30E94822566E377E08CE181
:1014000094E00E94091D66E081E00E94822564E26A
:1014100077E08CE194E00E94091D66E08CE10E9477
:1014200082256091DD027091DE028CE194E00E94E1
:10143000452566E088E20E94822565E370E08CE144
:1014400094E00E94452566E084E30E9482256EE1D7
:1014500077E08CE194E00E94091D67E081E00E9442
:10146000822567E077E08CE194E00E94091D67E047
:101470008CE10E9482256091DF027091E0028CE194
:1014800094E00E94452567E088E20E9482256FE58E
:1014900070E08CE194E00E94452567E084E30E94BF
:1014A000822561E077E08CE194E00E94091D68E00C
:1014B00081E00E9482256BEE76E08CE194E00E9450
:1014C000091D68E08CE10E9482256091E102709123
:1014D000E2028CE194E00E94452568E088E20E94E7
:1014E000822569E270E08CE194E00E94452568E085
:1014F00084E30E94822565EE76E08CE194E00E9410
:10150000091D69E081E00E94822569EC76E08FE7A1
:1015100093E00E94091D69E08CE10E9482254091C0
:10152000E50250E060E070E02AE08FE793E00E947F
:10153000421D69E088E20E94822568E170E08CE14A
:1015400094E00E94452569E084E30E94822563ECD3
:1015500076E08CE194E00E94091D6AE081E00E943F
:10156000822560EB76E08FE793E00E94091D6AE038
:101570008CE10E9482258091E3029091E402892B04
:1015800019F469EA76E002C061EA76E08FE793E059
:101590000E94091D6AE084E30E9482256AE876E0E1
:1015A0008CE194E00E94091D6AE088E20E94822595
:1015B00063E876E08FE793E00E94091D6CE081E02C
:1015C0000E94822560E776E08FE793E00E94091D84
:1015D0006CE08CE10E9482256091E6027091E70246
:1015E0008FE793E00E9445258FE793E00C948B1DD5
:1015F00067E175E08FE793E00E94332566EE74E0C3
:101600008FE793E00E94332565EE74E08FE793E067
:101610000E94332568EB74E08FE793E00E94332546
:101620006CE874E08FE793E00E9433256CE574E08A
:101630008FE793E00E9433256AE274E08FE793E03E
:101640000E94332564EF73E08FE793E00E94332517
:101650006CEB73E08FE793E00E9433256AE773E059
:101660008FE793E00E9433256BE473E08FE793E00C
:101670000E9433256BE173E08FE793E00E943325EE
:1016800069EE72E08FE793E00E94332569EB72E028
:101690008FE793E00E9433256CE872E08FE793E0D8
:1016A0000E94332566E572E08FE793E00E943325C0
:1016B0006AE172E08FE793E00E94332566EF71E004
:1016C0008FE793E00C943325CF92DF92EF92FF9255
:1016D00066E576E08FE793E00E94091D8FE793E0CF
:1016E0000E94F8170E9494276B017C0160936D02A1
:1016F00070936E0280936F02909370028FE793E075
:101700000E947317181619067CF48FE793E00E9465
:101710005117893531F4FF90EF90DF90CF900C9402
:101720005D1E60E576E00FC00E949427DC01CB01CE
:101730008C199D09AE09BF09893B9B40A105B105E4
:10174000E8F268E476E08FE793E0FF90EF90DF90B7
:10175000CF900C94332565E871E08FE793E00E9409
:101760002D1D8FE793E00C948B1DEF92FF920F934A
:101770001F93CF93DF938C010E947A337C01C0E0EA
:10178000D0E0CE15DF0551F0F801EC0FFD1F64919C
:101790008FE793E00E94021D2196F3CFDF91CF9156
:1017A0001F910F91FF90EF90089562E070E081E04B
:1017B00090E00E94301E892B41F182E396E00E9466
:1017C000B50B86E296E00E94B50B8091EB029091FA
:1017D000EC028130910559F467E176E08FE793E000
:1017E0000E9433251092E4021092E30208950297BA
:1017F00061F46EE176E08FE793E00E94332581E0AB
:1018000090E09093E4028093E302089568EC70E026
:1018100081E090E00E94301E892B91F08091EB02D4
:101820008093E50280E096E00E94B50B86E296E0A8
:101830000E94B50B8091EB029091EC020C94DF1E9C
:10184000089564E670E081E090E00E94301E892BEC
:10185000B1F08091EB029091EC029093E0028093C2
:10186000DF028DEE95E00E94B50B86E296E00E94C5
:10187000B50B8091EB029091EC020C94DF1E089561
:1018800064E670E081E090E00E94301E892BB1F0A8
:101890008091EB029091EC029093E2028093E1023E
:1018A0008BED95E00E94B50B86E296E00E94B50BA9
:1018B0008091EB029091EC020C94DF1E089564E697
:1018C00070E081E090E00E94301E892BB1F08091A1
:1018D000EB029091EC029093DE028093DD0289ECA2
:1018E00095E00E94B50B86E296E00E94B50B8091D0
:1018F000EB029091EC020C94DF1E089560E971E018
:1019000088EC90E00E94301E892BB1F08091EB02B0
:101910009091EC029093DC028093DB028BEB95E0DC
:101920000E94B50B86E296E00E94B50B8091EB0217
:101930009091EC020C94DF1E089562E070E081E06B
:1019400090E00E94301E892B19F18AEA95E00E94EE
:10195000B50B86E296E00E94B50B8091EB02909168
:10196000EC028130910551F467E975E08FE793E06F
:101970000E94332581E08093D9020895029741F4B3
:101980006FE975E08FE793E00E9433251092D9024A
:1019900008958091D902882329F066E470E08EE1F1
:1019A00090E004C06EE970E08FE590E00E94301E88
:1019B000892BB1F08091EB028093DA028EE895E0FA
:1019C0000E94B50B82E895E00E94B50B86E296E096
:1019D0000E94B50B8091EB029091EC020C94DF1EFB
:1019E00008952FB7F89490916C02892390916C021E
:1019F000982790936C022FBF0895CF92DF92EF92B9
:101A0000FF92CF93DF93EC018130910519F40E948E
:101A1000D11648C0009719F487ED93E041C0BC018E
:101A2000990F880B990B0E941F372FE73AE64CEB72
:101A30005CE30E94D43720E030E048EC52E40E949E
:101A40007C366B017C016091DB027091DC02072E19
:101A5000000C880B990B0E941F3720E030E048EC07
:101A600052E40E947C369B01AC01C701B6010E9482
:101A70000B3620E030E040E855E40E94D43720E007
:101A800030E040EA50E40E947C366093710270932B
:101A9000720280937302909374020E94EE36CB011F
:101AA0000E94E71DCE01DF91CF91FF90EF90DF9074
:101AB000CF90089564E971E180E090E00E94301ECB
:101AC000892BD1F08091EB029091EC020E94FD0CE9
:101AD0006FE575E08FE793E00E94091D4091EB02EE
:101AE0005091EC0260E070E02AE08FE793E00E9402
:101AF000421D6BE375E006C080E090E00E94FD0CA3
:101B000064E775E08FE793E00C9433251F920F9202
:101B10000FB60F921124CF92DF92EF92FF920F93A4
:101B20001F932F933F934F935F936F937F938F9365
:101B30009F93AF93BF93EF93FF93CF93DF9300D027
:101B400000D0CDB7DEB719821A821B821C82109298
:101B50008500109284008091860090918700A0E01B
:101B6000B0E089839A83AB83BC8320916802309173
:101B7000690240916A0250916B02C980DA80EB8061
:101B8000FC80AFEFBFEF0E949638C60ED71EE81E4E
:101B9000F91EC982DA82EB82FC82109268021092EE
:101BA000690210926A0210926B020091670281E052
:101BB000800F8093670210E069817A818B819C811C
:101BC0000E941D379B01AC0160E074E284E79BE456
:101BD0000E947C36000F111F000F111FF801E95DF4
:101BE000FD4F60837183828393838091670280318C
:101BF00011F4109267020F900F900F900F90DF91E9
:101C0000CF91FF91EF91BF91AF919F918F917F9174
:101C10006F915F914F913F912F911F910F91FF9085
:101C2000EF90DF90CF900F900FBE0F901F90189500
:101C300078941F920F920FB60F9211248F939F9357
:101C4000AF93BF938091680290916902A0916A025C
:101C5000B0916B020196A11DB11D80936802909313
:101C60006902A0936A02B0936B02BF91AF919F91FA
:101C70008F910F900FBE0F901F9018951F920F928B
:101C80000FB60F921124CF92DF92EF92FF922F9313
:101C90003F934F935F936F937F938F939F93AF93F4
:101CA000BF93CF93DF93EF93FF93809125029091A1
:101CB0002602893E23E0920708F456C0809167020D
:101CC000882321F0C0916702C15001C0CFE034E009
:101CD000C302E0011124C95DDD4F688179818A81E9
:101CE0009B8120E030E040E050E40E94CF3718169E
:101CF000FCF4C0E0D0E060E070E0CB01FE01EE0F4C
:101D0000FF1FEE0FFF1FE95DFD4F208131814281F2
:101D100053810E940B362196C031D10579F720E01E
:101D200030E040E85DE30E94D4376B017C0104C0E1
:101D3000C880D980EA80FB8060910C0170E080E06F
:101D400090E00E941F37A70196010E94D43760934C
:101D5000C1017093C2018093C3019093C40110929A
:101D600026021092250205C00196909326028093C8
:101D700025028091230290912402019690932402DF
:101D80008093230280912302909124026AE070E004
:101D90000E944638892B09F059C089B19091BA0147
:101DA00080958927909122029823292F20952093AE
:101DB000220290912102982392279093210282235C
:101DC00089239091BA0198279093BA019091BA0112
:101DD00020916C029823922B90936C022091BA016F
:101DE0009091200220958223892B8093200280915C
:101DF000BA01887B19F486E480931F0280911F0248
:101E0000815080931F02811108C08091BA01909186
:101E10001E02887B892B80931E028091BA01887BE9
:101E200019F481E080931D0280911D02815019F008
:101E300080931D020BC08FE080931D028091BA0138
:101E400090911C02887B892B80931C028091BA019F
:101E500080931B0280911B02847080931B0281116E
:101E600009C08091BE01882329F01092BE018FE045
:101E70008093BF01C0911902D0E0CC0FDD1F87E035
:101E80000E94DB248C2B809319028F3F21F481E088
:101E900080930B0106C0873021F410920B018093D0
:101EA000180280910B01811105C0109205018EE18D
:101EB00080931A0280911A0281117CC181E0809383
:101EC00005018091BC019091BD01892B49F0809161
:101ED000BC019091BD0101979093BD018093BC011D
:101EE00080912E0487FD69C090912F0497FD65C0F5
:101EF000909139049923A1F020913704309138044E
:101F0000225031093093380420933704209137044C
:101F10003091380437FF04C010923804109237040F
:101F20000E94DB242091310430E08217930711F4E2
:101F3000C3E001C0C0E080912F040E94DB24209107
:101F4000310430E08217930711F481E0C8278091B3
:101F50003404909135048C1B80FF18C02C2FCC0FBB
:101F6000330B3093350420933404209132043091A4
:101F700033048270082E000C990B0197820F931F77
:101F8000909333048093320481E001C080E090910B
:101F90003904992391F0882381F08091370490913E
:101FA00038048F3C914448F4809137049091380470
:101FB000C29690933804809337040E949427C0906F
:101FC0004804D0904904E0904A04F0904B049B01EF
:101FD000AC012C193D094E095F0969017A01309164
:101FE000300413163CF03111CBC020913E04222363
:101FF00009F4C6C04AE0C416D104E104F10408F4AF
:10200000BFC0609348047093490480934A0490933E
:102010004B0490913F04832F992331F13E3008F017
:102020008E508770806480937C0080917A008064F9
:1020300080937A0080917A0086FDFCCF80917800B1
:102040002091790090E0922B20914C0430914D0426
:102050008217930784F021E040914E0450914F0481
:10206000481759074CF005C00E94DB2421E0892B5A
:1020700019F420E001C021E09091310481E089272A
:1020800082133DC0409140045091410442305105BB
:1020900090F140913A0450913B044130510519F4BC
:1020A00042E050E010C0409142045091430442305D
:1020B000510590F060914604709147044617570708
:1020C000D0F444E050E050933B0440933A04109223
:1020D0004304109242040FC080913C04882329F0ED
:1020E000409146045091470402C041E050E05093B3
:1020F000430440934204109241041092400492130E
:1021000021C085E090E090933B0480933A04809155
:1021100040049091410420914404309145042817D3
:10212000390750F420913D04222331F021E030E0C2
:1021300030933B0420933A048C0D9D1D90934104F1
:102140008093400480914204909143040097C1F031
:10215000AC0160E070E0C416D506E606F70610F4A0
:10216000B701A601841B950B90934304809342040E
:10217000892B31F483E090E090933B0480933A0400
:102180008DE78093B300FF91EF91DF91CF91BF91E5
:10219000AF919F918F917F916F915F914F913F91FF
:1021A0002F91FF90EF90DF90CF900F900FBE0F9088
:1021B0001F901895815080931A0283CEFC0177FD01
:1021C000B9C080859185681779070CF0B3C057FDB9
:1021D000B1C082859385481759070CF00895868908
:1021E000823079F484819581DC01A61BB70BBD0197
:1021F0006150710986819781DC01A41BB50BAD018B
:102200000EC0833009F084C064277527CA01862771
:1022100097276827792746815781481B590B4150DA
:1022200051092130310531F048F12230310509F4EE
:102230004AC00895CA0157FD07969C01A3E0359551
:102240002795AA95E1F7A481B5812A9FC0012B9F0C
:10225000900D3A9F900D1124680F791F078CF0A103
:10226000E02DE60FF71F4770552781E090E001C091
:10227000880F4A95EAF79081892B48C0CA0157FD1B
:1022800007969C0193E0359527959A95E1F7A481EF
:10229000B5812A9FC0012B9F900D3A9F900D11246C
:1022A000680F791F078CF0A1E02DE60FF71F47702C
:1022B000552781E090E001C0880F4A95EAF78095A4
:1022C0009081892323C0CA0157FD07969C0183E0B2
:1022D000359527958A95E1F7A481B5812A9FC0019C
:1022E0002B9F900D3A9F900D1124680F791F078C3A
:1022F000F0A1E02DE60FF71F4770552781E090E031
:1023000001C0880F4A95EAF7908189278083089554
:10231000813009F086CF6427752746275727642721
:10232000752784819581DC01A61BB70BBD01615027
:10233000710977CF089508950895E091B1018091D2
:10234000B001E81730F4F0E0E754FD4F808190E0F1
:1023500008958FEF9FEF08959091B1018091B001A2
:10236000981750F4E92FF0E0E754FD4F208130E05A
:102370009F5F9093B10102C02FEF3FEFC901089515
:102380008091B00190E02091B101821B91090895E4
:10239000089580E090E0089540919602262F30E065
:1023A000240F311D21323105DCF420911903243032
:1023B000C9F4FC0180E090E0861758F43091960251
:1023C0002191DC01AA58BD4FA30FB11D2C9301969A
:1023D000F3CF80919602680F6093960280E0089593
:1023E00081E0089582E00895CF92DF92EF92FF920C
:1023F0000F931F93CF93DF937C01CB018A01209130
:102400001F03222389F0EB016B01C40ED51ECC15EE
:10241000DD0569F06991D701ED91FC910190F081A2
:10242000E02DC7010995F3CF642F0E94CC11C8019C
:10243000DF91CF911F910F91FF90EF90DF90CF90A0
:102440000895CF93DF931F92CDB7DEB769832091B4
:102450001F032223D1F020914203203240F021E0DB
:1024600030E0FC013383228380E090E015C080914E
:102470002003E82FF0E0EF5DFC4F998190838F5FA0
:10248000809320038093420305C061E0CE01019652
:102490000E94CC1181E090E00F90DF91CF910895E0
:1024A000CF92DF92EF92FF920F931F93CF93DF9320
:1024B0006FEF78E08FE793E00E943325C12CD12C99
:1024C0007601C394C0E0D0E001E01C2D00931F030F
:1024D000C092410310922003109242030E94E4250F
:1024E00081111DC060EE78E08FE793E00E94091D26
:1024F000103130F46EED78E08FE793E00E94091D13
:1025000020E1B701A6018FE793E00E94421D69ED2B
:1025100078E08FE793E00E94332521961BC084303A
:10252000C9F46DEB78E08FE793E00E94091D10314C
:1025300030F46BEB78E08FE793E00E94091D20E117
:10254000B701A6018FE793E00E94421D8FE793E059
:102550000E948B1D8FEFC81AD80AE80AF80A8FE785
:10256000C816D104E104F10409F0AFCFCD2B19F462
:1025700065EA78E002C06FE978E08FE793E0DF91E9
:10258000CF911F910F91FF90EF90DF90CF900C941F
:102590003325DC0180E0615098F02D91982F92272F
:1025A000E92FEF70F0E0EA53F54F249192959F7078
:1025B000E92FF0E0EA52F54FE491822F8E27EBCF1E
:1025C0000895FC0190810180F281E02DF8948181D1
:1025D000892B81832281892F809528232283A7E05C
:1025E000B0E01197F1F7218182238183A3E2B0E06B
:1025F0001197F1F780817894EFECF0E03197F1F7E3
:10260000982381E009F480E00895FC019081018025
:10261000F281E02D892F809560FF12C0F89422810D
:10262000822382838181892B8183A3E2B0E0119789
:10263000F1F78281982B9283789487ED90E011C016
:10264000F8942281822382838181892B8183AFEF59
:10265000B0E01197F1F78281982B928378948FE004
:1026600090E00197F1F70895DF92EF92FF920F93B8
:102670001F93CF93DF93EC01D62EE42E08E010E0F9
:10268000FF24F39461E08D2D8F2109F460E0CE01E9
:102690000E940513FF0C01501109A1F7E11010C0B1
:1026A000F894E981FA8191818881809589238183D9
:1026B000E981FA8192818881809589238283789447
:1026C000DF91CF911F910F91FF90EF90DF900895D0
:1026D000EF92FF920F931F93CF93DF938C017B01B7
:1026E00040E065E50E943413E70188E0E80EF11C44
:1026F000699140E0C8010E943413CE15DF05C1F78F
:10270000DF91CF911F910F91FF90EF900895DC0121
:102710002C911196ED91FC911297F8948181922F52
:1027200090958923818378948DE743E050E0815030
:1027300021F1DA011197F1F730813223C1F3F894D6
:102740008281892382838181822B81837894ABE784
:10275000B7E01197F1F7F89481819823918383E191
:1027600091E00197F1F78081282381E009F080E072
:102770007894E3E6F6E03197F1F7089510921903A3
:1027800081E0809318031092F30261E082E10E94DD
:10279000042561E083E10E940425E9EBF0E08081FB
:1027A0008E7F808380818D7F808388E48093B800D2
:1027B00085E48093BC000895CF93DF9391E09093DC
:1027C00075028823B9F0C091B800D091BA00809109
:1027D000BC008A7B8093BC0060E082E10E940425FB
:1027E00060E083E10E9404250E94BE13D093BA00EA
:1027F000C093B800DF91CF91089585ED8093BC0020
:1028000080911B0390911C03A0911D03B0911E03A6
:102810000796A11DB11D23E0B695A79597958795BD
:102820002A95D1F72091BC0024FF1CC040911B03C6
:1028300050911C0360911D0370911E03452B462B84
:10284000472B81F30097A105B10541F025E32A95B7
:10285000F1F700000197A109B109E4CF80911A03B3
:102860000C94DC131092190308951F920F920FB667
:102870000F9211242F933F934F935F936F937F9306
:102880008F939F93AF93BF93EF93FF938091B90082
:10289000887F803609F49CC068F5883209F45BC0F3
:1028A00090F4803109F454C038F4882309F4F6C058
:1028B000883009F44DC0F6C0883109F44CC080322C
:1028C00009F45DC0EFC0803409F468C048F4803377
:1028D00009F455C0883309F0E5C080931703D8C0C8
:1028E000803509F44FC0883509F45DC0883409F09B
:1028F000D9C0D6C0883909F4C7C0A8F4883709F40C
:1029000067C038F4883609F463C0803709F460C0C2
:10291000C9C0883809F4B8C0803909F45FC080386C
:1029200009F0C0C05BC0803B09F486C038F4803A2F
:1029300009F466C0883A09F47FC0B4C0803C09F449
:10294000A7C0883C09F4A4C0883B09F48AC0AAC087
:102950008091F40210C0909116038091150398178E
:1029600070F5E091160381E08E0F80931603F0E07E
:10297000EB50FD4F80818093BB0085EC86C0809337
:1029800017038EC0E091160381E08E0F809316032B
:102990008091BB00F0E0EB50FD4F808390911603D7
:1029A000809115036EC0E091160381E08E0F809335
:1029B00016038091BB00F0E0EB50FD4F80838091C7
:1029C000180381116DC081E08093F30284EA61C035
:1029D00083E0809319031092B802CFCF8091B802A0
:1029E000803208F051C0E091B80281E08E0F8093F0
:1029F000B8028091BB00F0E0E856FD4F8083BDCF68
:102A000085EC8093BC00109219038091B80280324B
:102A100030F4E091B802F0E0E856FD4F108260918A
:102A2000B80270E0E091AC01F091AD0188E992E06C
:102A300009951092B80236C084E080931903109271
:102A4000970210929602E091AE01F091AF010995C4
:102A500080919602811105C081E0809396021092C8
:102A60007602E091970281E08E0F80939702F0E06A
:102A7000EA58FD4F80818093BB009091970280912E
:102A80009602981708F479CF85E88093BC000AC0B5
:102A900085EC8093BC001092190304C010921703B8
:102AA0000E94FD13FF91EF91BF91AF919F918F9184
:102AB0007F916F915F914F913F912F910F900FBE3A
:102AC0000F901F9018950F931F93CF93DF9363E997
:102AD00071E08FE793E00E942D1D8FE793E00E9445
:102AE0008B1D8091DB01811103C06DEB7AE05AC030
:102AF00084E1EBEDF1E0A7ECB1E001900D928A9555
:102B0000E1F71092F0021092EF021092F20210928E
:102B1000F102EBEDF1E080E090E020E030E0419167
:102B2000442381F04032D9F7DF0111971C92D9017B
:102B3000AA0FBB1FA151BD4FED93FC9301962F5FD0
:102B40003F4FEDCF9093EE028093ED0201E319E049
:102B5000C0E0D0E0B8018BED91E00E947133892B89
:102B600069F486E18C9FF0018D9FF00D1124EB5BE1
:102B7000F64F85919491FC0109950CC021960A5E4F
:102B80001F4FC231D10531F761E279E08FE793E061
:102B90000E9433251092C6011092C5011092DB01EC
:102BA00068E179E08FE793E0DF91CF911F910F917A
:102BB0000C94091DFC0110821182128213828FEF86
:102BC0009FEF958384839783868381E090E091874C
:102BD000808784E690E0958784878685882311F036
:102BE00061E001C060E082850C940425FC0182E074
:102BF00090E0918780878685882311F060E001C08E
:102C000061E082850C940425AF92BF92CF92DF924F
:102C1000EF92FF920F931F93CF93DF93EC015B0131
:102C20008A010E9494276B017C018FEFA816B806D9
:102C3000B1F00F3F8FEF180791F0888599850297C3
:102C400071F460E08A850E94042581E090E0998714
:102C500088870E949427688379838A839B838881ED
:102C60009981AA81BB81892B8A2B8B2B21F4C88265
:102C7000D982EA82FB8288819981AA81BB81C816A8
:102C8000D906EA06FB0629F0C81AD90AEA0AFB0A9D
:102C900003C0C12CD12C76011A141B048CF4BD8204
:102CA000AC828E819F811816190654F4A816B906B5
:102CB0000CF4C5016AE070E00E945A387D876C8789
:102CC000101611066CF41F830E838C819D811816DB
:102CD000190634F4801791070CF48C011D870C87BA
:102CE0008885998582309105A8F50197B1F48E8188
:102CF0009F81181619060CF043C0092E000CAA0B70
:102D0000BB0B8C159D05AE05BF05D0F561E08A852E
:102D10000E9404251986188616C08C819D8118167C
:102D2000190674F5092E000CAA0BBB0B8C159D051A
:102D3000AE05BF0528F560E08A850E94042581E084
:102D400090E0998788870E949427688379838A8393
:102D50009B8316C0039719F4CE010E94DA1588856B
:102D60009985029769F4CE01DF91CF911F910F9160
:102D7000FF90EF90DF90CF90BF90AF900C94F6153E
:102D8000DF91CF911F910F91FF90EF90DF90CF9047
:102D9000BF90AF9008954FEF5FEF6FEF7FEF0C9410
:102DA0000416CF92DF92EF92FF92CF93DF93C09001
:102DB0007102D0907202E0907302F090740220E0F1
:102DC00030E44BE155E4C701B6010E94CF37181635
:102DD0002CF5C9E1D0E08091BC019091BD01892B17
:102DE00099F420E030E048E152E4C701B6010E94C6
:102DF0000A366B017C010E94EE36CB010E94E71D72
:102E0000D093BD01C093BC0120E030E04AE754E418
:102E1000C701B6010E94CF3787FFDDCF87ED93E072
:102E2000DF91CF91FF90EF90DF90CF900C94E71D52
:102E3000CF92DF92EF92FF920F931F93CF93DF9386
:102E40006C017A018B01C0E0D0E0CE15DF0581F086
:102E5000D8016D918D01D601ED91FC910190F08129
:102E6000E02DC6010995892B11F02196EECF7E0148
:102E7000C701DF91CF911F910F91FF90EF90DF90ED
:102E8000CF900895FC01538D448D252F30E0842F81
:102E900090E0821B930B541710F0CF960895019782
:102EA0000895FC01918D828D981761F0828DDF016C
:102EB000A80FB11D5D968C91928D9F5F9F73928F2D
:102EC00090E008958FEF9FEF0895FC01918D828D22
:102ED000981731F0828DE80FF11D858D90E00895EF
:102EE0008FEF9FEF0895FC01918D228D892F90E047
:102EF000805C9F4F821B91098F73992708958FE7FC
:102F000093E00E94731721E0892B09F420E0822FBF
:102F10000895FC01848DDF01A80FB11DA35ABF4F96
:102F20002C91848D90E001968F739927848FA689C8
:102F3000B7892C93A089B1898C91837080648C931C
:102F4000938D848D981306C00288F389E02D8081CB
:102F50008F7D80830895EF92FF920F931F93CF93FD
:102F6000DF93EC0181E0888F9B8D8C8D981305C0D9
:102F7000E889F989808185FD26C0F62E0B8D10E049
:102F80000F5F1F4F0F731127E02E8C8DE8120CC0BE
:102F90000FB607FCFACFE889F989808185FFF5CF64
:102FA000CE010E948917F1CF8B8DFE01E80FF11D34
:102FB000E35AFF4FF0829FB7F8940B8FEA89FB89A1
:102FC000808180620AC09FB7F894EE89FF89608390
:102FD000E889F98980818370806480839FBF81E064
:102FE00090E0DF91CF911F910F91FF90EF900895A6
:102FF000CF93DF93EC01888D8823C9F0EA89FB89A0
:10300000808185FD05C0A889B9898C9186FD0FC096
:103010000FB607FCF5CF808185FFF2CFA889B9896B
:103020008C9185FFEDCFCE010E948917E7CFDF910C
:10303000CF91089580E090E0892B29F00E947F17BE
:1030400081110C9400000895DC011C968D919C91D7
:103050001D97DC01ED91FC910190F081E02D099428
:103060000895DC011C968D919C911D97DC01ED91DA
:10307000FC910484F585E02D0994DC011C968D916A
:103080009C911D97DC01ED91FC910284F385E02D6C
:103090000994DC011C968D919C911D97DC01ED91AA
:1030A000FC910084F185E02D09940895FC01637082
:1030B000668B8481958126813781613039F0633058
:1030C00029F0918780873387228708953187208769
:1030D0009387828708956F927F928F929F92AF928B
:1030E000BF92CF92DF92EF92FF920F931F93CF93F5
:1030F000DF93EC014B015A0169013801E881F98144
:103100000284F385E02D0995E881F9810288F3892D
:10311000E02D87019601A501B401CE010995A50115
:10312000460D571D41505109E881F9810288F38904
:10313000E02D9601B401CE010995E881F98100885E
:10314000F189E02D9301A501B401CE010995C80CC8
:10315000D91CB60161507109E881F9810088F189B3
:10316000E02D9301A501CE010995E881F98106883A
:10317000F789E02DCE01DF91CF911F910F91FF9044
:10318000EF90DF90CF90BF90AF909F908F907F9007
:103190006F9009948F929F92AF92BF92CF92DF92DD
:1031A000EF92FF920F931F93CF93DF934C016B012C
:1031B0005A01E901DC01ED91FC916217730781F47A
:1031C0000417150724F48B2D5801042F182F0A1902
:1031D0001B0998012F5F3F4F048CF58DE02D12C025
:1031E0004017510709F52617370724F48D2D69017B
:1031F000C62FD82F9E012C193D092F5F3F4F068CFB
:10320000F78DE02D8701A501B601C4010995DF9175
:10321000CF911F910F91FF90EF90DF90CF90BF90D3
:10322000AF909F908F9008950284F385E02D0995CB
:10323000D401ED91FC910488F589E02D9E01A50152
:10324000B601C4010995D401ED91FC910688F78976
:10325000E02DC401DF91CF911F910F91FF90EF906E
:10326000DF90CF90BF90AF909F908F900994EF9296
:10327000FF920F931F93DC011A960D911C911B97DF
:1032800018962D913C911997ED91FC9100A0F1A118
:10329000E02D7B0140E050E060E070E009951F9177
:1032A0000F91FF90EF9008954F925F926F927F92EF
:1032B0008F929F92AF92BF92CF92DF92EF92FF9246
:1032C0000F931F93CF93DF936C012B015A013901A8
:1032D0004801DC01ED91FC910284F385E02D099514
:1032E000E201640C751CD601ED91FC91C615D70561
:1032F0005CF40088F189E02D87019401A501BE01ED
:10330000C60109952196EFCF0688F789E02DC60101
:10331000DF91CF911F910F91FF90EF90DF90CF90B1
:10332000BF90AF909F908F907F906F905F904F90E5
:1033300009948F929F92AF92BF92CF92DF92EF92B9
:10334000FF920F931F93CF93DF93EC015B014A0130
:103350006901E881F9810284F385E02D09959501E1
:103360002C0D3D1D21503109E881F9810488F58932
:10337000E02D78018401A401B501CE010995E88111
:10338000F9810688F789E02DCE01DF91CF911F9159
:103390000F91FF90EF90DF90CF90BF90AF909F90F4
:1033A0008F9009948F929F92AF92BF92CF92DF92AB
:1033B000EF92FF920F931F93CF93DF93EC015B018A
:1033C0004A0169017801E881F9810284F385E02DE1
:1033D0000995C80CD91C860101501109E881F981B1
:1033E0000488F589E02D9501A401B501CE01099568
:1033F000E881F9810688F789E02DCE01DF91CF9130
:103400001F910F91FF90EF90DF90CF90BF90AF9002
:103410009F908F900994EF92FF920F931F93DC017E
:10342000ED91FC9100A0F1A1E02D09951F910F9164
:10343000FF90EF9008950F931F93DC01ED91FC91A5
:10344000068CF78DE02D09951F910F9108950F932C
:103450001F93DC01ED91FC91048CF58DE02D099515
:103460001F910F910895DC01ED91FC910084F1858D
:10347000E02D09942F923F924F925F926F927F922C
:103480008F929F92AF92BF92CF92DF92EF92FF9274
:103490000F931F93CF93DF9300D000D000D0CDB710
:1034A000DEB72C017E836D836A015901C801FC825D
:1034B000EB824801841A950A97FE03C09194819487
:1034C000910835012D813E81621A730A77FE03C08F
:1034D000719461947108681479045CF43A2D2B2D71
:1034E0005C01832F922F3D812E81DE82CD82C32EFF
:1034F000D22EAD81BE81AA16BB065CF43C2D2D2DCB
:103500006C01832F922F3D812E81BE82AD82A32E2E
:10351000B22E85012D813E81021B130B1C012C183C
:103520003D0837FE03C0319421943108780117FF1C
:1035300003C03FEFE31AF30AF594E794C816D906DF
:103540002CF08FEF9FEF9A83898304C0A1E0B0E055
:10355000BA83A9832D813E81A216B30624F1D2013C
:10356000ED91FC910484F585E02D2B813C8168145C
:10357000790424F44D815E81B60103C0A6016D81FA
:103580007E81C2010995E218F308F7FE06C0298181
:103590003A81C20ED31EE00EF11E8D819E810196EE
:1035A0009E838D83D7CF26960FB6F894DEBF0FBECD
:1035B000CDBFDF91CF911F910F91FF90EF90DF90E2
:1035C000CF90BF90AF909F908F907F906F905F90C3
:1035D0004F903F902F9008950E94B0388F929F9205
:1035E000AF92CF92EF92FF920F931F93CF93DF93FF
:1035F000EC01262F898D9A8D009709F042C06A3020
:1036000059F41D861C862D898E859F8538E0239F61
:10361000800D911D112443C06D3009F4AAC08F891B
:103620008823C9F03C898C859D8546E0349F800DB8
:10363000911D1124488559854817590764F41D8642
:103640001C863D898E859F8548E0349F800D911DA5
:1036500011249F878E87EA88FB88088919894E85FF
:103660005F856C857D85AD88CC88CE010E94A722C0
:103670002C898C859D8536E0239F800D911D11241A
:103680003EC06A3079F41D861C862D89FC0138966F
:10369000E4918E859F852E9F800D911D11249F871B
:1036A0008E8767C06D3009F464C0FC013496349194
:1036B000631708F45EC03296E491E61708F459C027
:1036C000462F431B342FFC0132968590949047E09F
:1036D000349F800C911C1124F40132963491319660
:1036E000E491332311F0E1110DC0F4013496E4911B
:1036F0002C898C859D85E29F800D911D11249D87CD
:103700008C8737C0F401359644915F89552319F1B0
:103710005C89E32FF0E0E40FF11D47FDFA955E9F11
:10372000B0015F9F700D11244C855D85460F571FBA
:10373000688579856417750774F41D861C863D8934
:10374000FC013896E4918E859F853E9F800D911DEA
:1037500011249F878E87EA88FB88088919894E85FE
:103760005F856C857D85AD88CC88CE010E94A722BF
:10377000BCCF81E090E0DF91CF911F910F91FF903E
:10378000EF90CF90AF909F908F9008951F93CF931D
:10379000DF93EC01162F8D8D9E8D892BB1F02DA915
:1037A0003EA94FA958AD60E074E284EF90E00E941A
:1037B0006E38DA01C9014097A109B109B695A795FC
:1037C000979587958093B8000FC08B8D9C8D892B22
:1037D00021F09EAD8FAD9CBD8DBDEFA5F8A9908168
:1037E0008CA9809589238083111102C016EA01C03B
:1037F00017EA8D8D9E8D0097F9F029A131E0309365
:103800001F03209341031092200310924203DC0116
:10381000ED91FC910190F081E02D60E009958D8D96
:103820009E8DDC01ED91FC910190F081E02D612FE6
:1038300009950E94E42533C0EDA5FEA590818BA9D2
:103840008095892380838B8D9C8D892B39F01EBDBB
:1038500000000DB407FEFDCF8EB521C028E030E09A
:1038600090E8E9A5FAA589A9412F492319F04081DB
:10387000842B03C04081809584238083EBA5FCA525
:1038800040818AA9842B8083EBA5FCA540818AA96D
:1038900080958423808396952150310911F78D8D71
:1038A0009E8D892BB1F029AD3AAD4BAD5CAD60E09A
:1038B00074E284EF90E00E946E38DA01C90140970B
:1038C000A109B109B695A795979587958093B800FA
:1038D00006C0EFA5F8A990818CA9892B8083DF9180
:1038E000CF911F9108950F931F93CF93DF93DC0126
:1038F0005696EC915697E23071F0E330E9F0E13002
:1039000079F5FB0114960D90BC91A02DA41BB50B6D
:10391000A21BB30B18C0EC01EC81FD81E61BF70B79
:10392000BF0161507109EE81FF81DF01A41BB50B5E
:10393000AD01421B530B14C0DA01EC01EE81FF8193
:10394000E61BF70B3197F7FD0DC0EC014E815F814F
:10395000E417F5073CF4AF01BD010E948B2102C0C2
:103960000E94F221DF91CF911F910F9108950F9343
:103970001F93DC015696EC915697E23061F0E330EC
:1039800009F1E13081F51496ED91FC911597E41B56
:10399000F50B319723C0DC011496ED91FC9115973E
:1039A000DF01A61BB70BBD01DC011696ED91FC9162
:1039B0001797DF01A41BB50BAD0141505109621BE4
:1039C000730B11C0FA01DC0116964D915C911797AB
:1039D000DA01A61BB70BBD01621B730BAB01BF0164
:1039E0000E94F2210CC057FD0AC0DC011696ED9131
:1039F000FC9117974E175F0714F40E948B211F91BB
:103A00000F910895DC01ED91FC910190F081E02D82
:103A10000994EF92FF920F931F93CF93DF938C0142
:103A20007B01C0E0D0E0F701EC0FFD1F649166233D
:103A300061F0D801ED91FC910190F081E02DC80179
:103A40000995892B11F02196EECFCE01DF91CF9110
:103A50001F910F91FF90EF9008956115710579F016
:103A6000FB0101900020E9F73197AF01461B570B8E
:103A7000DC01ED91FC910280F381E02D099480E05E
:103A800090E008958F929F92AF92BF92EF92FF9233
:103A90000F931F93CF93DF93CDB7DEB7A1970FB6E8
:103AA000F894DEBF0FBECDBF7C01FA01CB0119A295
:103AB000223008F42AE08E010F5D1F4F822E912CD8
:103AC000A12CB12CBF01A50194010E946E38F9010F
:103AD000CA01015011096A3014F4605D01C0695CCB
:103AE000D8016C93232B242B252B61F7B801C70138
:103AF0000E942D1DA1960FB6F894DEBF0FBECDBF5C
:103B0000DF91CF911F910F91FF90EF90BF90AF90F9
:103B10009F908F90089561E971E00C942D1D1F9284
:103B20000F920FB60F9211242F933F934F935F93F1
:103B30006F937F938F939F93AF93BF93EF93FF9375
:103B40008FE793E00E948917FF91EF91BF91AF91AA
:103B50009F918F917F916F915F914F913F912F91A5
:103B60000F900FBE0F901F9018951F920F920FB6D7
:103B70000F9211242F938F939F93EF93FF93E091D4
:103B80008F03F09190038081E0919503F09196036B
:103B900082FD12C09081809198038F5F8F73209176
:103BA0009903821751F0E0919803F0E0E158FC4F3F
:103BB000958F8093980301C08081FF91EF919F9131
:103BC0008F912F910F900FBE0F901F901895CF934C
:103BD000DF93209151043091520428173907C1F125
:103BE000811520E19207B8F5EC016091530480E162
:103BF000689FB00111246D2B8091500491E0909347
:103C00001F0380934103109220031092420380917E
:103C1000580490915904DC01ED91FC910190F081E0
:103C2000E02D09958091580490915904DC01ED91A3
:103C3000FC910190F081E02D6C2F09950E94E42504
:103C400090E0009751F4D0935204C093510405C002
:103C500080E090E002C089E19CEFDF91CF91089570
:103C60000F931F93CF93DF938C01EB018091EF02B1
:103C70009091F0020E9453338017910788F0C81783
:103C8000D90770F02091ED023091EE02213031051C
:103C900039F49093EC028093EB0281E090E008C04D
:103CA00061E270E18FE793E00E94332580E090E0CD
:103CB000DF91CF911F910F910895DF92EF92FF92C4
:103CC0000F931F93CF93DF9300D000D0CDB7DEB713
:103CD0001092E4021092E3028DE291E09093DC02F4
:103CE0008093DB0285E390E09093DE028093DD0217
:103CF0008FE590E09093E0028093DF0289E290E00C
:103D00009093E2028093E10281E08093D90281E402
:103D10008093DA0283E090E09093EA028093E902D4
:103D200088E18093E50284E690E09093E702809337
:103D3000E60289EDE82E82E0F82E04E010E0F701BB
:103D4000D1907F01C8010E94BD35D81621F06D2D9C
:103D5000C8010E94C5350F5F1F4F0631110579F765
:103D60008BEC99EEAAEFB8E189839A83AB83BC838D
:103D7000CE0101967C0100E010E0F701D1907F01B7
:103D8000C8010E94BD35D81621F06D2DC8010E94D2
:103D9000C5350F5F1F4F0430110579F764E170E1FD
:103DA0008FE793E00F900F900F900F90DF91CF91DE
:103DB0001F910F91FF90EF90DF900C943325CF93DC
:103DC000DF93AC0160E070E02AE08FE793E00E94AF
:103DD000421DEC018FE793E00E948B1D8C0F9D1F0D
:103DE000DF91CF9108951F93CF93DF93182FEB01AD
:103DF000642F81E00E948225112311F062E001C04E
:103E000061E088E20E94BA2560E08EE10E94BA2556
:103E1000BE018CE194E00E94091D60E088E20E94EE
:103E2000BA2567E08EE1DF91CF911F910C94BA25FE
:103E30004F925F926F927F928F929F92AF92BF92BA
:103E4000CF92DF92EF92FF92CF936B017C019B01A7
:103E5000AC010E944138882319F064E971E01AC06E
:103E600046015701E894B7F82FEF3FEF4FE75FE7C0
:103E7000C501B4010E944138811112C02FEF3FEFFC
:103E80004FE75FE7C501B4010E947736181644F486
:103E900068E971E08CE194E00E942D1D7C017EC0F8
:103EA0002FEF3FEF4FE75FE4C701B6010E94CF3726
:103EB00018161CF46CE971E0EDCF2FEF3FEF4FE7E0
:103EC0005FECC701B6010E94773687FDF3CF20E093
:103ED00030E0A901C701B6010E94773687FF0BC009
:103EE0006DE28CE194E00E94021D5C01F7FAF0940F
:103EF000F7F8F09402C0A12CB12C2AE037ED43EA88
:103F00005BE3C701B6010E940B362B013C010E9406
:103F1000EE366B017C010E941D379B01AC01C30191
:103F2000B2010E940A362B013C012AE0B701A6012A
:103F30008CE194E00E94421D7C01EA0CFB1C6EE2C5
:103F40008CE194E00E94021DE80EF91EC3E0C1500E
:103F500029F120E030E040E251E4C301B2010E94C7
:103F6000D4372B013C010E94EE364B01A12CB12C21
:103F70002AE0B501A4018CE194E00E94421DE80E04
:103F8000F91EC501B4010E941D379B01AC01C3019C
:103F9000B2010E940A362B013C01D9CF8CE194E09A
:103FA0000E948B1D8E0D9F1DCF91FF90EF90DF9093
:103FB000CF90BF90AF909F908F907F906F905F90C9
:103FC0004F9008956F927F928F929F92AF92BF927F
:103FD000CF92DF92EF92FF920F931F93CF93DF93D5
:103FE0008C01EB0180916304909164040E9487131B
:103FF000882309F447C0B801809163049091640458
:104000000E94681340E06EEB809163049091640419
:104010000E9434138E016E0189E0C80ED11C7E010E
:10402000A0906304B090640488E0882E912C712CD9
:1040300066246394C5010E94E11281117628660C02
:10404000E1E08E1A9108B1F7F70171927F01CE1667
:10405000DF0631F780916304909164040E94871316
:10406000813081F4F80181918F01811104C0EC1538
:10407000FD05C1F707C068E0CE010E94C91291E0BA
:104080002885281390E0892FDF91CF911F910F9100
:10409000FF90EF90DF90CF90BF90AF909F908F9068
:1040A0007F906F9008950F931F93CF93DF93CDB7B9
:1040B000DEB729970FB6F894DEBF0FBECDBF8C01D7
:1040C000BE016F5F7F4F0E94E21F882381F12A812A
:1040D00030E0A901542F4427550F550F550F898102
:1040E00028E0829FC00111249A01282B392BF80166
:1040F00080818031F9F468856623E1F070E08F817A
:10410000AB01481B5109CA019695982F88279795AE
:1041100087950E945A3860527109C901807F53E027
:10412000880F991F5A95E1F7860F971F04C080E802
:1041300094EE01C0C90129960FB6F894DEBF0FBEF8
:10414000CDBFDF91CF911F910F910895BF92CF9274
:10415000DF92EF92FF920F931F93CF93DF93EC01C7
:104160006B018D85811105C0CE010E9487138111DD
:1041700005C01B861D861C8680E060C040E060EFA5
:10418000CE010E94341301E0E12CB12C11E0CE01EC
:104190000E94E112F82ECE010E94E11291E0F91284
:1041A00003C08130B1F434C02E2D30E0F8121BC0B2
:1041B0008B85181738F4FE01E20FF31F83818023EB
:1041C00041F402C0811729F0F12C193058F41C87F2
:1041D00009C0FE01EE0DF11D8381802B8383FF2436
:1041E000F39409C0B12EFE01E20FF31F9381802FDB
:1041F0008095892383836F2DCE010E9405131F5F55
:10420000000F11F4E39401E087E08E1508F0BFCFB2
:10421000113408F4AECFBB86B11002C081E08D87A7
:104220008B81882309F4A5CFDE011396F6012B9626
:104230008D918193CA17DB07D9F781E0DF91CF9188
:104240001F910F91FF90EF90DF90CF90BF90089556
:10425000FF920F931F93CF93DF938C01F62EE09183
:104260006304F0916404138615861486DF011B969F
:1042700033961E92EA17FB07E1F7C0E0B801809180
:104280006304909164040E94A620D82F882369F0CB
:10429000FC1208C067E0C8010E94C912F8019781AA
:1042A000891721F0CF5FFC1648F7D0E08D2FDF9102
:1042B000CF911F910F91FF900895CF93DF93CDB7CA
:1042C000DEB729970FB6F894DEBF0FBECDBFBE0193
:1042D0006F5F7F4F0E94E21F882389F08D818F33AB
:1042E00061F020F48F3159F489E00CC08F3519F05A
:1042F0008F3739F004C08BE005C08AE003C080E04E
:1043000001C08CE029960FB6F894DEBF0FBECDBF7A
:10431000DF91CF9108950F931F93CF93DF9377FF92
:1043200004C0260F371F60E070E0DC011496CD91C9
:10433000DC911597FB01E20FF31FCE17DF071CF48A
:104340009E01261B370B121613060CF046C0FA010D
:1043500057FD3796DF01E3E0B595A795EA95E1F7BC
:10436000AC9FF001AD9FF00DBC9FF00D11246E0FBE
:104370007F1FDC015F96ED91FC919097E60FF71F90
:104380004770552781E090E001C0880F4A95EAF711
:10439000482F0130110539F078F002301105E9F4A9
:1043A0002E0F3F1F13C02E0F3F1FE217F307A9F078
:1043B0008081842B8193F9CF80952E0F3F1FE217C8
:1043C000F30759F0908198239193F9CFE217F307FF
:1043D00021F0808184278193F9CFDF91CF911F91C4
:1043E0000F910895EF92FF920F931F93CF93DF9356
:1043F000EC0177FDA5C0EC80FD806E157F050CF00B
:104400009FC057FF04C0240F351F40E050E08E814D
:104410009F81FA01E20FF31F8E179F071CF49C0186
:10442000241B350B121613060CF08AC0922F842F12
:104430008695869586958E9DD0018F9DB00D112411
:104440006A0F7B1FAF8DB8A1A60FB71F4770B1F1E0
:1044500088E0841B482F682F70E0FB01E45FFF4E6B
:10446000E491281798F4621B71092FEF30E002C025
:10447000359527956A95E2F7E2230130110549F059
:1044800078F00230110509F05BC00EC00130110553
:1044900019F48C91E82B0AC00130110508F049C0CD
:1044A000E0958C91E82302C08C91E827EC93941757
:1044B00008F446C02C813D81A20FB31FE92FE41BF5
:1044C000E830F8F00230110561F48E2F9C91909540
:1044D0009C932C813D81A20FB31F88508830B0F788
:1044E0000FC081E00115110509F480E081959E2F30
:1044F0008C932C813D81A20FB31F98509830C0F748
:10450000E770EE23E9F0F0E0EC5FFF4EE49101305C
:10451000110539F048F00230110591F48C91E8272B
:1045200006C08C91E82B03C0E0958C91E823EC93B6
:1045300007C00230110509F4B7CFAE0DBF1DBECFC5
:10454000DF91CF911F910F91FF90EF9008952F92DF
:104550003F924F925F926F927F928F929F92AF9213
:10456000BF92CF92DF92EF92FF920F931F93CF9360
:10457000DF93CDB7DEB76B970FB6F894DEBF0FBEF3
:10458000CDBF9B8F8A8F1B014A01D22E19870887C6
:104590003701A982DC0159962D913C915A9721153A
:1045A000310509F0FFC018968D919C9119976817F5
:1045B00079070CF0E7C11A968D919C911B974817CB
:1045C00059070CF0DFC1EC2DF0E0FB83EA839B017F
:1045D00046E0C49E200D311D11243D872C87121604
:1045E00013060CF0CFC16A2D70E07B876A8783E0E9
:1045F000660F771F8A95E1F77F876E87CB01880D5D
:10460000991D181619060CF0BDC158968C91811190
:1046100004C08FEA8D1508F4D394AA8DBB8DED915B
:10462000FC9111970284F385E02DCD010995B5E049
:10463000DB9EC0011124EC2DF0E0F98BE88B910199
:104640002B5F3F4F3B8B2A8B3D822C822101AC019B
:10465000421953095D8B4C8B7981672F70E07F8BFA
:104660006E8BC4010896998F888FEC89FD89E40DC3
:10467000F51DEC5FF44FD49054019F828E82D0FEE2
:1046800016C0AA8DBB8DED91FC91B1E0CB1209C093
:104690002981213031F40484F585E02D2885398580
:1046A00019C00684F785E02DE884F9841DC048858B
:1046B00059854615570519F1AA8DBB8DED91FC91D1
:1046C000B1E0CB120DC02981213051F40484F5856D
:1046D000E02D9301A501B2018A8D9B8D09950FC034
:1046E0000684F785E02D73010A851B852A813B81AD
:1046F0004E815F816C817D818A8D9B8D0995D694D9
:104700003FEFA31AB30A4E815F816E897F89460FFE
:10471000571F5F834E83888D998DA816B90609F0BF
:10472000AECF9FEF491A590AAC81BD81E889F9895A
:10473000AE0FBF1FBD83AC832A893B894216530647
:1047400009F093CF488559854615570509F4F8C0F7
:10475000AA8DBB8DED91FC91B1E0CB1211C02981E6
:10476000213071F4B1016B5F7F4F0088F189E02D3A
:10477000830128E030E0A4018A8D9B8D0995E0C07B
:104780006C857D854A815B81641B750B0684F7858A
:10479000E02D73010E851F859A01A4018A8D9B8DE2
:1047A0000995CEC0F9013496E491DE1AF9013296EA
:1047B00085919491B7E0DB9E800D911D1124F90144
:1047C000259134913B8B2A8BFC0125913491590121
:1047D000FC0132965490319634913C873296749015
:1047E0003196149141E04C1518F05981523068F01F
:1047F000672D072C000C770B7D836C83812F012E96
:10480000000C990B9B838A8304C01B821A821D8231
:104810001C82AA8DBB8DED91FC9111970284F385CA
:10482000E02DCD010995412CD12C612CF981EF2F80
:10483000F0E0FF83EE832C2D30E03B872A87A40134
:10484000410F511D17FD5A955F8B4E8BB101670DBE
:10485000711D77FC7A95798F688F7C85671608F0D3
:104860006FC0262D30E04A815B81420F531FAE811D
:10487000BF81A49FC001A59F900DB49F900D1124EE
:10488000F401E80FF91FF98BE88B842D712C4E8908
:104890005F89420F531F5D8B4C8B751408F04DC020
:1048A00051E0580F5E87877041F4C5010196EA898F
:1048B000FB89EA0DFB1DD4905C01D7FE3AC061E094
:1048C000C61216C07981713099F4AA8DBB8DED9115
:1048D000FC9111970484F585E02D288539854C8954
:1048E0005D89688D798D670D711DCD01099521C098
:1048F0008C819D81870D911DEA85FB858E9FB0017E
:104900008F9F700D9E9F700D1124620D731DAA8DD7
:10491000BB8DED91FC9111970684F785E02DE8841D
:10492000F9840E811F812A853B8548895989CD01EB
:104930000995DD0C73948E85B0CF450C63948DCFB3
:10494000AA8DBB8DED91FC9111970688F789E02D1A
:10495000CD016B960FB6F894DEBF0FBECDBFDF91D1
:10496000CF911F910F91FF90EF90DF90CF90BF906C
:10497000AF909F908F907F906F905F904F903F90FF
:104980002F9009946B960FB6F894DEBF0FBECDBF83
:10499000DF91CF911F910F91FF90EF90DF90CF901B
:1049A000BF90AF909F908F907F906F905F904F904F
:1049B0003F902F900895CF93DF93282F30E0F90197
:1049C000E051F54F8491F901E15AFF4ED491F9017C
:1049D000E55BFF4EC491CC2391F081110E94D0265B
:1049E000EC2FF0E0EE0FFF1FEF5BFF4EA591B491AF
:1049F000EC91ED2381E090E021F480E002C080E0C2
:104A000090E0DF91CF9108951F93CF93DF93282FEC
:104A100030E0F901E051F54F8491F901E15AFF4E80
:104A2000D491F901E55BFF4EC491CC23C1F0162F60
:104A300081110E94D026EC2FF0E0EE0FFF1FEA510B
:104A4000F54FA591B4919FB7F894111104C08C91C2
:104A5000D095D82302C0EC91DE2BDC939FBFDF9171
:104A6000CF911F9108950F931F93CF93DF93EC0184
:104A70000E94091D8C01CE010E948B1D800F911F89
:104A8000DF91CF911F910F910895CF92DF92EF9216
:104A9000FF920F931F93CF93DF936B01770FEE0875
:104AA000FF08F7FE1BC0EC016DE20E94021D8C01A5
:104AB00044275527BA014C195D096E097F092AE080
:104AC000CE010E94421D800F911FDF91CF911F9157
:104AD0000F91FF90EF90DF90CF9008952AE0B701FB
:104AE000A601DF91CF911F910F91FF90EF90DF9082
:104AF000CF900C94421DDC01ED91FC910280F3817A
:104B0000E02D09940F931F93CF93DF93182F062F57
:104B1000CCE1D4E042E050E060EA71E08C859D8514
:104B20000E947B25402F50E060E070E02AE0CE013B
:104B30000E94421D8C859D85DC01ED91FC910190C8
:104B4000F081E02D6BE30995412F50E060E070E0CB
:104B50002AE0CE010E94421D8C859D85DC01ED91ED
:104B6000FC910190F081E02D68E4DF91CF911F91DD
:104B70000F910994CF93DF93C82FD62F60EA71E08D
:104B80008CE194E00E942D1D6C2F70E02D2F30E001
:104B9000D83010F06C5C7F4F620F731F8CE194E093
:104BA0000E9445256EE771E08CE194E0DF91CF91A2
:104BB0000C942D1D47E050E063EA71E080912804D9
:104BC000909129040C947B258F929F92AF92BF9273
:104BD000CF92DF92EF92FF920F931F93CF93DF93C9
:104BE00010914203113208F0C2C0D09141030E94DB
:104BF00035276B017C01C0911903CC2311F1809101
:104C00001B0390911C03A0911D03B0911E03892BDF
:104C10008A2B8B2B81F30E94352780901B03909069
:104C20001C03A0901D03B0901E03DC01CB018C1966
:104C30009D09AE09BF0988169906AA06BB06D8F6D3
:104C400082C082E08093190381E0809318038FEF84
:104C5000809317031092160310931503A1E2B3E09B
:104C6000E5EFF2E080E0181721F09D9191938F5FBE
:104C7000FACF1092F4029091F4028D2F880F892BB5
:104C80008093F4028091F302813089F51092F3024F
:104C90000E9435276B017C018091F4028093BB0058
:104CA00080911B0390911C03A0911D03B0911E03E2
:104CB000892B8A2B8B2BA9F00E94352700911B038F
:104CC00010911C0320911D0330911E03DC01CB01C8
:104CD0008C199D09AE09BF09081719072A073B0758
:104CE00090F18091BC0083FDD7CF85EC01C085EEAB
:104CF0008093BC000E9435276B017C0180911903D1
:104D0000823039F580911B0390911C03A0911D0303
:104D1000B0911E03892B8A2B8B2B81F30E943527A0
:104D200000911B0310911C0320911D0330911E0361
:104D3000DC01CB018C199D09AE09BF0908171907C1
:104D40002A073B07D8F680911A030E94DC13C5E0BE
:104D500013C0809117038F3F79F080911703803241
:104D600041F080911703803331F0C4E005C0C1E009
:104D700003C0C2E001C0C3E01092200310924203BE
:104D800010921F038C2FDF91CF911F910F91FF90F5
:104D9000EF90DF90CF90BF90AF909F908F9008954D
:104DA000833081F028F4813099F08230A1F00895A9
:104DB0008730A9F08830B9F08430D1F48091800038
:104DC0008F7D03C0809180008F778093800008954D
:104DD00084B58F7702C084B58F7D84BD089580919E
:104DE000B0008F7703C08091B0008F7D8093B000BA
:104DF0000895CF93DF9390E0FC01E15AFF4E249198
:104E0000FC01E55BFF4E8491882361F190E0880FFF
:104E1000991FFC01ED58FF4EC591D491FC01EA5158
:104E2000F54FA591B491611109C09FB7F89488819D
:104E3000209582238883EC912E230BC0623061F48D
:104E40009FB7F8948881322F309583238883EC9123
:104E50002E2B2C939FBF06C08FB7F894E8812E2B82
:104E600028838FBFDF91CF9108953FB7F894809149
:104E7000D0049091D104A091D204B091D30426B56E
:104E8000A89B05C02F3F19F00196A11DB11D3FBF82
:104E9000BA2FA92F982F8827820F911DA11DB11D10
:104EA000BC01CD0142E0660F771F881F991F4A950C
:104EB000D1F708958F929F92AF92BF92CF92DF92D7
:104EC000EF92FF926B017C010E9435274B015C0140
:104ED000C114D104E104F104F1F00E943527DC0192
:104EE000CB0188199909AA09BB09883E9340A105FD
:104EF000B10570F321E0C21AD108E108F10888EE8B
:104F0000880E83E0981EA11CB11CC114D104E104D9
:104F1000F10419F7DDCFFF90EF90DF90CF90BF90B5
:104F2000AF909F908F9008952FB7F8946091CC0424
:104F30007091CD048091CE049091CF042FBF08953D
:104F40001F920F920FB60F9211242F933F938F93BE
:104F50009F93AF93BF938091CC049091CD04A09187
:104F6000CE04B091CF043091CB0423E0230F2D3732
:104F700020F40196A11DB11D05C026E8230F02965D
:104F8000A11DB11D2093CB048093CC049093CD043C
:104F9000A093CE04B093CF048091D0049091D1041B
:104FA000A091D204B091D3040196A11DB11D8093AC
:104FB000D0049093D104A093D204B093D304BF91B2
:104FC000AF919F918F913F912F910F900FBE0F90B6
:104FD0001F901895CF93DF93CDB7DEB765970FB6C7
:104FE000F894DEBF0FBECDBF789484B5826084BDD7
:104FF00084B5816084BD85B5826085BD85B58160DD
:1050000085BD80916E00816080936E00109281005A
:105010008091810082608093810080918100816015
:1050200080938100809180008160809380008091D6
:10503000B10084608093B1008091B0008160809362
:10504000B00080917A00846080937A0080917A0029
:10505000826080937A0080917A00816080937A00E8
:1050600080917A00806880937A001092C10010923B
:10507000B1011092B00110922003109242030E94DD
:10508000BE138BE991E19093AF018093AE018CE95F
:1050900091E19093AD018093AC01E0918F03F09189
:1050A000900382E08083E0918B03F0918C03108267
:1050B000E0918D03F0918E0380E18083109297033D
:1050C000E0919303F091940386E08083E091910353
:1050D000F0919203808180618083E0919103F0914F
:1050E0009203808188608083E0919103F091920324
:1050F000808180688083E0919103F09192038081A8
:105100008F7D80830E94DA2544E050E06BE771E0F8
:1051100080912804909129040E947B2568ED71E01C
:105120008FE793E00E94091D61E08BE00E94F92661
:1051300061E08AE00E94F92661E089E00E94F92698
:1051400061E08DE00E94F92661E086E00E94F92688
:1051500062E084E00E94F92662E083E00E94F92682
:1051600062E085E00E94F92662E082E00E94F92672
:1051700062E088E00E94F92662E087E00E94F9265A
:1051800060E08BE00E94042560E08AE00E94042534
:1051900060E089E00E94042561E08DE00E94042522
:1051A00061E086E00E9404251092E80211E010936D
:1051B0001F030CE30093410310922003109242035B
:1051C0000E94E425811103C00093E8020FC01093F0
:1051D0001F031DE31093410310922003109242031A
:1051E0000E94E425811109C01093E8021092000189
:1051F0008091BB0181608093BB018091E8028111A5
:105200000EC081E0809300018091BB018E7F80936E
:10521000BB0169EC71E08FE793E00E943325CE017A
:1052200001966C0100E010E0F82EED2CC8010E9400
:10523000BD35D6018D936D010F5F1F4F04301105F1
:10524000A9F789819A81AB81BC818B3C994EAA4F89
:10525000B84189F4B9EDCB2EB2E0DB2EC8010E9433
:10526000BD35D6018D936D010F5F1F4F06311105BE
:10527000A9F781E001C080E02091E9023091EA02C3
:105280002330310511F4811106C00E945D1E80910A
:10529000BB018F7D03C08091BB0180628093BB0105
:1052A0008091000181110DC08091E3029091E40290
:1052B000892B11F460E001C062E08DE794E00E9468
:1052C00056181092800081EC809381001092820029
:1052D00081E280936F0010928500109284008DE728
:1052E0008093B30082E08093B00095E09093B1008A
:1052F0008093700081E080933D0480933C04809310
:1053000039048FEF9FEF9093F0018093EF010E949B
:1053100094276093F3017093F4018093F5019093C7
:10532000F6018FE00E94DB24892B11F080E001C0A0
:105330008AE08093BF01E0916304F09164041386D6
:1053400015861486DF011B9633961E92EA17FB071B
:10535000E1F7109261041092620411E06F2D7E2D2E
:1053600080916304909164040E94A6208823F1F048
:1053700067E08F2D9E2D0E94C91298858913EECF6C
:10538000809161048F5F809361048981883209F480
:105390002BC530F4803109F427C58232F9F624C5D3
:1053A0008B3309F421C58234C9F61EC560E082EB57
:1053B00091E00E942821882309F42EC18091B20136
:1053C000803109F487C06F2D7E2D82EB91E00E9421
:1053D000E21F882309F47EC08D818F3109F47AC0E1
:1053E0008FE18D8380916304909164040E94871300
:1053F00062EB71E080916304909164040E946813F1
:1054000040E06EE480916304909164040E94341340
:1054100040E06B8180916304909164040E94341396
:1054200040E06C8180916304909164040E94341385
:105430008091B201803141F040E06D818091630440
:10544000909164040E94341320916004809163045D
:10545000909164042223E1F10E9487138823D1F103
:1054600062EB71E080916304909164040E94681380
:1054700040915A0468E480916304909164040E940E
:10548000341380915A04811107C064E170E080E018
:1054900090E00E945A2718C080915B04882329F06D
:1054A00060E080915C040E94042564E170E080E08B
:1054B00090E00E945A2780915B04882329F061E0E4
:1054C00080915C040E94042580916304909164049F
:1054D0000E94871389E080935D048091610482308B
:1054E000F8F010E0809161041817D0F480915D0409
:1054F0008C30B1F0612F8F2D9E2D0E942821898143
:10550000803129F08F2D9E2D0E945D2101C08CE0FD
:1055100090915D04981710F480935D041F5FE2CFB3
:1055200010925E0480916304909164040E9487133A
:1055300040E06CEC80916304909164040E94341309
:1055400040915A0464E480916304909164040E9441
:10555000341380915E04882309F44BC0E0915D040C
:1055600080915F048823F1F080915A0481111AC060
:105570000E9494274B015C01809163049091640424
:105580000E94E1128130A9F10E949427DC01CB0135
:1055900088199909AA09BB098E3E9240A105B10557
:1055A00058F327C0E950E33040F4F0E0EE0FFF1F5E
:1055B000ED5EFE4F8081918102C08EEE92E04C0143
:1055C000990FAA08BB0880915B04882329F060E04A
:1055D00080915C040E940425C501B4010E945A27F1
:1055E00080915B04882329F061E080915C040E9433
:1055F000042560E08F2D9E2D0E942821882321F014
:105600008F2D9E2D0E9453208091BB01806180933D
:10561000BB0168EB71E007C08091BB018F7E809376
:10562000BB016EE971E08FE793E00E943325809122
:10563000BF0181110CC09FB7F8948091BA019FBF40
:1056400082FD05C08FE08093BF011092BE011092D1
:10565000B1011092B00110922003109242030E94F7
:10566000BE138BE991E19093AF018093AE018CE979
:1056700091E19093AD018093AC018091500491E051
:1056800090931F03809341031092200310924203D2
:105690000E94E4258111EAC3109252041092510431
:1056A00080E090E00E94FD0C8091BB0188608093B7
:1056B000BB0160E08DE00E94042561E089E00E946A
:1056C000042561E08BE00E94042561E08AE00E94ED
:1056D00004258091E6029091E7029093090180935E
:1056E00008010E94F80A4CED55E06CED75E083E48A
:1056F00093E00E940416DD24D39474E0C72E1E01AB
:10570000F5E12F0E311CF8942091320430913304CE
:105710006091360470E0C9010E945A3890933304B6
:105720008093320480913904882339F00091370442
:1057300010913804012F112702C000E010E0789486
:105740006091360470E0C9010E945A3877FF03C0A7
:105750000095109507C0672B19F00F5F1F4F02C00F
:1057600000E010E08091F1019091F201080F191F03
:105770001093F2010093F101A090EF01B090F001BD
:105780000A151B0551F10E9494276093F301709351
:10579000F4018093F5019093F601A016B10674F41C
:1057A000C8018A199B09880F991F9093030280935F
:1057B000020258E0952E9092BF010BC0A01AB10AC8
:1057C000AA0CBB1CB0920302A092020229E0209313
:1057D000BF011093F0010093EF01F89400913A0497
:1057E00010913B0480913A0490913B04019721F081
:1057F0000115110509F044C378948091F7018017D1
:1058000081F18091C00188608093C0010093F7010D
:105810000E9494276093F3017093F4018093F50143
:105820009093F601C80199278230910589F038F4E8
:105830000097A9F00197A9F4C092BF0112C083306C
:10584000910551F0049769F493E09093BF0109C06A
:1058500082E08093BF0105C0D092BF0102C01092C8
:10586000BF019FB7F8948091BA019FBF82FF14C017
:105870008091C00180618093C0018091BE0181113F
:105880000DC082E593E00E94F61581E693E00E9448
:10589000DA15D092BE0102C01092BE0180E10E94D2
:1058A000F10C882319F0ADE0A093BF0188E00E94BD
:1058B000F10C882319F08CE08093BF0180E20E94F4
:1058C000F10C882319F08EE08093BF0180910501CF
:1058D00090E0A0E0B0E08093F8019093F901A093EC
:1058E000FA01B093FB018091F8019091F901A09128
:1058F000FA01B091FB0140910101509102016091C8
:10590000030170910401481759076A077B07C9F022
:1059100080910501811102C086E001C087E080937B
:10592000BF018091F8019091F901A091FA01B09125
:10593000FB018093010190930201A0930301B093B6
:1059400004016091C1017091C2018091C3019091E5
:10595000C40120E030E0A9010E94CF37181654F5A9
:105960008091C00180628093C0016091C1017091FB
:10597000C2018091C3019091C40120E030E0A901EF
:105980000E9477368823B1F08091C1019091C201C5
:10599000A091C301B091C4016091C1017091C20195
:1059A0008091C3019091C4010F2D1E2D22E044E08F
:1059B0000E941232E091BF018E2F90E0FC013297DD
:1059C000EE30F10508F073C0EC5CFF4F0C9490389A
:1059D00082E593E00E94DA1581E693E00E94F615D5
:1059E0008091C00184608093C001D0920402109223
:1059F00003021092020280910801909109010E9415
:105A0000FD0C53C00E94D11682E593E00E94F6156A
:105A100081E693E00E94DA158091C0018260809354
:105A2000C0011092040241C080910102811107C09F
:105A300080910402811103C0B3E0B0930002809111
:105A4000C00181608093C00130C08091C00180643A
:105A50008093C00180910102811127C085E00BC0B5
:105A600080910102811121C086E005C08091010270
:105A700081111BC087E08093000217C01092BE0105
:105A80001092040280E090E00E94FD0C48EC50E08F
:105A900068EC70E081E693E00E94041682E593E0F2
:105AA0000E94DA15E8E0E09300021092BF01E09155
:105AB00000028E2F90E08930910508F0F6C0FC01BD
:105AC000EE5BFF4F0C9490388091BF01813009F05C
:105AD000EAC080910102811181E180930002E3C05C
